:100000000C94D2020C9419030C9419030C94190348
:100010000C9419030C9419030C9419030C941903F0
:100020000C9419030C9419030C945C280C942E293D
:100030000C9475230C9419030C9419030C94190354
:100040000C9419030C9419030C9419030C941903C0
:100050000C9419030C94CE230C9419030C941903DB
:100060000C9419030C9419030C9419030C941903A0
:100070000C9419030C9419030C9419030C94190390
:100080000C9419030C9419030C9419030C94190380
:100090000C9419030C9419030C9419030C94190370
:1000A0000C9419030C9419030C941903A818A8189C
:1000B000DA18DA1827194519661A661A5019E51957
:1000C000F619F619561A661A661A5F1A061B061BE7
:1000D000181B181B0F1B181B181B181B061B061BB5
:1000E000141B181B181B141B9B29C229BA2AC229CE
:1000F000BA2A0E2A312ABA2A882A972A29001E00EB
:100100001F002000210022002300240025002600DB
:1001100027002D002E00310035002B0014001A009E
:100120000800150017001C0018000C001200130036
:100130002F0030002A004E0039000400160007008E
:1001400009000A000B000D000E000F003300340000
:10015000000028000151E10000001D001B00060006
:100160001900050011001000360037003800E500C6
:1001700052000000E0000000E2000000000000006B
:100180002C000000E3002C00E600500051004F005E
:100190004B0001003A003B003C003D003E003F00A8
:1001A00040004100420043004400450001000100BE
:1001B0000100010001000100005C010001000100DC
:1001C000010001000100010001004C0001000100DC
:1001D0000100010001000100010001000100010017
:1001E0000100010001000000010001000100000009
:1001F00001000100010001000100010001000100F7
:1002000001000100010001000000010000000100E8
:1002100000000000000001000000010001000100DA
:1002200001000100010001001E0F0500047F3F1FB7
:10023000643214643214783C1E1E140A05222325ED
:100240002628292A2C2D2F3032333536383A3B3D9B
:100250003E4042434547494A4C4E505153555759E9
:100260005A5C5E6062646668696B6D6F7173757706
:10027000797B7D7F81838587898A8C8E9092949605
:10028000989A9C9E9FA1A3A5A7A8AAACAEAFB1B314
:10029000B4B6B8B9BBBCBEBFC1C2C3C5C6C7C9CA64
:1002A000CBCCCDCED0D1D2D2D3D4D5D6D7D7D8D926
:1002B000D9DADADBDBDBDCDCDCDCDCDDDDDDDDDC84
:1002C000DCDCDCDCDBDBDBDADAD9D9D8D7D7D6D596
:1002D000D4D3D2D2D1D0CECDCCCBCAC9C7C6C5C358
:1002E000C2C1BFBEBCBBB9B8B6B4B3B1AFAEACAAA5
:1002F000A8A7A5A3A19F9E9C9A98969492908E8C55
:100300008A89878583817F7D7B79777573716F6D2E
:100310006B6968666462605E5C5A59575553515008
:100320004E4C4A4947454342403E3D3B3A383635BC
:100330003332302F2D2C2A292826252322FFAA7F6D
:100340005540000101010101010101010202020207
:10035000020202020203030303030303030404046F
:100360000404040405050505050606060606070738
:1003700007070708080808090909090A0A0A0B0BF0
:100380000B0C0C0C0D0D0D0E0E0E0F0F0F1010118F
:100390001111121213131414151516161717181815
:1003A00019191A1A1B1B1C1D1D1E1E1F202021227D
:1003B00022232424252626272829292A2B2C2D2DC3
:1003C0002E2F30313232333435363738393A3B3CE0
:1003D0003D3E3F404142434445464748494A4C4DD3
:1003E0004E4F50515354555658595A5B5D5E5F619C
:1003F0006264656668696B6C6D6F7072737577782F
:100400007A7B7D7E8082838587888A8C8E8F91938C
:100410009596989A9C9EA0A2A3A5A7A9ABADAFB1B3
:10042000B3B5B7BABCBEC0C2C4C6C9CBCDCFD1D498
:10043000D6D8DBDDDFE2E4E7E9EBEEF0F3F5F8FA3E
:10044000FDFF0C03570049004E0047005300000019
:100450000A0359004D0044004B0000000403090446
:1004600009023B00020100A0FA0904000001030197
:100470000100092111010001224000070581030844
:10048000000A090401000103000000092111010014
:100490000122B6000705820320000A1201100100A4
:1004A0000000084D597529010001020001050109EC
:1004B00002A10185020901A10005091901290815F8
:1004C00000250195087501810205010930093115E2
:1004D00081257F95027508810609381581257F954C
:1004E0000175088106050C0A38021581257F9501E2
:1004F00075088106C0C005010980A10185031901A5
:100500002AB700150126B700950175108100C005B6
:100510000C0901A101850419012AA002150126A0D8
:1005200002950175108100C005010906A10185052C
:10053000050719E029E715002501950875018102D5
:100540000507190029EF1500250195F075018102B5
:100550000508190129059505750191029501750395
:100560009101C005010906A101050719E029E71558
:100570000025019508750181029501750881010525
:1005800007190029FF150026FF0095067508810050
:100590000508190129059505750191029501750355
:1005A0009101C00011241FBECFEFDAE0DEBFCDBF46
:1005B00004B603FE27C08091640390916503A09167
:1005C0006603B09167038730904BA740B04BD1F4DE
:1005D00010926403109265031092660310926703F1
:1005E00014BE84B7877F84BF0FB6F894A895809116
:1005F0006000886180936000109260000FBEE0E0B0
:10060000F8E3099511E0A0E0B1E0E6EDF8E502C0FD
:1006100005900D92AE3CB107D9F723E0AEECB1E006
:1006200001C01D92A436B207E1F70E9496250C94F2
:10063000692C0C94000081E0089581E008950C94E9
:100640001D0308950C9421031F93CF93DF9300D0D3
:1006500000D01F92CDB7DEB749835A836B833091A8
:10066000510289819A81311114C0662359F02223E5
:1006700049F00E943F20182F682F89819A810E949B
:10068000E81F03C00E941320182F69817A81812FEF
:1006900004C00E943F2069817A810F900F900F90D3
:1006A0000F900F90DF91CF911F910C940704FC01E4
:1006B000262F408151816281738184810C942403AF
:1006C000CF93DF93EC0160E00E945703BE01DF91FE
:1006D000CF910C9422030E942C060E94F7030E94E3
:1006E000C5130C9469060C94650608950E94F41ACB
:1006F0000E9475032FEF84E39CE0215080409040DE
:10070000E1F700C000000C94F4230F931F93CF93E4
:10071000DF938C0161E00E945703EC01B8010E9455
:100720001F03882309F44BC0B801CE010E94261391
:10073000882309F444C0B801CE010E9473148823B1
:10074000F1F1B801CE010E94C5148823C1F1B801AE
:10075000CE010E94F015882391F1B801CE010E94CC
:100760006A11882361F1F8018281882309F1CB3570
:100770008DE5D807C1F050F4C115FCE5DF0781F025
:10078000CF3DDC45A9F40E94502219C0CC35EDE5DF
:10079000DE0761F0CD35DD4559F40E94D22008C056
:1007A0000E9476030CC00E94DB2002C00E94DE2063
:1007B000C801DF91CF911F910F910C941B0380E032
:1007C000DF91CF911F910F91089508950C94E50347
:1007D00081E00895CF93C82F0E94E803882329F071
:1007E000C1FD02C0479A01C04798CF9108953F9A32
:1007F000479A0895CF93C82F0E94E6038C2F0E943A
:10080000EA03CF91089580E090E0089508952BE4E5
:10081000829FC0011124FC012FE0729FE00DF11DA9
:100820001124E60FF11DEE0FFF1FE450FF4F8591DD
:1008300094910895880F991FFC01E85DFD4F859103
:1008400094910895CF93DF930E9407040E943A0584
:10085000EC018115904508F041C0C11580E4D8072E
:1008600008F0D1C0C83ED10510F5C03ED10508F052
:10087000FDC0C83AD10578F4C53AD10508F0A2C048
:10088000C130D10509F4F2C008F4EEC0C430D1057E
:1008900008F0ECC0E9C0CF3BD10508F49BC0C03CD8
:1008A000D10508F4E1C0CE01805C91099EC0C1155C
:1008B00090E2D90758F4C11521E0D20708F0D6C05C
:1008C000CD3ED10508F4D0C0D065D0C0C11580E3BD
:1008D000D80708F08EC0CE019F7087C0C11595E57E
:1008E000D90708F043C0C11524E5D20708F0A2C01B
:1008F000C11582E5D80708F5C11591E5D90708F0BB
:1009000085C0CE0174E0969587957A95E1F783705E
:100910009C2F937021E030E002C0220F331F9A9584
:10092000E2F73C68382BCF70C695C69580E2C89F29
:10093000E0011124C22BD32B99C09E0123703327D1
:100940008C2F86958695C115D34508F064C0C1E00B
:10095000D0E002C0CC0FDD1F2A95E2F720E2829F93
:10096000C0011124C82BD92BDC6880C0C11529E532
:10097000D207A0F4C11588E5D80708F060C0C115FA
:1009800096E5D90708F070C08C2F0E94CE058F71B4
:10099000C82FD0E0DC2FCC27D06268C0C1152AE573
:1009A000D20708F451C0CE0190568115904208F04C
:1009B0005BC08D2F8F710E94CE05DD27D0628F71B5
:1009C000D82B54C0C55AD0E0C65ADE4FC881D0E0FB
:1009D000D0644CC0C85AD0E0CC0FDD1FC45DDE4FE0
:1009E0000990D881C02DD46441C00E941A04EC0142
:1009F0003DC0CE019927D3FF03C0EC01D86C36C0AF
:100A0000EC01D06C33C0DF70D06A30C0DC2FCC2753
:100A1000C16FD06A2BC0C1E0D0E002C0CC0FDD1F97
:100A20002A95E2F720E2829FC0011124C82BD92B1E
:100A3000DA681CC0DC2FCC27C46FD06A17C0DC2F4B
:100A4000CC27C06FD06A12C08C2F8F700E94CE0549
:100A500094E0D695C7959A95E1F7CF70D0E0DC2F5A
:100A6000CC27D069C82B02C0C0E0D0E0CE01DF9116
:100A7000CF9108958238910569F1B0F481339105E1
:100A800009F46DC048F48932910509F463C08A32D3
:100A9000910509F469C008958533910509F455C09D
:100AA00089339105B9F00895833E910569F138F4D1
:100AB000803E9105B1F0823E910509F10895863E90
:100AC0009105A9F1873E9105B9F1843E910509F0A0
:100AD00064C023C020910D0320FD4FC021FD4DC0F7
:100AE000089580910D0380FD44C080910E0380FF26
:100AF00044C080910D0384FD42C083EE4DC08091BF
:100B00000D0382FF38C0F5CF80910D0382FD33C005
:100B100080910E0380FD31C0ECCF80910E0381FFE8
:100B200032C080910D0384FD2AC087EE35C08091CC
:100B30000D0383FF26C0F5CF80910D0383FD21C0F7
:100B400080910E0381FD1FC0ECCF80910D0385FDC8
:100B50001CC01DC080910D0385FD19C016C0809179
:100B60000D0386FD16C017C080910D0386FD13C0CE
:100B700010C089E311C082EE0FC080EE0DC080E08E
:100B80000BC086EE09C084EE07C089E205C085E38C
:100B900003C08AE201C081E390E0089590910D03C3
:100BA00092FF0DC0282F2871283019F4877F8460A8
:100BB00006C0282F2471243011F48B7F886093FFA6
:100BC0000DC0282F2871283119F4877E846106C052
:100BD000282F2471243111F48B7E886120910E031B
:100BE00020FF0DC0382F3871383019F4877F8160AD
:100BF00006C0382F3171313011F48E7F886021FFAB
:100C00000DC0282F2871283119F4877E816106C014
:100C1000282F2171213111F48E7E886194FD877E09
:100C200008950C94A2210E94B4062FEF86E791E06C
:100C3000215080409040E1F700C000000E94B406BF
:100C400080E00E94500680FF04C00E9411060C94B0
:100C5000F42308950C9413060E94A821811102C068
:100C60000E9450220E94B3218093E9020E94BB217E
:100C700090930E0380930D030E942A060E94B721D1
:100C8000682F70E080E090E00E94EA1E6091BC0254
:100C90007091BD028091BE029091BF020C94221F00
:100CA000E82FF0E0EE0FFF1FE75EFC4F808191819F
:100CB0000895089580EA8A95F1F7089500C008958F
:100CC0000C945A0608950C9462060C9463060C94D6
:100CD00062060C946706F894E82FE295EF70F0E056
:100CE00031A1282F2F7081E090E001C0880F2A9554
:100CF000EAF7982F9095932391A392A1892B82A331
:100D0000789408950F931F93CF93DF93CDE5D1E0AF
:100D10000CE611E089910E946B060C171D07D1F7B4
:100D200080E30E946B0681E30E946B0682E30E94CF
:100D30006B0683E30E946B0687E30E946B06EFE07D
:100D4000F3E0A9E1B3E0119211921D921D9283E0AC
:100D5000E931F807C1F785E00E944F07DF91CF9195
:100D60001F910F910C946B034F925F927F928F9221
:100D70009F92AF92BF92CF92DF92EF92FF920F932A
:100D80001F93CF93DF939DE5E92E91E0F92E00E0CC
:100D900010E0C0E0CC24C394D12C39E1A32E33E081
:100DA000B32E4701D7018C91F894E82FE295EF70AC
:100DB000F0E021A18F70A60102C0440F551F8A9553
:100DC000E2F7CA01922F982B91A392A180958923D3
:100DD00082A378940E945E06A601002E02C0440FF2
:100DE000551F0A94E2F7BA0160957095EFE0F3E0C1
:100DF0008CE6482E81E0582ED0E020813181D2014E
:100E00007D902D01872D82958F7090E0DC0190966A
:100E10008C9190E0B72DBF7002C095958795BA95DB
:100E2000E2F780FD04C0C901842B952B03C0C901E2
:100E3000862397232817390719F091838083D1E0FF
:100E40003296AE16BF06C9F6EFEFEE1AFE0AD401CF
:100E50008C910E946B060E946006CD2B0F5F1F4F86
:100E60000F30110509F09DCF2C2F45E069E173E0AB
:100E70008FE093E00E9450070E9473038C2FDF9154
:100E8000CF911F910F91FF90EF90DF90CF90BF9087
:100E9000AF909F908F907F905F904F9008950895AE
:100EA000FF920F931F93CF93DF93F82E092F162FE6
:100EB000D72FC42F222349F081E08093D2010E94D2
:100EC000A7239093D1018093D0018091D2018823F0
:100ED000D9F08091D0019091D1010E94BF23069753
:100EE00098F0EF2DF02FA12FBD2F80E090E04C2F38
:100EF00050E08417950734F4219131912D933D935F
:100F00000196F7CF1092D201DF91CF911F910F91EF
:100F1000FF9008958091D90180FF0BC06091090175
:100F200085E0689FB0011124759567957595679563
:100F30002BC081FF09C06091090185E0689FB00165
:100F400011247595679520C082FF07C06091090143
:100F500085E0689FB001112417C09091D8019923B2
:100F6000D1F060910801961788F72091090185E07A
:100F7000289F90011124929FA001939F500D11244E
:100F800070E0CA010E942C2B6038710540F4611595
:100F9000710519F406C065E070E0862F08958FE7AB
:100FA000089581E008958091D90180FF08C0609183
:100FB000050170E0759567957595679521C081FF6E
:100FC00006C06091050170E07595679519C082FFB4
:100FD00004C06091050170E010C09091D701992381
:100FE00099F0609104019617A0F780910501899FFF
:100FF000C001112470E00E942C2B6038710540F470
:101000006115710519F406C061E070E0862F08953E
:101010008FE7089581E008958D3E21F40E948A07AC
:10102000819504C08E3E29F40E948A078093DD01D9
:1010300008958F3E21F40E948A07819504C0803F65
:1010400029F40E948A078093DC010895893F19F4EE
:101050000E94D30705C08A3F31F40E94D3078195CF
:101060008093DE0108958B3F21F40E94D307819580
:1010700004C08C3F29F40E94D3078093DF010895B8
:101080009FE0980F983078F421E030E0A90102C089
:10109000440F551F9A95E2F7CA019091DB01892B05
:1010A0008093DB0108958D3F21F48091D901816007
:1010B0000BC08E3F21F48091D901826005C08F3F23
:1010C00029F48091D90184608093D90108958D3EDF
:1010D00039F49091DD0197FF35C01092DD0159C0C0
:1010E0008E3E29F49091DD011916BCF32BC090912E
:1010F000DC018F3E29F497FF25C01092DC0149C026
:10110000803F19F41916CCF31DC09091DE01893F80
:1011100029F41916BCF41092DE013BC08A3F19F481
:1011200097FF10C0F8CF8B3F39F49091DF0197FF04
:1011300009C01092DF012DC08C3F21F49091DF0196
:101140001916BCF39FE0980F983080F421E030E04E
:10115000A90102C0440F551F9A95E2F7CA01809574
:101160009091DB0189238093DB0113C08D3F21F433
:101170008091D9018E7F0BC08E3F21F48091D901DF
:101180008D7F05C08F3F29F48091D9018B7F80939B
:10119000D9018091DC01811106C08091DD018111AE
:1011A00002C01092D8018091DE01811106C08091A9
:1011B000DF01811102C01092D70108950E94A72378
:1011C0002091DC01211104C02091DD01222321F0B6
:1011D0009093D6018093D5012091DE01211104C0A6
:1011E0002091DF01222321F09093D4018093D30139
:1011F0008AED91E00C944C16EF92FF920F931F939F
:10120000CF93DF9300D000D000D0CDB7DEB786E01B
:10121000EAEDF1E0DE01119601900D928A95E1F779
:10122000E090DC01F090DD010091DE011091DF0122
:101230001092DC011092DD011092DE011092DF01AC
:10124000E11003C0FF2009F45DC08091D5019091A9
:10125000D6010E94BF23AC019091D801992339F0A7
:1012600020910A0130E02417350758F04BC0209137
:101270000B018AE0289F900111242417350718F0EC
:1012800041C09F3F19F09F5F9093D801EE2061F01D
:101290000E948A071E1414F09FEF01C091E0989FEE
:1012A000902D11249093DC01FF2061F00E948A07A9
:1012B0001F1414F09FEF01C091E0989F902D11240E
:1012C0009093DD013091DC013323E1F02091DD01C9
:1012D0002223C1F045EB3403C0011124992319F0F6
:1012E0009093DC0103C081E08093DC0135EB2303A4
:1012F000C0011124992319F09093DD0103C081E00E
:101300008093DD01011103C0112309F45DC08091B8
:10131000D3019091D4010E94BF23AC019091D701D9
:10132000992339F02091060130E02417350758F051
:101330004BC0209107018AE0289F900111242417B7
:10134000350718F041C09F3F19F09F5F9093D70178
:10135000002361F00E94D307101614F09FEF01C024
:1013600091E0989F902D11249093DE01112361F05C
:101370000E94D307111614F09FEF01C091E0989FCF
:10138000902D11249093DF013091DE013323E1F0A1
:101390002091DF012223C1F045EB3403C001112469
:1013A000992319F09093DE0103C081E08093DE0160
:1013B00035EB2303C0011124992319F09093DF0129
:1013C00003C081E08093DF018091DC0181110BC0BB
:1013D0008091DD01811107C08091DE01811103C080
:1013E0008091DF0181110E94DE08EB82FC820D8377
:1013F0001E8386E0FE013196AAEDB1E001900D92C8
:101400008A95E1F726960FB6F894DEBF0FBECDBFE2
:10141000DF91CF911F910F91FF90EF900895EAED2A
:10142000F1E086E0DF011D928A95E9F71092D8017C
:101430001092D7011092D9010895EF92FF920F9365
:101440001F93CF93DF938B01682F11110AC04423A0
:1014500029F0E82FF0E0EE5BFC4F6491762F862FA9
:1014600075C0212F30E0E82FF0E0442321F0EE5B3F
:10147000FC4FE491F0E046E0049FC0011124CFEF5F
:10148000D0E0BE010E94182B4BEA4603C001479FE3
:10149000900D1124800F911D800F911D982F990F91
:1014A000890FAE01421B530B4E9FD0014F9FB00DD1
:1014B0005E9FB00D11249B2F189FA0011124452F72
:1014C00055278E01041B150B0E9FA0010F9F500D79
:1014D0001E9F500D11247E01E81AF108E29E800142
:1014E000E39E100DF29E100D1124212F3327C21BF5
:1014F000D30BCE9F9001CF9F300DDE9F300D112476
:1015000062307105A9F048F46115710569F0613028
:101510007105C9F48B2F752F0DC06430710581F0F2
:1015200058F06630710579F47E2F8B2F932F0DC004
:10153000832F7B2F9E2F09C08E2F7B2F952F05C0C9
:101540008E2F732F02C07E2F852F692FDF91CF91B1
:101550001F910F91FF90EF90089541E00E941D0AA6
:10156000089508950E94AD0A0895CF93DF93762FD2
:10157000E901682F842F0E94B20A798368838A83E5
:10158000DF91CF91089580912303282F269530E095
:101590002115310519F48170826005C02B323105A7
:1015A00024F08170846580932303089588E090E09F
:1015B0000C940A2CCF92DF92EF92FF926B017C0188
:1015C0000E94C30AB701A60188E090E0FF90EF9067
:1015D000DF90CF900C94282CE3E2F3E083E080834B
:1015E00011828FEF82838383148260817181828173
:1015F00093810C94DA0A8091230380FF02C08695C0
:10160000089580E0089590912703933018F49F5F28
:1016100090932703882351F0609123037091240352
:1016200080912503909126030C94DA0A089581E0B5
:101630000C94030B90912703992319F091509093E8
:101640002703882351F06091230370912403809134
:101650002503909126030C94DA0A089581E00C94F6
:101660001A0B70E00C94D513609110018091230344
:1016700080FF0AC080910F0123E0829FC0011124E6
:10168000885D9C4F0C94310B809111019091120157
:10169000891780F7E82FF0E09F01220F331FE20F38
:1016A000F31FE85DFC4F1182108212828F5FF0CF32
:1016B0009091230390FF16C0909111012091120187
:1016C000921770F4E92FF0E0DF01AA0FBB1FEA0FB9
:1016D000FB1FE85DFC4F8183608342839F5FF0CFF7
:1016E0000C94340B0895CF93DF9300D01F92CDB7A5
:1016F000DEB79091230390FF0AC09E012F5F3F4FFA
:101700000E94B50A4B8169818A810E94580B0F9013
:101710000F900F90DF91CF910895CF93DF93EC015D
:10172000EC81F0E0E35CFD4F4491E3E2F3E06281A1
:1017300081810E94730B8C818F5F8C83DF91CF91AD
:101740000895CF93DF93EC01E3E2F3E043816281FC
:101750008C810E94730B8C818F5F8C83DF91CF9182
:1017600008950F931F93CF93DF9300D01F92CDB7AF
:10177000DEB78C018091E00181110AC09E012F5FCC
:101780003F4F4FEF6FEF0E94B50A8A818093E001CF
:10179000F8018481813051F028F0823061F4409169
:1017A000E0010AC08091E00140E007C06091E001E3
:1017B00040E080E003C040E080E060E00E94580B21
:1017C000F801848190E0019663E070E00E942C2B88
:1017D00084830F900F900F90DF91CF911F910F9105
:1017E0000895AF92BF92CF92DF92EF92FF920F9344
:1017F0001F93CF93DF9300D01F92CDB7DEB7182F82
:10180000F62E042FE22E9091230390FF6DC0E92F56
:10181000E695AE2FB0E0AF58BE4F8C918093320268
:101820009E7F923061F49E012F5F3F4F812F0E9477
:10183000B50A4B8169818A810E94580B43C082306E
:1018400019F4009126033EC0863019F41091240348
:1018500039C08930D9F38931A9F5E9518E2F8170CA
:10186000D82EE695F0E0E35CFC4FA590B490C12C37
:10187000BB2460911301C61618F52C2D30E0A29EF2
:10188000C001A39E900DB29E900D112470E00E94A5
:10189000182B812FD11002C0860F01C0861B90919A
:1018A0001101290F311DA901440F551F240F351FA8
:1018B000285D3C4F402F6F2D0E94B50AC394D9CFAD
:1018C0000E94340B10932403F09225030093260307
:1018D000EE2051F060912303709124038091250341
:1018E000909126030E94DA0A0F900F900F90DF91DB
:1018F000CF911F910F91FF90EF90DF90CF90BF900D
:10190000AF900895E3E2F3E09181282F4381628153
:1019100088E0890F0C94F10B81E00C94820CE3E2D7
:10192000F3E09181282F4381628188EF890F0C9425
:10193000F10B81E00C948F0CE3E2F3E0628128E08C
:10194000620F08F46FEF282F438181810C94F10B13
:1019500081E00C949C0CE3E2F3E0628128E0621BDE
:1019600008F460E0282F438181810C94F10B81E021
:101970000C94AB0CE3E2F3E0438128E0420F08F45F
:101980004FEF282F628181810C94F10B81E00C9440
:10199000BA0CE3E2F3E0438128E0421B08F440E0A4
:1019A000282F628181810C94F10B81E00C94C90C89
:1019B00020E00C94F10BFF920F931F93CF93DF93D2
:1019C000EC01F12C0FEF10E060911301F616F0F42A
:1019D000809111012F2D30E0280F311DC901880F92
:1019E000991F280F391F285D3C4F70E0C8010E94E5
:1019F0002C2B962F8C814091260360912503F99E14
:101A0000800D11240E94B50AF394DECF0E94340B9E
:101A10009A818C8190FF02C08F5F01C081508C83BE
:101A2000DF91CF911F910F91FF900895AF92BF92D8
:101A3000CF92DF92EF92FF920F931F93CF93DF939A
:101A4000FC01828180FF02C00FEF01C001E010E0C5
:101A50004EE0A42E80911301181708F043C0809126
:101A60001101C12ED12CE601C80FD11DCE01880F66
:101A7000991FC80FD91FC85DDC4F198218821A82BE
:101A800034E0E32EF12CB12C8091E2018B0D8F30EC
:101A90002CF06A2D0E940A2B892F05C087FF03C0F6
:101AA00090911301890F082E000C990BC816D906C6
:101AB00091F4809126038E9DA0018F9D500D1124DD
:101AC00055954795559547959E01609125038091C1
:101AD00024030E94B50AB00EF1E0EF1AF108A1F656
:101AE0001F5FB8CF0E94340B8091E201013031F4C6
:101AF000811102C080911301815007C090E00196CE
:101B00006091130170E00E942C2B8093E201DF9121
:101B1000CF911F910F91FF90EF90DF90CF90BF90EA
:101B2000AF900895CF938091110190911201891780
:101B300070F4E82FF0E09F01220F331FE20FF31F34
:101B4000E85DFC4F1182108212828F5FF0CFC0E0FF
:101B500060911301C617C0F5EC2FF0E070E0CF01E3
:101B60000E942C2B20911101820F2091E101022E65
:101B7000000C330B90E0E217F307CCF020910E013C
:101B8000022E000C330B2E173F078CF09C01220F06
:101B9000331F820F931F9C01285D3C4F4091260309
:101BA00060912503809124030E94B50A0BC0FC01BB
:101BB000EE0FFF1F8E0F9F1FFC01E85DFC4F11828F
:101BC00010821282CF5FC4CF0E94340B20910D018E
:101BD0008091E101820F8093E10190910E01920FBB
:101BE00090930E0119165CF4082E000C990B40918D
:101BF000130150E041505109841795071CF02195BD
:101C000020930D01CF9108958F929F92AF92BF9232
:101C1000CF92DF92EF92FF920F931F93CF93DF93B8
:101C20008C01FC014481C42FD0E09E01DE010E94A2
:101C3000702B9B01AC010E94862B6B017C01E0E2C2
:101C4000F0E0EC1BFD0BA5E5B0E09B01AC010E94B0
:101C5000862B4B015C019F01DF010E94682B9B01D9
:101C6000AC010E94912B9B01AC012C0D3D1D4E1D22
:101C70005F1DC501B4010E94402BC22FD22F2A3212
:101C800028F4F3E02F9F900111240DC025E530E0EA
:101C90002C1B3109C901880F991F280F391F37FFE5
:101CA00002C02F5F3F4F35952795C22FC095F12C6D
:101CB00085E5E82EED1A80911301F816C8F4F1FCC1
:101CC00002C08E2D01C08D2F909111012F2D30E07B
:101CD000290F311DA901440F551F240F351F285D01
:101CE0003C4F4C2F609125030E94B50AF394E3CF3B
:101CF0000E94340BF8018481811102C091E003C07D
:101D0000803219F49FEF90930C0190910C01890F90
:101D1000F8018483DF91CF911F910F91FF90EF9095
:101D2000DF90CF90BF90AF909F908F9008950F93CA
:101D30001F93CF93DF93EC0100E010E0809113013B
:101D4000282F30E00217130724F590911101980114
:101D5000290F311DA901440F551F240F351F285D80
:101D60003C4F869590E04C81081719071CF44423DA
:101D700031F002C0411103C04091260301C040E090
:101D800060912503809124030E94B50A0F5F1F4FC5
:101D9000D5CF0E94340B8C8190E0019681709927F9
:101DA0008C83DF91CF911F910F9108957F928F9235
:101DB0009F92AF92BF92CF92DF92EF92FF920F93DA
:101DC0001F93CF93DF93FC018280748081E0848332
:101DD000EDE3F2E09490ECEBF2E0E491A12CF5E07D
:101DE000BF2ECC24CA94D12CE9190E2F10E080917B
:101DF0001301A81608F0A2C0EA2CF12C22E0281545
:101E000068F0BE9CF001BF9CF00D1124ED51FE4F17
:101E100080912403808380912503818371100AC0FF
:101E2000BE9CF001BF9CF00D1124ED51FE4F1382BA
:101E300012826AC0BE9CE001BF9CD00D1124CD511E
:101E4000DE4F8B818823F9F081508B832FEF829FA7
:101E5000C00111246C8170E00E94182BFB01FF2748
:101E6000E35CFD4F8491E82FE9192FEFE29FC00159
:101E70001124B8010E94182B80912603689FB0019D
:101E800011247A8341C00E94E52B209126032695D8
:101E9000215830E0A901440F551F322F2227240F6B
:101EA000351F232F33278217930774F582E0881597
:101EB00088F40E94E52BB6010E942C2B88830E9497
:101EC000E52B209125032695622F70E00E942C2B94
:101ED000280F2983BE9CF001BF9CF00D1124ED5109
:101EE000FE4F128280912603843120F0893C18F045
:101EF00088EC01C084E1BE9CF001BF9CF00D112470
:101F0000ED51FE4F84838383809111019701280F47
:101F1000311DC901880F991F280F391F285D3C4FBB
:101F2000BE9CF001BF9CF00D1124ED51FE4F42818B
:101F3000618180810E94B50AA39459CFDF91CF912E
:101F40001F910F91FF90EF90DF90CF90BF90AF90D7
:101F50009F908F907F900C94340BE3E2F3E08081AC
:101F60008E7F808360817181828193810E94DA0AF1
:101F7000109233022FEF80E792E021508040904092
:101F8000E1F700C000000C94340BE3E2F3E0808141
:101F90008E7F8083109233022FEF80E792E02150F2
:101FA00080409040E1F700C000000C94340B109288
:101FB00033028091300281110AC081E080933002A7
:101FC00080912303817080932F020C94C50F089594
:101FD00060912303669570E04BE050E084E191E06E
:101FE0000E94F52B892B19F481E0809333020E9423
:101FF000A72390932A0280932902089590912303A6
:1020000090FF35C09170811102C0926006C08B3282
:1020100010F0946502C0880F982B909323036623D9
:1020200051F06091230370912403809125039091D6
:1020300026030E94DA0A60912303669570E04BE064
:1020400050E084E191E00E94F52B892B19F0109269
:10205000330202C00E94E80F81E080932C0240917D
:10206000260360912503809124030C94D80C0895D5
:10207000682F90912303969581E0890F8B3208F0A9
:1020800081E00C94FE0F81E00C943810682F909141
:10209000230396958FEF890F09F48AE20C94FE0FC3
:1020A00081E00C94461061E00C94FE0FE3E2F3E053
:1020B00080818160808386950C94531080912303E6
:1020C00080FD0C94AD0F0C94561060E00C94FE0F44
:1020D0008091310281112EC00E94A821811104C07B
:1020E0000E9450220E94EC0A0E94D60A60932303A9
:1020F0007093240380932503909326036E7F61F4ED
:102100000E94EC0A0E94D60A609323037093240372
:1021100080932503909326030E94C30A10923302F2
:102120008091230380FF03C086950E94651081E0A3
:10213000809331020895E3E2F3E08081816080833F
:1021400086950C9465101092300280912F028111B7
:102150000E949B100C94E80F0F931F93CF93DF9373
:1021600080913302882309F495C080913202E09176
:102170002303E695E81BE0932B02823049F4F0E05C
:10218000E75CFD4FE491CE2FD0E00DE81BE059C095
:10219000863049F4F0E0EA5CFD4FE491CE2FD0E0C8
:1021A00001EA1BE04EC0893051F4E695F0E0ED5CA9
:1021B000FD4FE491CE2FD0E00BED1CE042C08F30FC
:1021C00051F4E695F0E0E05DFD4FE491CE2FD0E0D4
:1021D00006E11DE036C0853149F4F0E0E35DFD4FD6
:1021E000E491CE2FD0E002E91DE02BC08831D9F078
:1021F000833239F4EBE2F2E0C591D49101EB1BE0BC
:1022000020C08432A9F08532C1F48E2F63E00E9491
:10221000FE2AE92FF0E0E85DFD4FE491CE2FD0E0FB
:1022200006ED1EE00EC0C8E2D0E004E01EE009C0EA
:10223000C4EFD1E007E91EE004C0C0EDD7E001EB38
:102240001AE080912C02882361F010922C020E94E7
:10225000A72390932A028093290210922E021092B3
:102260002D020E94A723E0912902F0912A028E1BE1
:102270009F0B8F3F9F4770F4EC0FFD1FF0932A02D6
:10228000E093290289E292E0F801DF91CF911F915A
:102290000F910994DF91CF911F910F910895882399
:1022A00011F0FA0101C0FB010994CF93DF93C82F0D
:1022B000D62F0E94FB0A8C1740F00E94FB0A8D1754
:1022C00020F4DF91CF910C9443108C2FDF91CF91AC
:1022D0000C9453101F93CF93DF93FB0112811123B2
:1022E00009F4C1C0EC010E94E1208272CD3CFCE502
:1022F000DF0709F49BC008F043C0C73CECE5DE07EC
:1023000009F480C0D8F4C43C9CE5D90709F46DC039
:1023100038F4C33CDC4509F0A7C00E945E106BC0D6
:10232000C53C9CE5D90709F468C0C63CDC4509F00A
:102330009BC049E95CE06CE87CE05BC0CA3CFCE522
:10234000DF0709F469C070F4C83CECE5DE0709F466
:102350005EC0C93CDC4509F087C048EA5CE067EB39
:102360007CE047C0CB3C9CE5D90709F45AC0CC3C83
:10237000DC4509F079C04EE25BE067E17BE039C003
:10238000C23DFCE5DF0709F45EC098F4CF3C9CE554
:10239000D90709F452C008F44EC0C03DFCE5DF0780
:1023A00009F44EC0C13DDC4509F05EC06EE089E035
:1023B00057C0C53D9CE5D90709F44BC058F4C33D4F
:1023C000FCE5DF0709F442C0C43DDC4509F04CC020
:1023D00088E143C0C63D9CE5D907F1F1CE35DD4526
:1023E00009F042C06AE285E23BC040E550E163E4A7
:1023F00070E10E944F1110E037C043E450E160E506
:1024000070E1F7CF4CE85CE069E97CE0F2CF47EBA4
:102410005CE068EA7CE0EDCF45ED5CE066EC7CE0FA
:10242000E8CF46EC5CE065ED7CE0E3CF47E15BE0C4
:102430006EE27BE0DECF81E010C065E082E010C09C
:1024400068E086E00DC064E18FE00AC067E185E1E5
:1024500007C062E289E104C083E20E945310CBCF3F
:102460000E945511C8CF11E0812FDF91CF911F91AC
:10247000089586E090E00C94022C682F86E090E0AE
:102480000C94162C809152038470896280935203BD
:102490000C943D120E94A821811104C00E94502278
:1024A0000E9442120E94391280935203282F2695CF
:1024B0002695269530E02630310524F08770886215
:1024C000809352038091520380FF04C086958695C5
:1024D000869501C080E00C945B1320915203822FFB
:1024E000869586958695482F50E04530510554F4E1
:1024F0008F5F982F990F990F990F822F8770892BD3
:1025000080935203809152038160809352030E9412
:102510003D12809152038695869586950C945B13A7
:1025200080915203982F969596959695A1F0915E7D
:10253000990F990F990F8770892B80935203887F89
:1025400091E009F490E08091520390FB80F9809330
:1025500052030E943D12809152038695869586957E
:102560000C945B138091520380FD13C081608093B3
:102570005203813019F489E0809352038091520311
:102580000E943D12809152038695869586950C9403
:102590005B1308958091520380FF08C08E7F809363
:1025A00052030E943D1280E00C945B1308958091C9
:1025B000520380FD0C94CA120C94B21290915203F3
:1025C000892F8695869586958F5F8F719770863057
:1025D00038F4880F880F880F892B8093520302C02C
:1025E0009093520380915203887F91E009F490E028
:1025F0008091520390FB80F9809352030E943D1218
:10260000809152038695869586950C945B1386304F
:1026100008F085E0909152039770282F220F220F27
:10262000220F922B90935203987F21E009F420E02F
:102630009091520320FB90F9909352030C945B13FA
:102640000E940713809152030C943D129C01FB01E0
:102650008281882349F12E3BFCE53F07C9F040F415
:102660002C3BECE53E0769F02D3B3C4561F00895BD
:10267000203C9CE5390791F070F0213C3C4589F005
:10268000089585E001C080E00E94201380E0089555
:102690000E949012FBCF0E946D12F8CF0E94D712B9
:1026A000F5CF0E94DE12F2CF81E00895269A2E988F
:1026B00008952E980895CF92DF92EF92FF92CF93D4
:1026C000C82F863050F4811109C0809180008F7D21
:1026D000809380000E94591306C0C5E0809180005D
:1026E0008062809380002C2F30E0AFEFBFEF0E941C
:1026F000702B25E030E040E050E00E94402BB42FEA
:10270000A32F922F8827492F5A2F6B2F7727CA0183
:102710004C3724E1520728F469E070E00E94182B3E
:1027200029C0DB01CA018A50974DAF4FBF4F6627C2
:10273000782F892F9A2F25EF38E241E050E00E9450
:10274000402B69017A01CA01B9010E94EE2A9B015E
:10275000AC01C701B6010E94EE2ABB27A92F982F12
:10276000872F009721E0A207B10511F0BC0102C03C
:102770006FEF7FEF70938B0060938A00CF91FF9093
:10278000EF90DF90CF90089508950E94561382E253
:102790008093800089E1809381008FEF9FEF909379
:1027A0008700809386000C944A126A9A2EB12B7F80
:1027B0003EB134604FB7F894FC01CB01880F991FEC
:1027C000680F791F6E0F7F1FE617F70789F0819159
:1027D00098E03EB9000000C087FF2EB9880F0000C6
:1027E00000C000C000C02EB900C09A9591F7ECCF90
:1027F0004FBF8FE594E00197F1F700C00000089506
:102800000F931F93CF93DF93C42FD22FFC018281AC
:102810008823C9F0409336020E94A7239093350283
:102820008093340280E28C0F883008F057C0C77064
:1028300081E001C0880FCA95EAF7DF91CF911F911F
:102840000F910C94671880913602481330C0809124
:102850003402909135020E94BF23883C910538F5DF
:1028600010E21D0FCD17B9F080E28C0F883040F4D4
:10287000C77081E001C0880FCA95EAF70E946E1800
:10288000183028F581E09D2F977001C0880F9A9528
:10289000EAF70E946718802F0E945E181830F0F443
:1028A000D77081E001C0880FDA95EAF70AC080E2AC
:1028B0008C0F883098F4C77081E001C0880FCA95EA
:1028C000EAF7DF91CF911F910F910C946E18802F32
:1028D000DF91CF911F910F910C945E18DF91CF91F2
:1028E0001F910F9108950F939C01CB01243F4CE55C
:1028F000340731F188F4293DFCE53F07D9F02A3D42
:102900004CE5340779F1283D3C45A9F506E221EE76
:1029100041EE68ED7CE52BC0263FFCE53F07E1F08A
:10292000A8F0273F3C4539F507E225EE46EE67EF74
:102930007CE51DC007E225EE45EE69ED7CE517C09C
:1029400006E221EE40EE64EF7CE511C007E225EEE1
:1029500044EE65EF7CE50BC006E221EE42EE66EF49
:102960007CE505C008E221E045EE6AED7CE50E94C9
:10297000001480E008C0FC018281882319F01092C5
:10298000360201C081E00F910895CF93DF93EC01EF
:10299000FB018281882309F41FC1C230FCE5DF07F7
:1029A00008F41BC1C6319CE5D90738F09E012B5FA6
:1029B0003C452930310508F010C10E94BB2190939D
:1029C0000E0380930D03C031ECE5DE0709F4C3C0AC
:1029D00008F041C0C8308CE5D80709F49AC0F0F47B
:1029E000C430ECE5DE0709F487C068F4C2308CE53A
:1029F000D80709F477C0C330DC4509F0E3C0809103
:102A00000D03826076C0C630ECE5DE0709F46EC0C7
:102A100008F07BC080910D0388606BC0CC308CE5E2
:102A2000D80709F485C068F4CA30ECE5DE0709F47C
:102A300074C008F079C00E94F41A80910D03806878
:102A400058C0CE308CE5D80709F476C008F07FC0B6
:102A500080910D038BC0CC3FECE5DE0709F44FC03D
:102A600018F5C3318CE5D80709F47DC078F4C1317D
:102A7000ECE5DE0709F473C0C231DC4509F0A2C001
:102A80000E94F41A80910D038F7733C0C5318CE515
:102A9000D80709F472C008F486C0CB3FDC4509F0C2
:102AA00091C080910E033EC0C115FDE5DF0709F41A
:102AB0005FC058F4CE3F9CE5D90709F444C008F440
:102AC0003FC080910E0382602DC0C230FDE5DF075C
:102AD00009F475C008F45DC0C330DD4509F072C06B
:102AE00080E06EC080910D03816003C080910D0372
:102AF000806180930D0366C080910D0311C08091A9
:102B00000E03826080930E035DC080910D0380628E
:102B1000F0CF80910D038064ECCF80910D0388602D
:102B20008460E7CF8160EECF80910D038E7FE1CF8F
:102B300080910D038D7FDDCF80910D03877FD9CFED
:102B400080910E0318C080910E038D7FDBCF8091A2
:102B50000D038F7ECECF80910D038F7DCACF8091E4
:102B60000D038F7BC6CF80910D03877F8B7FC1CFF5
:102B700080910E038D7F8E7FC5CF80910D0382FBE8
:102B8000222720F991E0922790FB82F990FB83F9AC
:102B9000B0CF80910E03982F909591708E7F892BE6
:102BA00090FB81F9AFCF0E94F41A80910D0387FB4F
:102BB000222720F991E0922790FB87F99ACF81E0B4
:102BC0000E94522280910D0390910E030E94CC210D
:102BD0000E94F41A80E001C081E0DF91CF91089556
:102BE000CF93DF9386319C4541F5EB010E94E120B4
:102BF000982F8A8120911F0130912001882379F03C
:102C00009A7A81E009F480E080933702911102C042
:102C100069E201C065E3C9010E94ED220AC080910A
:102C20003702811102C069E201C065E3C9010E9457
:102C3000F8220E94332180E001C081E0DF91CF9132
:102C4000089590933D0280933C020895E0913C02E8
:102C5000F0913D02309721F00190F081E02D099430
:102C600080E00895E0913C02F0913D02309799F0A8
:102C700020912B01222359F020910D0327FF07C03B
:102C8000DC012C9111962C93119725E02C93028056
:102C9000F381E02D09940895E0913C02F0913D020A
:102CA000309739F022E0DC012C930480F581E02D8F
:102CB0000994089520913A0230913B022817390770
:102CC00071F090933B0280933A02E0913C02F091C4
:102CD0003D02309721F00680F781E02D0994089598
:102CE00020913802309139022817390771F09093FA
:102CF000390280933802E0913C02F0913D02309716
:102D000021F00084F185E02D099408950E94B323F9
:102D100060934D0270934E0280934F029093500245
:102D20006093490270934A0280934B0290934C0245
:102D3000089585B7806885BF85B7806885BF089589
:102D400081E008950C94A01608950C94A4160C9498
:102D5000A4160C94A7160C94A4160C94AB160C9401
:102D6000A4160E94991680EA91E20E9418240E94FB
:102D7000AF160C94AD160E94A5160C94A4160E94D2
:102D80009E230E9482060E944A120E9468100C94A0
:102D9000A9166F927F928F929F92AF92BF92CF921D
:102DA000DF92EF92FF920F931F93CF93DF93CDB7F4
:102DB000DEB72A970FB6F894DEBF0FBECDBF0E94D4
:102DC000B40681110E9486163FE3832E32E0932ED3
:102DD00000E010E0C02E802F0E9450065C01F4013C
:102DE000619071904F016826792661147104B1F4E5
:102DF0000F5F1F4F0530110569F78FEF89838A83B5
:102E00001B820E94A7238160782F9D838C83498138
:102E10005A816B818D810E9483173AC08091E902AB
:102E200081FD0E945906D12CEE24E394F12CC301BC
:102E30008E219F21892B29F10E94A2168823A9F0B7
:102E4000DE82CF82AE20BF2081E0AB2809F480E093
:102E500088870E94A7238160782F9A8789874E816F
:102E60005F8168858A850E948317000F111FF80112
:102E7000E15CFD4F80819181E826F926F182E082B4
:102E800007C0D394EE0CFF1CFFE0DF12D0CFB0CF11
:102E90000E94AC100E94C4130E94FC080E942616D7
:102EA00090913E028917D1F00E94261680933E022F
:102EB0002A960FB6F894DEBF0FBECDBFDF91CF913B
:102EC0001F910F91FF90EF90DF90CF90BF90AF9048
:102ED0009F908F907F906F900C94FA032A960FB674
:102EE000F894DEBF0FBECDBFDF91CF911F910F9140
:102EF000FF90EF90DF90CF90BF90AF909F908F901A
:102F00007F906F900895DF92EF92FF920F931F933F
:102F1000CF93DF93CDB7DEB72B970FB6F894DEBF14
:102F20000FBECDBFF42E052F162FE72ED82E611120
:102F30000E940121FE01319686E0DF011D928A95F3
:102F4000E9F77E2D4F2D502F612F8D2D9E810E94F0
:102F5000AD1D2B960FB6F894DEBF0FBECDBFDF912F
:102F6000CF911F910F91FF90EF90DF900895FC019A
:102F7000808191810E9481200895CF93882309F454
:102F800050C0C82F8CEF8C0F813AD0F46C2F8091F9
:102F90001F01909120010E946D22882349F06C2F1F
:102FA00080911F01909120010E94F8220E943321FC
:102FB0006C2F80911F01909120010E94ED220CC086
:102FC00080E28C0F883058F4C77081E001C0880F10
:102FD000CA95EAF70E94E420CF910C943321EBE5E7
:102FE000EC0FE33040F4F0E0E653FE4F808190E0D8
:102FF000CF910C945A16E8E5EC0FE73150F4F0E06D
:10300000EE0FFF1FE456FE4F80819181CF910C940B
:103010007016CD3E30F08C2F0E940C08CF910C948E
:10302000DE08CF910895882389F19CEF980F913A9B
:1030300040F4682F80911F01909120010E94F82296
:103040000DC090E2980F983058F4877091E001C05D
:10305000990F8A95EAF7892F0E94EA200C94332170
:103060009BE5980F933020F480E090E00C945A1682
:1030700098E5980F973120F480E090E00C9470165A
:103080008D3E20F00E9467080C94DE0808951F937F
:10309000CF93DF93182FEB010E94BD17209741F0CB
:1030A0008FE99FE00197F1F700C000002197F6CF6C
:1030B000812FDF91CF911F910C941318893319F050
:1030C00060E070E002C060E570E00C94471888236F
:1030D00021F00E94E4200C9433210895882321F0EC
:1030E0000E94EA200C9433210895CF92DF92EF9250
:1030F000FF920F931F93CF93DF937C01062FC72F6F
:10310000FC01D281158112951F700E94B92088237D
:1031100099F0DD2389F08C2F807F803421F080E2CC
:10312000800F883048F082E00E9483210E94B920FD
:1031300091E0D82ED92601C0D12CCC2EC2948FE09C
:10314000C8228C2D90E0FC01EA5AFF4F0C94622BB0
:103150008C2F807FCF70882311F0C295C07FDD2334
:1031600099F0CC2309F48DC180E2800F883010F0F3
:10317000011104C08C2F0E94E42003C08C2F0E94F8
:10318000F4200E9433217DC1802F0E941318CC238C
:1031900009F49CC180E2800F883010F0011104C056
:1031A0008C2F0E94EA2003C08C2F0E94FA200E94DC
:1031B00033218CC18C2F807FCF70803211F0C2956B
:1031C000C07F002319F00130C9F022C0DD2371F067
:1031D000112341F0113031F40E9414218C2B0E94F4
:1031E0001C2174C10E9414218C2B1DC0112319F0C5
:1031F000113009F46BC10E94292125C0DD2321F083
:10320000163008F063C10EC0153008F05FC11BC056
:10321000DD2361F0112331F0F701858180FF31C199
:103220008F7085838C2F0E94671850C1112359F02D
:10323000093309F037C1FFEF27EE83E0F15020405A
:103240008040E1F72DC18C2F0E946E183FC18C2F5A
:1032500086958695837019F0813061F037C1DD2342
:1032600021F0802F9C2F937002C080E090E00E949C
:103270005A1634C1DD2321F0802F9C2F937002C099
:1032800080E090E00E94701629C1802FDD2319F0A4
:103290000E940C0802C00E9467080E94DE081EC13E
:1032A0008C2F837009F045C0D11114C1402F429575
:1032B00046954770440F440F602F6F70862F90E043
:1032C000A0E0B0E0042E04C0880F991FAA1FBB1F06
:1032D0000A94D2F704FF10C00FE010E020E030E0C5
:1032E00004C0000F111F221F331F4A95D2F700950B
:1032F00010952095309503C000E010E09801C69528
:10330000C695C370BC01CD01602B712B822B932B12
:10331000C23049F058F4C13019F00E94FE1EDAC0E4
:103320000E94EC1ED7C00E94101FD4C00E94EA1E4B
:10333000D1C0DD2319F08C2F817001C086958823C0
:1033400009F4C8C0402F429546954770440F440F7A
:10335000602F6F70862F90E0A0E0B0E0042E04C0D4
:10336000880F991FAA1FBB1F0A94D2F704FF10C031
:103370000FE010E020E030E004C0000F111F221F1A
:10338000331F4A95D2F7009510952095309503C0CC
:1033900000E010E09801C695C695C370BC01CD0150
:1033A000602B712B822B932BC23049F058F4C13023
:1033B00019F00E94C31F8EC00E94B11F8BC00E94D3
:1033C000D51F88C00E94241F85C0CF70DD2339F02F
:1033D0008C2F0E944A1F802F0E9467187BC0802F6D
:1033E0000E946E188C2F0E946B1F74C0023F01F167
:1033F00028F4003F41F0013FA1F03FC0033FF9F046
:10340000043F39F13AC0DD2341F0153008F05EC0C9
:103410008C2F8F710E94901F59C0163008F056C033
:10342000F7CFDD2339F08C2F8F710E944A1F4EC0D9
:10343000DD23C9F38C2F8F710E946B1F47C0DD23E2
:1034400029F08C2F8F710E94351F40C00E94301FC1
:103450003DC0DD2349F0CF718C2F0E944A1F63E0ED
:103460008C2F0E94682132C081E00E94832112309B
:1034700068F182E00E94832129C0DD2331F011230D
:1034800091F2802F0E94BD1721C0112399F20933B8
:1034900049F49FEFE7EEF3E09150E040F040E1F7B0
:1034A00000C00000802F0E94131810C04C2F4F70D6
:1034B000602FC7010E9403040E945B1E0FC04C2FA7
:1034C0004F70602FC7010E94060408C088EF8C0D62
:1034D000843020F40E9426160E94FA03DD20C9F0F1
:1034E0000E94B52080FD15C0F70112820E94AF2016
:1034F0000E944A1FC7010E94AA1A0E94AF20DF91B2
:10350000CF911F910F91FF90EF90DF90CF900C948F
:103510006B1FDF91CF911F910F91FF90EF90DF9084
:10352000CF9008950F931F93CF93DF93EC016881A1
:1035300079818A810E948C208C010E94E71F0E9461
:10354000D81EB801CE010E947518DF91CF911F914E
:103550000F910895CF93DF93EC01988189812B819E
:103560003C81232B31F08F3F31F481E09F3F19F4F0
:1035700003C081E001C080E080FD19C0CE010E943F
:10358000850381110CC00E94B920882381F08A81B3
:10359000882369F082E0DF91CF910C948321CE01E2
:1035A0000E94921ACE01DF91CF910C946003DF91BB
:1035B000CF91089580E090E00E945A1680E090E05C
:1035C0000E9470160E9401210E9411210E94332145
:1035D0000E940F0A0C94DE0880911F019091200137
:1035E0000E9403230C94DA1A0E94F1200C94EC1A26
:1035F000E92FE295EF704E2F50E0FA013297EE304E
:10360000F105B0F4EA59FF4F0C94622B803F91F022
:1036100018F4883E68F40EC0843F51F40BC0883E15
:1036200048F0813F29F406C093FB882780F908956C
:1036300080E0089581E008950E9481200E94F81A98
:103640000895CF93DF9300D000D01F92CDB7DEB79F
:103650000F900F900F900F900F90DF91CF910895E2
:10366000CF93DF9300D000D000D0CDB7DEB7269641
:103670000FB6F894DEBF0FBECDBFDF91CF91089596
:103680001F93CF93DF93C091520216E080915302B3
:10369000C81799F0D0E01C9FF0011D9FF00D112478
:1036A000EC5AFD4F40815181628173818481958103
:1036B0000E94301B2196C770E9CFDF91CF911F91F7
:1036C0000895409184025091850260918602709124
:1036D000870280918802909189020C94301B0F938D
:1036E0001F93CF93DF938091890282958F7009F0A9
:1036F0005DC080918602882309F458C080915202EF
:10370000109153026091840270918502C0918702EA
:10371000D091880291E06F3F09F090E0292F06E0F8
:10372000811709F443C0209721F07F3F21F030E05A
:1037300003C031E001C0322F90E030FD34C0089F5B
:10374000F001099FF00D1124DF01AC5ABD4F119615
:103750003C911197371327C03C91361324C0129621
:103760003C91129731111FC013964D915C911497A3
:103770004C1B5D0B483C5105B0F4809189028F7061
:10378000806180938902E75AFD4F80818F7080614C
:10379000808384E892E00E94AA1ADF91CF911F9162
:1037A0000F910C94401B01968770BACFDF91CF9197
:1037B0001F910F9108959F92AF92BF92CF92DF9287
:1037C000EF92FF920F931F93CF93DF93CDB7DEB7A6
:1037D00061970FB6F894DEBF0FBECDBF8C0185E0B8
:1037E000F801DE011D9601900D928A95E1F7F8012E
:1037F00040815181E2809091840260918502209104
:103800008702309188022115310531F06F3F31F484
:1038100081E09F3F19F403C081E001C080E0F82FF0
:10382000F1709F2E80FD46C1F801A380B48084E82A
:10383000C82E82E0D82EF0908602F501E21BF30B31
:10384000FF2009F4DFC080918902E83CF10508F00F
:103850009BC0282F207F09F052C0561313C0491374
:1038600011C0FE2CE1100EC08F7080618093890220
:103870000E94611BC6010E94AA1A80918902F80168
:10388000858358C1AB2831F05F3F31F481E04F3F71
:1038900019F403C081E001C080E080FD03C081E035
:1038A0008E2502C080E090E0F82FF170FF2E80FF9F
:1038B0001CC0809152022091530236E0821709F415
:1038C00017C190E0389FF001399FF00D1124EC5A98
:1038D000FD4F6181561306C06081461303C06281AB
:1038E000E61203C001968770E9CFFE2CEE2009F4A2
:1038F00021C1809189028160809389025AC0561348
:1039000006C0491304C0E11002C0F8019FC04D87F2
:103910005E878D859E850E941C1B882379F1EE2091
:1039200069F120918902822F82958F7090E0029731
:1039300074F0809184029091850298878F83198614
:10394000BB86AA862C87CE0107960E94AA1A86E01B
:10395000F801A4E8B2E001900D928A95E1F70E9487
:103960006F1B0E94611B0DC0561729F14D875E87A2
:103970008D859E850E941C1B81112CC0C8010E9450
:10398000AA1AFF24F394D6C0282F207F69F77A2D36
:10399000B98AA88A6E2D89890E94211B84E892E049
:1039A0000E94AA1A86E0F60111928A95E9F70E9410
:1039B000611BF12CBFC04913D9CFE110D7CFF8015B
:1039C0008583C8010E94AA1A86E0F60111928A95A1
:1039D000E9F7B0C0EE2091F220918902822F829502
:1039E0008F7090E002970CF4B2CF80918402909196
:1039F00085029A8389831B82BD82AC822E83CE018D
:103A00000196A3CFE83CF10508F047C0FE2CEE205C
:103A100009F4B4CF561330C049132EC02091890247
:103A200020FD21C0822F82958F70482F50E04115D4
:103A30005105C9F0F80125834F30510541F08F5FE2
:103A4000982F9295907F822F8F70892B8583C80144
:103A50000E94AA1A86E0F801A4E8B2E001900D9253
:103A60008A95E1F742C086E0F801A4E8B2E001904F
:103A70000D928A95E1F75EC04D875E878D859E85A4
:103A80000E941C1B811163CF809189028160809309
:103A90008902C8010E94AA1A4DC07A2DB98AA88A43
:103AA0006E2D89890E94211B86E0F60111928A956C
:103AB000E9F71BC0EE2009F461CF4D875E878D8545
:103AC0009E850E941C1BF82E882309F457CF86E0A0
:103AD000F801A4E8B2E001900D928A95E1F784E83C
:103AE00092E00E94B7170E946F1B0E94611B22C0C8
:103AF0004D875E878D859E850E948120292F229586
:103B00002F70223028F49F7039F0811105C00BC04E
:103B1000243028F49F7049F4805E883020F0C8017A
:103B20000E94AA1A9F2CF92C05C0F8019581907F5C
:103B300099F7F9CF8F2D61960FB6F894DEBF0FBEBF
:103B4000CDBFDF91CF911F910F91FF90EF90DF904C
:103B5000CF90BF90AF909F9008951F93CF93DF9326
:103B6000CDB7DEB72C970FB6F894DEBF0FBECDBF32
:103B70004F83588769877A878B879C87CE01079602
:103B80000E94DB1B8823D1F09F8188852A853B8595
:103B9000232B31F08F3F31F481E09F3F19F403C0B4
:103BA00081E001C080E080FD47C04F815885698574
:103BB0007A858B859C850E94301B3EC086E0FE0185
:103BC0003796DE01119601900D928A95E1F7FF81FB
:103BD000E8856A857B856115710531F0EF3F31F429
:103BE00081E0FF3F19F403C081E001C080E080FD67
:103BF00023C02091530230E0C901019687709927B4
:103C00004091520250E084179507F1F1F983EA835D
:103C10007D836C8396E0929FD001939FB00D112419
:103C2000AC5ABD4FFE01319601900D929A95E1F785
:103C3000809353020E94401B16E0809152029091A3
:103C40005302891771F1189FC00111248C5A9D4F9E
:103C50000E94DB1B882329F1E09152021E9FF00194
:103C60001124EC5AFD4F408151816281738184811E
:103C700095810E94301B8091520290E001968770DE
:103C8000992780935202D9CF0E94F41A10925302BE
:103C900010925202E4E8F2E086E0DF011D928A957C
:103CA000E9F72C960FB6F894DEBF0FBECDBFDF91BB
:103CB000CF911F910895EF92FF920F931F93CF938F
:103CC000DF938C01892B09F46CC0F12CEE24E39472
:103CD000E8012196F8018491843740F4843008F09B
:103CE00051C0813081F0823019F15BC0853709F411
:103CF00044C0A8F19CE7980F903708F052C08F7726
:103D00000E94131841C00E5F1F4FFE01849190E284
:103D1000980F983050F48770FE2D01C0FF0F8A95E0
:103D2000EAF78F2F0E94042114C00E94BD172DC0F6
:103D30000E5F1F4FFE01849190E2980F983060F45F
:103D40008770FE2D01C0FF0F8A95EAF78F2F0E9422
:103D50000A210E94332119C00E94131816C00E5F59
:103D60001F4FFE01C491CC2381F08FE99FE00197A2
:103D7000F1F700C00000C150F6CF0E5F1F4FFE01EB
:103D8000F49003C00E94BD178E018F2D882309F483
:103D90009FCFEFE9FFE03197F1F700C000008150BD
:103DA000F5CFDF91CF911F910F91FF90EF90089584
:103DB000089508950C94D91E0C94DA1E0E94DC1EFE
:103DC0006093C0027093C1028093C2029093C302B9
:103DD0000C94DA1A0C94DE1E0F931F930091C0020C
:103DE0001091C1022091C2023091C302602B712B4D
:103DF000822B932B1F910F910C94DE1E0F931F9318
:103E00000091C0021091C1022091C2023091C30200
:103E100060237123822393231F910F910C94DE1E44
:103E20000F931F930091C0021091C1022091C20212
:103E30003091C30260277127822793271F910F912A
:103E40000C94DE1E0C94D91E0E94221F6093BC02AB
:103E50007093BD028093BE029093BF020C94DA1A55
:103E600060E070E0CB010C94241F0F931F9341E09E
:103E700050E060E070E08A019B0104C0000F111F58
:103E8000221F331F8A95D2F7C901B8011F910F91E4
:103E90000C94241F0F931F9341E050E060E070E00A
:103EA00004C0440F551F661F771F8A95D2F7809173
:103EB000BC029091BD02A091BE02B091BF028A01E6
:103EC0009B01082B192B2A2B3B2BC901B8011F91F1
:103ED0000F910C94241F0F931F9341E050E060E07A
:103EE00070E004C0440F551F661F771F8A95D2F7F4
:103EF00040955095609570958091BC029091BD025F
:103F0000A091BE02B091BF028A019B010823192330
:103F10002A233B23C901B8011F910F910C94241F40
:103F20000F931F9341E050E060E070E004C0440F45
:103F3000551F661F771F8A95D2F78091BC0290911A
:103F4000BD02A091BE02B091BF028A019B01082769
:103F500019272A273B27C901B8011F910F910C94FB
:103F6000241F0F931F930091BC021091BD0220915A
:103F7000BE023091BF02602B712B822B932B1F91BD
:103F80000F910C94241F0F931F930091BC0210916A
:103F9000BD022091BE023091BF02602371238223B3
:103FA00093231F910F910C94241F0F931F93009143
:103FB000BC021091BD022091BE023091BF02602769
:103FC0007127822793271F910F910C94241F089526
:103FD0002FE0929F800D1124E82FE695E695E69557
:103FE000877051E001C0550F8A95EAF785E0E89F98
:103FF000F0011124E657FD4F20E030E070E04081F1
:10400000CB01022E02C0969587950A94E2F7817043
:10401000819584278523842781932F5F3F4F253007
:10402000310569F708952FE0929F800D1124682FC4
:10403000669566956695982F977085E0689FB001A4
:10404000112440E050E080E0FB01E40FF51FE6574B
:10405000FD4F208130E0092E02C0369527950A9445
:10406000E2F721703327042E01C0220F0A94EAF7E9
:10407000822B4F5F5F4F4530510531F70895BF9256
:10408000CF92DF92EF92FF920F931F93CF93DF9324
:104090008C01C090BC02D090BD02E090BE02F090B6
:1040A000BF028091C0029091C102A091C202B09162
:1040B000C302C82AD92AEA2AFB2ACFE1D0E0D701D5
:1040C000C6010C2E04C0B695A795979587950A94BE
:1040D000D2F780FD04C0219790F7B12C07C0BC2E09
:1040E000B8018C2F0E9422040197A9F38B2DDF9138
:1040F000CF911F910F91FF90EF90DF90CF90BF90E5
:104100000895CF93DF93EC010E943F20BE010E94EF
:104110002204DF91CF9108951F93CF93DF93EB019A
:1041200090915102992321F0CB010E94812013C06C
:10413000882349F0CB010E943F20182F682FCE0121
:104140000E94E81F04C0CB010E941320182FBE015B
:10415000812F0E942204DF91CF911F9108958091B9
:10416000C40285958595859508958091C4028770D0
:1041700008959091C402977081E009F480E0089559
:1041800090910E0392FB222720F9281751F080FB13
:1041900092F990930E0380910D0390910E030C946D
:1041A000CC21089580910E0382FB882780F991E04D
:1041B00089270C94C02081E00C94C02080E00C94EE
:1041C000C0208091E80208959091E802892B8093A5
:1041D000E802089580959091E80289238093E8028F
:1041E00008951092E80208959091E702892B809338
:1041F000E702089580959091E70289238093E70272
:1042000008951092E70208959091E602892B809319
:10421000E602089580959091E60289238093E60254
:1042200008951092E60208958091C50208950895B8
:104230000C9417210C94182190910E0392FD08C044
:104240009091C502981721F08093C5020C941A2111
:1042500008958091C502882329F01092C50280E05C
:104260000C941A210895E0911F01F0912001809192
:10427000E8028083E0911F01F091200190818091FC
:10428000E702892B8083E0911F01F091200190814A
:104290008091E602892B80838091C502882381F07A
:1042A000E0911F01F09120019081892B8083809102
:1042B0001F01909120010E94572281110E94292103
:1042C00080911F01909120010C9432160C941721BB
:1042D00090910E0392FD10C098E0899F90011124E7
:1042E000262B2093C4020E944A1F8091C402859508
:1042F000859585950C9466210C944A1F1092C402F2
:1043000080E00C9466212091C402809582238093E2
:10431000C402982F977041F430E0482F082E000C0B
:10432000550B2417350721F490910E0392FF07C017
:104330008595859585950E946B1F0C947E21089527
:1043400080E008956FEF7FEF80E090E00C94342CD4
:1043500080E090E00E94102C21E08A3E9E4F09F000
:1043600020E0822F089582E090E00C94022C83E0FC
:1043700090E00C94022CCF9384E090E00E94022CF9
:10438000C82F82E290E00E94022C2C2F30E0A9017D
:10439000582BCA01CF910895CF93C92F682F84E07D
:1043A00090E00E94162C6C2F82E290E0CF910C944A
:1043B000162CAB01BC018FE090E00C94282CAB01D3
:1043C000BC0183E190E00C94282C60E070E0CB010C
:1043D0000C94DF2160E070E0CB010E94D9210C94A5
:1043E000E5216AEE7EEF80E090E00E94342C60E0F0
:1043F00082E090E00E94162C60E083E090E00E9452
:10440000162C1092C0021092C1021092C202109299
:10441000C30260E084E090E00E94162C60E082E23B
:1044200090E00E94162C60E085E090E00E94162C3F
:1044300060E086E090E00E94162C6FEF87E090E04D
:104440000E94162C40E050E0BA0188E090E00E9403
:10445000282C60E08DE090E00E94162C40E050E0B7
:10446000BA0188E190E00E94282C60E087E190E0AA
:104470000E94162C40E050E0BA018CE190E00E94CE
:10448000282C60E070E080E290E00E94342C40E054
:1044900050E0BA0188E190E00E94282C0C94EA21B7
:1044A0000C94F121682F8EE090E00C94162CFC0106
:1044B000329680912B01882331F080910D0387FF84
:1044C00002C09EE101C096E080E0915028F0219169
:1044D0002223D9F38F5FF9CF0895662351F12091FC
:1044E0002B012223E9F020910D0327FF19C0462F4D
:1044F0004695469546954E31E0F4677021E030E0F0
:1045000002C0220F331F6A95E2F7FC01E40FF11D90
:10451000828190E02823392381E0232B69F409C0AC
:10452000FC01329608962191621729F0E817F907E5
:10453000D1F780E0089581E008959C01FC01329656
:104540009FEF80E04191461789F09F3F19F4411198
:1045500001C0982F8F5F8630A9F79F3F39F0F9018E
:10456000E90FF11D97FDFA956283089508959C0166
:104570002A5F3F4FFC014281461301C0128201961F
:1045800082179307B9F70895262F26952695269525
:104590002E3168F4FC01E20FF11D677021E030E07C
:1045A00001C0220F6A95EAF78281282B22830895A1
:1045B000262F2695269526952E3170F4FC01E20FC4
:1045C000F11D677021E030E001C0220F6A95EAF723
:1045D0002095828128232283089520912B01222374
:1045E00029F020910D0327FD0C94C4220C949D22E8
:1045F00020912B01222329F020910D0327FD0C94FB
:10460000D8220C94B72220912B01FC013296222350
:1046100031F080910D0387FF02C08EE101C086E07A
:10462000DF011D928A95E9F7089508950C941523EA
:104630000C941523CF930E9418230E94B4060E9465
:104640001623C0E08C2F0E945006892B29F4CF5FDF
:10465000C530C1F780E001C081E0CF9108950C948E
:1046600015230C942F2380915B03843009F42EC012
:104670000E94312380E00E945B1380E00E94FA03D5
:104680000E94D70F1092EA0220E488E190E00FB672
:10469000F894A895809360000FBE2093600083B7C4
:1046A000817F846083BF83B7816083BF789488955E
:1046B00083B78E7F83BF0FB6F894A8958091600072
:1046C000886180936000109260000FBE08950C9482
:1046D00015230E94F41A0E944A120E9426160E9474
:1046E000FA030E94A3100C9467231F920F920FB637
:1046F0000F9211248F939F93AF93BF938091EA02FF
:10470000811113C08091530390915403A0915503DC
:10471000B09156034196A11DB11D80935303909310
:104720005403A0935503B0935603BF91AF919F914B
:104730008F910F900FBE0F901F90189582E084BD4F
:1047400093E095BD9AEF97BD80936E0008952FB7C3
:10475000F8948091530390915403A0915503B09124
:1047600056032FBF08952FB7F894609153037091AB
:10477000540380915503909156032FBF08959C01D7
:104780004FB7F8948091530390915403A09155032F
:10479000B09156034FBF821B930B089578941F92DC
:1047A0000F920FB60F9211248F939F93AF93BF93E5
:1047B0008091530390915403A0915503B0915603F7
:1047C0000196A11DB11D8093530390935403A093B0
:1047D0005503B0935603BF91AF919F918F910F9066
:1047E0000FBE0F901F90189581E08093E00080E24B
:1047F0008093D8001092C9008FE19EE40197F1F7F1
:1048000000C0000087E090EBDC018093640390938C
:104810006503A0936603B09367039CE088E10FB63D
:10482000F894A895809360000FBE90936000FFCF2E
:104830009093CF018093CE01089580910B0308954A
:10484000CF93DF9300D01F92CDB7DEB790915B037B
:10485000943019F589837B836A8382E08093E90031
:104860008FEF9091E800815095FD06C095ED9A95E7
:10487000F1F700008111F5CF8091E80085FF0DC0B0
:1048800040E050E063E070E0CE0101960E945026C7
:104890008091E8008E778093E8000F900F900F9042
:1048A000DF91CF910895BC0184E00C942024BC01D9
:1048B00083E00C94202422E02093E9002FEF309134
:1048C000E800215035FD06C035ED3A95F1F70000BE
:1048D0002111F5CF2091E80025FF0BC040E050E00A
:1048E00066E070E00E9450268091E8008E77809309
:1048F000E8000895CF93DF9320912B01222339F014
:1049000020910D0327FF03C060E222E002C068E0AF
:1049100021E02093E9002FEF3091E800215035FD90
:1049200006C035ED3A95F1F700002111F5CF209141
:10493000E80025FF1DC0EC0180912B01811105C00D
:1049400040E050E068E070E003C070E040E050E01C
:10495000CE010E9450268091E8008E778093E80077
:1049600080E2FE01ABEEB2E001900D928A95E1F794
:10497000DF91CF91089580915A03811109C00E945F
:10498000E1270E943E288091E20084608093E2004B
:10499000089510925A03089508950895089542E0E5
:1049A00061EC81E00E945A2742E261EC82E00C94C3
:1049B0005A2780915D03833009F460C030F4813060
:1049C00071F0823009F499C008958A3009F485C0E5
:1049D0008B3009F46BC0893009F0A7C020C08091EA
:1049E0005C03813A09F0A1C08091E800877F809341
:1049F000E8008091600390916103892B21F460E2CB
:104A00008BEE92E003C060E080E090E070E00E94F6
:104A10009B268091E8008B778093E8000895809131
:104A20005C03813209F081C0809160039091610341
:104A3000029708F07AC08091E800877F8093E800B1
:104A40008091E80082FD05C080915B038111F8CF61
:104A50006CC02091F3008091F20090E0922B0297BD
:104A600029F48091F1008B7F813021F48091F10055
:104A700080930B038091E8008B7753C080915C0397
:104A8000813A09F052C08091600390916103892BB3
:104A900009F04BC08091E800877F8093E800809107
:104AA000E80080FFFCCF80912B0136C080915C0331
:104AB0008132D9F58091600390916103892BA9F52A
:104AC0008091E800877F8093E8000E948F27809183
:104AD0005E0380932B010C94F41A80915C03813265
:104AE00021F58091E800877F8093E8000E948F275E
:104AF00080915F0380930C03089580915C03813A59
:104B0000A1F48091E800877F8093E8008091E8001D
:104B100080FFFCCF80910C038093F1008091E8002E
:104B20008E778093E8000C948F27089584B7877F51
:104B300084BF0FB6F894A895809160008861809337
:104B40006000109260000FBE90E080E80FB6F8940D
:104B500080936100909361000FBE0E94B1160E9485
:104B6000E1270E943E288091E20084608093E20069
:104B700078940E94D32A0E94BF1681E291E00E949D
:104B8000211680915B038530A9F480915B03853009
:104B900079F40E943323809159038823B1F30E9452
:104BA0001A23882391F30E943A260E94F41AEDCF2B
:104BB0000E9469230E94C9160E94BB16E2CF0C9482
:104BC000E125292F332723303105C9F060F4213046
:104BD000310581F02230310509F044C08BE390E0CB
:104BE00020E634E043C021323105E1F022323105C4
:104BF00049F138C082E190E02BE934E037C09927D1
:104C00008130910549F028F0029761F5E2E4F4E083
:104C100005C0ECE5F4E002C0E0E5F4E0849190E04A
:104C20009F0124C06115710541F061307105D1F417
:104C300089E090E02BE834E019C089E090E022E7B9
:104C400034E014C06115710541F06130710551F413
:104C500086EB90E02DEA34E009C080E490E023E6A2
:104C600035E004C080E090E020E030E0FA013183DC
:104C70002083089580E189BD82E189BD09B400FEE9
:104C8000FDCF8091D8008F7D8093D8008091E00087
:104C900082608093E0008091E00081FDFCCF089568
:104CA000CF92DF92EF92FF920F931F93CF93DF93F8
:104CB000EC018B017A010E94AE27811133C0E1140F
:104CC000F10439F0F70180819181081B190BC80F9D
:104CD000D91FC12CD12C0115110519F18091E800C3
:104CE00085FD16C08091E8008E778093E800E1147E
:104CF000F10449F0F70180819181C80ED91ED1825B
:104D0000C08285E00FC00E94AE27882321F30AC02D
:104D100089918093F10001501109FFEFCF1ADF0A4A
:104D2000DACF80E0DF91CF911F910F91FF90EF904C
:104D3000DF90CF900895209162033091630326178E
:104D4000370748F06115710539F42091E8002E7796
:104D50002093E80001C0B901FC0120E06115710554
:104D600079F180915B038823F1F18530F1F1809135
:104D7000E80083FD3CC08091E80082FD2EC0809158
:104D8000E80080FFEBCF2091F3008091F20090E0EB
:104D9000922B6115710551F08830910538F42191FD
:104DA0002093F100615071090196F3CF21E008973B
:104DB00009F020E08091E8008E778093E800CECF64
:104DC0002111CFCF0AC080915B03882361F0853029
:104DD00061F08091E80083FD0AC08091E80082FFC5
:104DE000F2CF80E0089582E0089583E0089581E0A5
:104DF000089520916203309163032617370748F026
:104E00006115710539F42091E8002E772093E800B0
:104E100001C0B901FC0120E06115710591F180919B
:104E20005B03882309F440C0853009F43FC08091BA
:104E3000E80083FD3DC08091E80082FD2FC0809195
:104E4000E80080FFE9CF2091F3008091F20090E02C
:104E5000922B6115710559F08830910540F4249129
:104E60002093F1003196615071090196F2CF21E053
:104E7000089709F020E08091E8008E778093E800A1
:104E8000CBCF2111CCCF0AC080915B03882361F086
:104E9000853061F08091E80083FD0AC08091E800D0
:104EA00082FFF2CF80E0089582E0089583E00895C4
:104EB00081E00895982F973068F59093E90098174E
:104EC00039F07091EC002091ED005091F00003C09A
:104ED000242F762F50E021FD02C09F5FECCF309150
:104EE000EB003E7F3093EB003091ED003D7F30933F
:104EF000ED003091EB0031603093EB007093EC00EB
:104F00002093ED005093F0002091EE0027FDE5CFB7
:104F100080E008958F708093E90081E0089580918A
:104F20005C0387FF11C08091E80082FD05C080917D
:104F30005B038111F8CF11C08091E8008B770BC023
:104F400080915B03882349F08091E80080FFF8CFCF
:104F50008091E8008E778093E80008952091E40026
:104F60003091E50095E64091EC00842F817040FF80
:104F700023C08091E80080FD1DC080915B038823E1
:104F800099F0853099F08091EB0085FD11C040913A
:104F9000E4005091E5002417350729F3915011F0F2
:104FA0009A01E1CF84E0089582E0089583E00895B6
:104FB00081E0089580E008954091E80042FFDDCF50
:104FC00008950E944F280E945728E0EEF0E080816B
:104FD00081608083E8EDF0E080818F77808319BC69
:104FE000A7EDB0E08C918E7F8C9380818F7E808343
:104FF00010925A0308950F931F93CF93DF930E944B
:105000004F280E945728C8EDD0E088818F77888389
:1050100088818068888388818F7D888319BC1092FD
:105020005B0310925703109259031092580300EE3D
:1050300010E0F80180818B7F808388818160888384
:1050400042E060E080E00E945A27E1EEF0E08081DB
:105050008E7F8083E2EEF0E08081816080838081BA
:1050600088608083F80180818E7F80838881806161
:105070008883DF91CF911F910F910895E8EDF0E0C3
:1050800080818F7E8083E7EDF0E080818160808386
:1050900084E082BF81E080935A030C94FB27E8ED03
:1050A000F0E080818E7F80831092E200089510925C
:1050B000DA001092E10008951F920F920FB60F923E
:1050C00011242F933F934F935F936F937F938F930D
:1050D0009F93AF93BF93EF93FF938091E10082FF83
:1050E0000BC08091E20082FF07C08091E1008B7FBE
:1050F0008093E1000E94D22A8091DA0080FF1FC0D5
:105100008091D80080FF1BC08091DA008E7F809351
:10511000DA008091D90080FF0DC080E189BD82E175
:1051200089BD09B400FEFDCF81E080935B030E943E
:10513000BB2405C019BC10925B030E94C924809156
:10514000E10080FF19C08091E20080FF15C08091CE
:10515000E2008E7F8093E2008091E2008061809384
:10516000E2008091D80080628093D80019BC85E06D
:1051700080935B030E94CD248091E10084FF30C0C6
:105180008091E20084FF2CC080E189BD82E189BD6D
:1051900009B400FEFDCF8091D8008F7D8093D800A8
:1051A0008091E1008F7E8093E1008091E2008F7E0C
:1051B0008093E2008091E20081608093E200809120
:1051C0005703882311F084E007C08091E30087FD36
:1051D00002C081E001C083E080935B030E94CE2483
:1051E0008091E10083FF29C08091E20083FF25C008
:1051F0008091E100877F8093E10082E080935B03F0
:10520000109257038091E1008E7F8093E10080919E
:10521000E2008E7F8093E2008091E20080618093C3
:10522000E20042E060E080E00E945A278091F000B6
:1052300088608093F0000E94CC24FF91EF91BF9191
:10524000AF919F918F917F916F915F914F913F911E
:105250002F910F900FBE0F901F9018951F920F92D5
:105260000FB60F9211242F933F934F935F936F9339
:105270007F938F939F93AF93BF93CF93DF93EF93DE
:10528000FF93C091E900CF708091EC00D82FD170CE
:1052900080FDD0E81092E9008091F000877F809334
:1052A000F00078940E9472291092E9008091F00039
:1052B00088608093F000CD2BCF70C093E900FF9100
:1052C000EF91DF91CF91BF91AF919F918F917F919E
:1052D0006F915F914F913F912F910F900FBE0F9063
:1052E0001F9018951F93CF93DF93CDB7DEB7AA9782
:1052F0000FB6F894DEBF0FBECDBFECE5F3E08091B2
:10530000F100819323E0E436F207C9F70E94D92423
:105310008091E80083FF2EC180915C0390915D0332
:10532000492F50E04A30510508F024C1FA01EC58E9
:10533000FF4F0C94622B803821F0823809F01AC19B
:1053400008C08091580390915903992389F0826095
:105350000FC0809160038F70873008F00BC180937D
:10536000E9008091EB0085FB882780F91092E90025
:105370009091E800977F9093E8008093F10010925D
:10538000F100D1C0282F2D7F09F0F4C0882319F037
:10539000823061F0EFC080915E03813009F0EAC095
:1053A000933009F080E0809359032EC080915E0312
:1053B00081112AC0809160038F702FEF280F263053
:1053C00008F0D8C08093E9002091EB0020FF1CC0BA
:1053D000933021F48091EB00806214C09091EB0037
:1053E00090619093EB0021E030E0A90102C0440FEE
:1053F000551F8A95E2F74093EA001092EA008091E7
:10540000EB0088608093EB001092E9008091E80047
:10541000877F8093E8000E948F27ACC08111AAC0CB
:1054200010915E031F778091E3008078812B809339
:10543000E3008091E800877F8093E8000E948F2737
:105440008091E80080FFFCCF8091E300806880932A
:10545000E300111102C082E001C083E080935B038E
:1054600089C08058823008F085C080915E03909199
:105470005F038C3D53E0950779F583E08A838AE2E8
:1054800089834FB7F894DE01139620E03EE051E2A5
:10549000E32FF0E050935700E49120FF03C0E29522
:1054A000EF703F5FEF708E2F90E0EA3010F0C796FC
:1054B00001C0C0968D939D932F5F243149F74FBF54
:1054C0008091E800877F8093E8006AE270E0CE0177
:1054D00001960E949B2616C0609160037091610343
:1054E000AE014F5F5F4F0E94DF25BC01892B09F49D
:1054F00041C09091E800977F9093E80089819A815C
:105500000E94F9268091E8008B778093E80032C0F2
:10551000803881F58091E800877F8093E800809152
:1055200057038093F1008091E8008E7772CF81114C
:1055300021C080915E0390915F0399270297D4F474
:105540008091E800877F8093E80080915E038093DC
:1055500057030E948F2780915703811106C08091C5
:10556000E30087FD02C081E001C084E080935B031B
:105570000E94CF248091E80083FF0AC08091E80058
:10558000877F8093E8008091EB0080628093EB003E
:10559000AA960FB6F894DEBF0FBECDBFDF91CF91B4
:1055A0001F9108950895CF9380915B038823A1F004
:1055B000C091E900CF709091EC00892F817090FD2F
:1055C00080E8C82B1092E9008091E80083FD0E94DA
:1055D0007229CF70C093E900CF910895DB018F93BA
:1055E0009F930E94862BBF91AF91A29F800D911D2A
:1055F000A39F900DB29F900D11240895991B79E0FF
:1056000004C0991F961708F0961B881F7A95C9F752
:105610008095089587FB082E062687FD819567FDF6
:1056200061950E94FE2A0EF4919507FC81950895DC
:10563000AA1BBB1B51E107C0AA1FBB1FA617B707B8
:1056400010F0A61BB70B881F991F5A95A9F78095D4
:105650009095BC01CD01089597FB072E16F4009498
:1056600007D077FD09D00E94182B07FC05D03EF427
:10567000909581959F4F0895709561957F4F0895FE
:10568000A1E21A2EAA1BBB1BFD010DC0AA1FBB1F46
:10569000EE1FFF1FA217B307E407F50720F0A21BB8
:1056A000B30BE40BF50B661F771F881F991F1A9425
:1056B00069F760957095809590959B01AC01BD014F
:1056C000CF010895EE0FFF1F0590F491E02D09948E
:1056D0000E94702B332312F48A1B9B0B0C94812B9A
:1056E000A29FB001B39FC001A39F700D811D112423
:1056F000911DB29F700D811D1124911D08950E946E
:10570000702BB7FF0895821B930B08950E94702B96
:10571000A59F900DB49F900DA49F800D911D112405
:105720000895B7FF0C94862B0E94862B821B930B47
:1057300008958F929F92AF92BF92CF92DF92EF9295
:10574000FF92CF93DF93EC01688179818A819B81FD
:10575000611571058105910521F464E279ED8BE510
:1057600097E02DE133EF41E050E00E944A2C4901DF
:105770005A019B01AC01A7EAB1E40E94862B6B01A0
:105780007C01ACEEB4EFA50194010E94942BDC01E6
:10579000CB018C0D9D1DAE1DBF1DB7FF03C0019732
:1057A000A109B04888839983AA83BB839F77DF913F
:1057B000CF91FF90EF90DF90CF90BF90AF909F90F0
:1057C0008F9008950E94992B089580E091E00E94A7
:1057D000992B0895A0E0B0E080930001909301011F
:1057E000A0930201B09303010895FC014150504081
:1057F00030F001900616D1F73197CF010895882730
:1058000099270895F999FECF92BD81BDF89A9927FD
:1058100080B50895A6E1B0E044E050E00C943C2C43
:10582000A8E1B0E042E050E00C943C2C262FF9991E
:10583000FECF92BD81BDF89A019700B4021639F0EF
:105840001FBA20BD0FB6F894FA9AF99A0FBE0895C0
:105850000396272F0E94172C0E94162C252F0E949A
:10586000172C242F0C94172C0196272F0E94172CED
:105870000C94162CDC01CB01FC01F999FECF06C07B
:10588000F2BDE1BDF89A319600B40D9241505040FE
:10589000B8F70895052E97FB1EF400940E94612C22
:1058A00057FD07D00E94402B07FC03D04EF40C9408
:1058B000612C50954095309521953F4F4F4F5F4F4C
:1058C000089590958095709561957F4F8F4F9F4F6C
:0658D0000895F894FFCFDB
:1058D600010000002808641E140A321E010102009D
:1058E6000E000E0E01191A1B1C1D1E1F202122C69A
:1058F600021D247A245B245724532401E200E90084
:10590600EA00B500B600B700CD008301CC008A01DD
:105916009201940121022302240225022602270273
:105926002A02B300B4006F007000818283909192C6
:10593600939594969734F7F6F5F4F1F030313233C7
:1059460037000102020202060606090909090909C9
:105956000F0F0F0F0F0F15151518191919191919FA
:10596600191919192324252525252525E200E900DD
:10597600EA00B500B600B700CD008301CC008A016D
:105986009201940121022302240225022602270203
:0E5996002A02B300B4006F007000818283000B
:00000001FF
