:100000000C9442030C947A030C947A030C947A03B4
:100010000C947A030C947A030C947A030C947A036C
:100020000C947A030C947A030C94E4270C94B8286B
:100030000C94F1220C947A030C947A030C947A03B6
:100040000C947A030C947A030C947A030C947A033C
:100050000C947A030C9478230C947A030C947A030E
:100060000C947A030C947A030C947A030C947A031C
:100070000C947A030C947A030C947A030C947A030C
:100080000C947A030C947A030C947A030C947A03FC
:100090000C947A030C947A030C947A030C947A03EC
:1000A0000C947A030C947A030C947A0335001E00A6
:1000B0001F0020002100220023002400250026002C
:1000C00027002D002E00290046082B0014001A00DE
:1000D0000800150017001C0018000C001200130087
:1000E0002F00300031002352394104001600070070
:1000F00009000A000B000D000E000F003300340051
:10010000000028001370E10000001D001B00060025
:100110001900050011001000360037003800E50016
:1001200052000000E0000000E200000000000000BB
:100130002C000000E3002A006542500051004F00EF
:10014000207801003A003B003C003D003E003F00AB
:10015000400041004200430044004500010001000E
:1001600001000100010001000100010001004A003E
:100170004E004B004D000100010001000100010094
:10018000010049004C000100010001005000510035
:1001900052004F00010000000100010001000000BA
:1001A0000100010001000100010001000100010047
:1001B0000100010001000100000001000000010039
:1001C000000000000000010000000100010001002B
:1001D00001000100010001000100AA00A900AC001B
:1001E000AB0001000100010001000100010001005D
:1001F00001000100010001000100010001000100F7
:1002000001000100010001000100010001000100E6
:1002100001000100010001000100010001000100D6
:1002200001000100010001000100010000000100C7
:1002300001000100000001000100010001000100B7
:1002400001000100010001000100010001000000A7
:10025000010000000100000000000000AE000000EE
:100260000100010001000100010001000100000087
:10027000000000000000000000000000000000007E
:10028000000000000000000000000100000000006D
:100290000000007C2078000000000000000000004A
:1002A0000000000000000000010000002178237819
:1002B0002578277829782B782C782D782E782F7828
:1002C000307800000000010000000000227824784F
:1002D000267828782A783178327833780000000040
:1002E000000027780000000000000000000000006F
:1002F00000000000000000000000000024782878C2
:10030000237801001E0F0500047F3F1F6432146430
:100310003214783C1E1E140A052223252628292A79
:100320002C2D2F3032333536383A3B3D3E40424358
:100330004547494A4C4E5051535557595A5C5E6097
:1003400062646668696B6D6F71737577797B7D7FA9
:1003500081838587898A8C8E90929496989A9C9EA8
:100360009FA1A3A5A7A8AAACAEAFB1B3B4B6B8B9C4
:10037000BBBCBEBFC1C2C3C5C6C7C9CACBCCCDCE2C
:10038000D0D1D2D2D3D4D5D6D7D7D8D9D9DADADB0F
:10039000DBDBDCDCDCDCDCDDDDDDDDDCDCDCDCDC9B
:1003A000DBDBDBDADAD9D9D8D7D7D6D5D4D3D2D2DA
:1003B000D1D0CECDCCCBCAC9C7C6C5C3C2C1BFBEC2
:1003C000BCBBB9B8B6B4B3B1AFAEACAAA8A7A5A32D
:1003D000A19F9E9C9A98969492908E8C8A898785EC
:1003E00083817F7D7B79777573716F6D6B696866CB
:1003F0006462605E5C5A5957555351504E4C4A499D
:1004000047454342403E3D3B3A3836353332302F44
:100410002D2C2A292826252322FFAA7F55400001BA
:1004200001010101010101010202020202020202B4
:100430000203030303030303030404040404040486
:10044000050505050506060606060707070707084A
:10045000080808090909090A0A0A0B0B0B0C0C0CFD
:100460000D0D0D0E0E0E0F0F0F1010111111121297
:1004700013131414151516161717181819191A1A14
:100480001B1B1C1D1D1E1E1F202021222223242475
:10049000252626272829292A2B2C2D2D2E2F3031B1
:1004A0003232333435363738393A3B3C3D3E3F40C3
:1004B0004142434445464748494A4C4D4E4F5051AE
:1004C0005354555658595A5B5D5E5F616264656668
:1004D00068696B6C6D6F7072737577787A7B7D7EEF
:1004E0008082838587888A8C8E8F91939596989A3F
:1004F0009C9EA0A2A3A5A7A9ABADAFB1B3B5B7BA57
:10050000BCBEC0C2C4C6C9CBCDCFD1D4D6D8DBDD2A
:10051000DFE2E4E7E9EBEEF0F3F5F8FAFDFF0C03B8
:10052000570049004E004700530000000A035900DD
:100530004D0044004B0000000403090409023B0085
:10054000020100A0FA0904000001030101000921D1
:10055000110100012244000705810308000109047C
:100560000100010300000009211101000122B60071
:100570000705820320000112010002000000084D5F
:1005800059752901000102000105010902A1018537
:10059000020901A100050919012908150025019585
:1005A00008750181020501093009311581257F9502
:1005B000027508810609381581257F950175088126
:1005C00006050C0A38021581257F950175088106FC
:1005D000C0C005010980A101850319012AB70015D2
:1005E0000126B700950175108100C0050C0901A115
:1005F00001850419012AA002150126A002950175A2
:10060000108100C005010906A1018506050719E052
:1006100029E71500250195087501810205071900D4
:1006200029EF1500250195F07501810205081901D2
:100630002905950575019102950175039101C00584
:10064000010906A101050719E029E7150025019513
:1006500008750181029501750881010507190029B6
:10066000FF150026FF009506750881000508190191
:100670002905150025019505750191029501750360
:100680009101C00011241FBECFEFDAE0DEBFCDBF65
:1006900004B603FE18C08091970390919803A0912F
:1006A0009903B0919A038730904BA740B04B59F40F
:1006B00010929703109298031092990310929A0344
:1006C000E0E0F8E3099511E0A0E0B1E0E6E8F9E543
:1006D00002C005900D92AC3DB107D9F723E0ACED17
:1006E000B1E001C01D92A739B207E1F70E940E13D5
:1006F0000C946D2C0C9400008430B8F46530A8F490
:100700004F3098F450E09FE0699F400D511D112437
:10071000FA019BE4899FE00DF11D1124EE0FFF1FEC
:10072000E455FF4F85919491089581E090E00895FC
:100730000E947C03089581E008950E949B03089520
:1007400081E008950E949B0308950E94A2030895EA
:1007500008950E94A8030895A6E0B0E0E2EBF3E05C
:100760000C94192B49835A839E833091E30189812C
:100770009A8131111AC03E81332399F0222389F0E6
:100780000E945809182F682F89819A810E94340984
:1007900069817A81812F0E9449102696E3E00C94AA
:1007A000352B0E944609182FF3CF0E945809698102
:1007B0007A81F1CFFC01262F4081518162817381C2
:1007C000848195810E94AC030895CF93DF93EC015F
:1007D00061E00E94DA03BE010E949D03DF91CF9188
:1007E0000895CF93DF93EC0160E00E94DA03BE012D
:1007F0000E94A903DF91CF91089508950E940908EE
:100800000E94FD032FEF84E39CE021508040904044
:10081000E1F700C0000008950E94FE030E949C239F
:1008200008950E94FE030E94C02308950F931F9312
:10083000CF93DF938C0161E00E94DA03EC01B801F1
:100840000E94A503811106C080E0DF91CF911F9126
:100850000F910895B801CE010E947B1E8823A1F359
:10086000B801CE010E94F420882371F3B801CE01B3
:100870000E948A1F882341F3B801CE010E9466209E
:10088000882311F3B801CE010E94211D8823E1F2D3
:10089000F8018581882361F0C330FCE7DF07E9F0C8
:1008A00058F4C115ECE7DE07A9F0C130DC47B9F018
:1008B000C8010E94A003C9CFCB358CE7D807A9F0A7
:1008C000CC35ECE7DE0771F0CA35DC4789F70E94CA
:1008D0008E0DEECF0E940C04B7CF0E94960D0E94A1
:1008E0001104B2CF0E94840DE3CF0E94920DE0CF9D
:1008F0000E94CD2280E00E945A1E0E94AF040E94F6
:100900006F1B08950E94A71D0E94B3040E945E1CE5
:100910000E94D2220895089581E0089581FD02C0C9
:10092000479A089547980895CF93DF93D82F0E9450
:100930008C04C82F882319F08D2F0E948E048C2FD1
:10094000DF91CF9108953F9A479A0895CF93C82F8A
:100950000E948B048C2F0E949404CF91089580E014
:100960000E94A60408950E943D210E94A6040895B5
:10097000CF930E943D21C82F8091DE018C1779F022
:10098000C093DE010E945D236093DF017093E0015C
:100990008093E1019093E2018C2F0E94A604CF91F5
:1009A0000895ADE0B0E0E7EDF4E00C941A2B488731
:1009B00059876A877B878C879D8791110E94BC0C21
:1009C0001F8286E0FE013896DE01119601900D929D
:1009D0008A95E1F78D8181110DC029813A814B8182
:1009E0005C816D817E818F810E94EF0B2D96E2E00C
:1009F0000C94362BCE0101960E94E5038111EDCFB8
:100A0000F5CFFC012481213021F4808191810E9465
:100A10008A090895662329F00E94A5130E9478147C
:100A200008950E94FF13FACFCF93C82F8823B9F0FF
:100A30008CEF8C0F813AA8F46C2F80910401909177
:100A400005010E94D021882329F08C2F0E947C0C64
:100A50000E94F50C8C2F0E94740C0E94F50CCF9113
:100A6000089580E28C0F883048F4C77081E001C09F
:100A7000880FCA95EAF70E949F0CEFCFEBE5EC0FC9
:100A8000E33040F4F0E0E05AFE4F808190E00E94B5
:100A90007221E5CFE8E5EC0FEB3150F4F0E0EE0F1A
:100AA000FF1FE65DFE4F808191810E949721D7CF85
:100AB00083E38C0F833198F661E08C2F0E940A0546
:100AC000CECF882381F19CEF980F913A28F40E94B1
:100AD0007C0C0E94F50C089590E2980F983050F429
:100AE000877091E001C0990F8A95EAF7892F0E94DB
:100AF000A50CEFCF9BE5980F933028F490E080E0B1
:100B00000E947221089598E5980F9B3128F490E097
:100B100080E00E949721089593E3980F933118F491
:100B200060E00E940A0508951F93CF93DF93182F6A
:100B3000EB010E941405209739F4812F0E94610572
:100B4000DF91CF911F9108958FE99FE00197F1F711
:100B500000C000002197EFCF70E060E0893311F40E
:100B600060E570E00E9494050895882321F00E94BA
:100B70009F0C0E94F50C0895882321F00E94A50C7B
:100B80000E94F50C0895B0E0A0E0E9ECF5E00C94CB
:100B9000132B6C01D62FC72FFC01158106810295FE
:100BA0000F700E94950CE82E8823E9F0E12E1123A6
:100BB000D1F08C2F807F803451F080E28D0F88300F
:100BC000F8F0011104C08C2F807E8032C9F0809132
:100BD0003E0382FF15C082E00E94580D0E94950CD2
:100BE00091E0E82EE926BC2EB2949FE0B922FBE00A
:100BF000FB15B8F1EB2DF0E0E159F34D0C94D32A3D
:100C0000E12CF1CF0C2F0F70C07F11F00295007F07
:100C1000112399F0002359F080E28D0F883010F0F5
:100C2000D11107C0802F0E949F0C0E94F50C8D2FC0
:100C30005AC0802F0E94AF0CF8CF8D2F0E94610503
:100C4000002379F080E28D0F883010F0D11104C0BC
:100C5000802F0E94A50C03C0802F0E94B50C0E941B
:100C6000F50CEB2DE850FF0B349720F40E943D214A
:100C70000E94A604EE2089F00E94910C80FD0DC018
:100C8000F60115820E948B0C0E949208C6010E94F8
:100C9000D0070E948B0C0E94A208CDB7DEB7E9E016
:100CA0000C942F2B2C2F2F70F22EC07FC03219F0F6
:100CB000F29480EFF822DD2341F0D130D1F11123FD
:100CC00009F444C00023F1F0B2CF80913E0382FDCD
:100CD00015C0112359F0FF2029F08F2D0E949F0C81
:100CE0000E94F50C80E00E941405BBCF80E00E94BA
:100CF0006105FF2009F4B5CF8F2DABCF112369F02B
:100D0000011104C08F2D0E94B505ABCF013009F051
:100D1000A8CF8F2D0E94D30CA4CF0111A2CF8F2D6D
:100D20000E94BC058F2D0E94DF0C8F2D0E94C30CEA
:100D300098CF112321F0063008F093CFE3CF053090
:100D400008F08FCF8F2D0E94BC058BCF0023D1F3ED
:100D5000D93349F43FEF87EE93E031508040904023
:100D6000E1F700C000008D2F0E9461057ACF8C2F23
:100D700086958695837069F0813009F072CF8D2F4A
:100D80009C2F9370111102C080E090E00E94972187
:100D900068CF8D2F9C2F9370111102C080E090E0DE
:100DA0000E9472215ECF612F8D2F0E940A0559CFBC
:100DB0008C2F8370A1F5111154CF4D2F429546957C
:100DC0004770440F440F2D2F2F7030E0042E02C0C7
:100DD000220F331F0A94E2F790E080E0D4FF09C0AD
:100DE0008FE090E002C0880F991F4A95E2F7809546
:100DF0009095C695C695C370822B932BC23049F04F
:100E000058F4C13019F00E9462082BCF0E94590893
:100E100028CF0E946B0825CF0E94560822CF8695C6
:100E2000112311F08C2F8170882309F41ACF4D2FD4
:100E3000429546954770440F440F2D2F2F7030E098
:100E4000042E02C0220F331F0A94E2F790E080E0E4
:100E5000D4FF09C08FE090E002C0880F991F4A9527
:100E6000E2F780959095C695C695C370822B932B1B
:100E7000C23049F058F4C13019F00E94CD08F1CECB
:100E80000E94C408EECE0E94D608EBCE0E947A08DB
:100E9000E8CECF70112329F08C2F0E9492088D2F5D
:100EA00032CF8D2F0E94BC058C2F0E94A208D9CE74
:100EB000D23F41F160F4D03FB9F0D13F81F011232E
:100EC00009F446C00111B3CE8C2F8F711FC0D33FE0
:100ED00001F1D43FA1F780913E0382FD24C08C2F05
:100EE0008F71112311F312C0112341F0053008F066
:100EF000B8CE8C2F8F710E94B408B3CE063008F0A4
:100F0000B0CEF7CF8C2F8F711111CFCF0E949208E6
:100F1000A8CE112329F08C2F8F710E948608A1CEB4
:100F20000E9481089ECE112349F0CF718C2F0E9420
:100F3000920863E08C2F0E943A0D93CE81E00E94CC
:100F4000580D023008F48DCE82E00E94580D89CEF3
:100F5000002359F0D93309F006CFEFEFF7EE23E085
:100F6000E150F0402040E1F7FCCE8C2F8F719DCFF7
:100F70000F931F93CF93DF93EC01688179818D816B
:100F80000E9495098C010E94DF080E945508B80153
:100F9000CE010E94C305DF91CF911F910F9108955B
:100FA000CF93DF93EC018C81882399F0CE010E94CE
:100FB0001604811111C00E94950C882351F08D8177
:100FC000882339F080913E0382FF03C082E00E94B3
:100FD000580DDF91CF910895CE010E94B807CE0140
:100FE0000E94F103F6CF90E080E00E94722190E031
:100FF00080E00E9497210E94BC0C0E94F50C0E9488
:1010000094140E94781408950E94840C0E94F3079F
:1010100008950E94AC0C0E940408089592959F7058
:10102000963091F058F4925F9F70923058F4803F60
:1010300019F030F4883E30F481E008959A5FF4CFDF
:10104000843FD1F380E00895883EB0F3813FD1F72B
:10105000F3CFFC012481222339F0808191810E9409
:101060008A090E940E08089580E00895A6E0B0E085
:10107000ECE3F8E00C941A2B2696E2E00C94362B65
:10108000A7E0B0E0E6E4F8E00C941A2B2796E2E043
:101090000C94362B08950E944A0808950E944B082C
:1010A00090930F0280930E02089508950E944E08B7
:1010B000089520910E0230910F02822B932B0E94F3
:1010C0004E08089520910E0230910F02822393233F
:1010D0000E944E08089520910E0230910F0282273F
:1010E00093270E944E0808950E944A0808950E947E
:1010F000740808950E94770890930D0280930C0263
:10110000089590E080E00E947A08089521E030E0A0
:10111000A90102C0440F551F8A95E2F7CA010E9437
:101120007A08089521E030E002C0220F331F8A952B
:10113000E2F780910C0290910D02822B932B0E947A
:101140007A08089521E030E002C0220F331F8A950B
:10115000E2F72095309580910C0290910D02822348
:1011600093230E947A08089521E030E002C0220F04
:10117000331F8A95E2F780910C0290910D0282272D
:1011800093270E947A08089520910C0230910D0255
:10119000822B932B0E947A08089520910C023091A3
:1011A0000D02822393230E947A08089520910C0255
:1011B00030910D02822793270E947A08089508959E
:1011C000262F277091E001C0990F2A95EAF723E0B6
:1011D000769567952A95E1F7660F771F660F771F5B
:1011E000FA01E60FF71F50E040E0682F70E08191B0
:1011F000DF0111979B01042E02C0369527950A94B2
:10120000E2F7217021952827292328272C934F5F67
:101210005F4F4430510559F70895A82FA77023E078
:10122000969587952A95E1F7880F991F880F991F42
:10123000FB01E80FF91F50E040E080E0219130E031
:101240000A2E02C0369527950A94E2F721703327BB
:10125000042E01C0220F0A94EAF7822B4F5F5F4FE2
:101260004430510559F70895262F953070F48F308A
:1012700060F4682F70E08FE0989F600D711D11245D
:1012800044EE51E0822F0E94E0080895292F953006
:1012900068F48F3058F490E064EE71E03FE0239FF3
:1012A000800D911D11240E940D09089580E008957C
:1012B000B0E0A0E0EEE5F9E00C94132B7C01009186
:1012C0000C0210910D0280910E0290910F02082BDA
:1012D000192BCFE0D0E0CC24C394D12CBC2EC60176
:1012E0000C2E02C0880F991F0A94E2F780239123E5
:1012F000892B49F4219790F7B12C8B2DCDB7DEB710
:10130000E9E00C942F2BB7018C2F0E945510019708
:1013100089F3F3CFCF93DF93EC010E945809BE010C
:101320000E945510DF91CF9108951F93CF93DF93C3
:10133000EB019091E301992339F0CB010E948A09D6
:10134000DF91CF911F910895882369F0CB010E940E
:101350005809182F682FCE010E943409BE01812F31
:101360000E945510EDCFCB010E944609182FF6CFF1
:101370001F93CF93DF93C091100217E08091110269
:101380008C1304C0DF91CF911F910895D0E01C9F72
:10139000F0011D9FF00D1124EE5EFD4F2081318183
:1013A000428153816481758186810E944008219623
:1013B000C770E4CF20914A0230914B0240914C0219
:1013C00050914D0260914E0270914F0280915002F7
:1013D0000E9440080895CF93DF9380915002807F50
:1013E00009F04DC080914F02882309F448C0E09174
:1013F000100250911102C0914B02D0914A026091AB
:101400004C0270914D0247E05E17C9F18E2F90E0BB
:10141000E49FF0011124EE5EFD4F2481222391F11F
:10142000489FF001499FF00D1124DF01AE5EBD4FD2
:1014300011962C9111972C1325C02C912D1322C09D
:1014400015962C91159721111DC012962D913C9146
:10145000261B370B283C3105A8F4809150028F7071
:10146000806180935002E85EFD4F80818F708061C3
:1014700080838AE492E00E94D0070E94B809DF913D
:10148000CF910895FC013196E770BECF482F20918F
:1014900010029091110257E0291302C080E00895D4
:1014A00030E0529FF001539FF00D1124EE5EFD4F8E
:1014B0008181681306C08081481303C08581811132
:1014C000EECF2F5F3F4F2770E7CFA4E1B0E0EBE610
:1014D000FAE00C94102B8C0186E0F801DE011F96D7
:1014E00001900D928A95E1F7F8018481E5809AE4F4
:1014F000A92E92E0B92E90914E0291111FC088231F
:10150000D1F0EE20A9F0C8010E942908F82E882306
:1015100079F087E0F801D50101900D928A95E1F705
:10152000C5010E9401050E94EB090E94DA095FC013
:10153000C8010E94D007FF24F39459C0C080D18015
:1015400082809380F0904F0220914C0230914D02A6
:10155000A401421B530BFF2009F4F9C0483C51057C
:1015600008F0A7C0882309F442C090914B028091F3
:101570005002282F207F09F05CC09D1116C0909169
:101580004A02C91212C0E1104EC08F708061809370
:1015900050020E94DA098AE492E00E94D00780910A
:1015A0005002F8018683F12C22C0E1103CC06D2D61
:1015B0008C2D0E94460A6D2D8C2D0E94460AE82E25
:1015C0008111F1CFCF86D88A8F8598890E948A09A8
:1015D000292F22952F70243078F49F702230A8F0A4
:1015E0009923B9F0F8019681907F99F4FE2C8F2D04
:1015F0006496ECE00C942C2B2A5F2F70223068F05C
:10160000C8010E94D007EF2CF1CF992311F0882355
:1016100069F3805E883050F3F3CF803F38F3815F09
:10162000833070F7E3CF8091500281608093500245
:10163000BACF9D1113C090914A02C9120FC0E11098
:101640000DC08683C8010E94D00787E0F801AAE494
:10165000B2E001900D928A95E1F767CFC8010E9430
:101660002908882309F464CFEE2009F461CF809122
:101670005002803288F020914A0230914B02398723
:1016800028879B868A8690914E029C871D868E872E
:10169000CE0108960E94D00787E0F801AAE4B2E0E4
:1016A00001900D928A95E1F70E94EB090E94DA09F8
:1016B00042CF90915002292F207FA1F4682D9A8A61
:1016C000898AA6017A899E2D0E9436088AE492E0D2
:1016D0000E94D00787E0F50111928A95E9F70E94F0
:1016E000DA0961CF882309F482CF80914B028D11F2
:1016F00010C080914A02C8120CC0E1100AC0968343
:10170000C8010E94D00787E0F50111928A95E9F798
:101710006ECFC8010E942908882309F409CFEE2062
:1017200009F406CF80915002803208F4B5CF2091A1
:101730004A0230914B023A8329839C828B8290919A
:101740004E029D831E828F83CE010196A3CF483C1B
:101750005105B8F5882309F4EECEFE2CEE2009F4ED
:10176000E7CE80914B028D111EC080914A02C812B3
:101770001AC08091500280FD0DC0982F907F51F0CB
:101780008683903F09F45ECF982F907F905F8F7093
:10179000892B57CF87E0F801AAE4B2E001900D92BF
:1017A0008A95E1F724CFC8010E942908811174CFDE
:1017B00080915002816080935002C8010E94D0073E
:1017C00016CF682D9A8A898AA6017A899E2D0E9451
:1017D000360887E0F50111928A95E9F7A6CEAEE0CA
:1017E000B0E0E5EFFBE00C94192B288739874A8796
:1017F0005B876C877D878E87CE0108960E94650A7D
:101800008823B1F06C85662341F0288539854A85A7
:101810005B857D858E850E94400817E080911002CF
:101820009091110289133DC02E96E3E00C94352B64
:1018300087E0FE013896DE01119601900D928A959F
:10184000E1F78C85882349F32091110230E0C9012A
:10185000019687709927409110024817190699F050
:1018600097E0929FD001939FB00D1124AE5EBD4FC3
:10187000FE01319601900D929A95E1F78093110245
:101880000E94B809CACF0E94090810921102109252
:10189000100287E0EAE4F2E0DF011D928A95E9F7A1
:1018A000BCCF819FC00111248E5E9D4F0E94650AAE
:1018B000882309F4B9CFE09110021E9FF001112492
:1018C000EE5EFD4F208131814281538164817581BB
:1018D00086810E9440088091100290E001968770F6
:1018E0009927809310029ACF682F809104019091DC
:1018F00005010E9450220895682F80910401909163
:1019000005010E945E2208958091040190910501D5
:101910000E946C2208958091710286958695869525
:101920000895809171028770089590917102977067
:1019300081E009F480E008958091950208959091E6
:101940009502892B80939502089580959091950238
:10195000982390939502089510929502089590917E
:101960009402892B8093940208958095909194021B
:1019700098239093940208951092940208950895E4
:101980000E94BF0C089590917202292F282331F0F4
:1019900080958923809372020E94C00C0895089557
:1019A0000E94CF0C089590917302292F28232817A5
:1019B00029F0982B909373020E94D00C0895909177
:1019C0007302292F282331F0809589238093730295
:1019D0000E94D00C089580917302882329F0109200
:1019E000730280E00E94D00C0895CF93DF93E091C2
:1019F0000401F0910501809195028083E09104013A
:101A0000F0910501808190919402892B80839091BF
:101A10007302992381F0E0910401F0910501808126
:101A2000892B808380910401909105010E94BC2143
:101A300081110E94EB0CC0910401D091050140E29C
:101A400050E061E572E0CE010E94E02B892B59F055
:101A500080E2FE01A1E5B2E001900D928A95E1F7E6
:101A6000CE010E944A21DF91CF91089508950E94EE
:101A7000360D089590913E0392FF11C098E0899F22
:101A800090011124622B609371020E949208809150
:101A900071028695869586950E94370D08950E945D
:101AA000920808951092710280E00E94370D089507
:101AB000909171028095892380937102282F27705D
:101AC00069F4891759F090913E0392FF07C08695FB
:101AD000869586950E94A2080E94520D08959091C5
:101AE0003E0392FB222720F9281769F080FB92F928
:101AF00090933E0380913D0390913E030E94B70D69
:101B000082E00E94580D089580913E0382FB882751
:101B100080F991E089270E946F0D089581E00E946D
:101B20006F0D089580E00E946F0D08956FEF7FEFB5
:101B300090E080E00E94382C089590E080E00E94C0
:101B4000042C21E0863E9E4F09F020E0822F08956C
:101B500082E090E00E94F62B089583E090E00E94DE
:101B6000F62B089584E090E00E94042C0895BC01B7
:101B700084E090E00E94382C0895AB01BC018FE016
:101B800090E00E942C2C0895AB01BC0183E190E011
:101B90000E942C2C089560E070E0CB010E94C40DDF
:101BA000089560E070E0CB010E94BD0D0E94CB0D56
:101BB0000895A8E0B0E0EFEDFDE00C941A2B66EE7E
:101BC0007EEF90E080E00E94382C60E082E090E0C0
:101BD0000E941A2C60E083E090E00E941A2C109280
:101BE0000F0210920E0260E074E184E090E00E9427
:101BF000382C60E086E090E00E941A2C6FEF87E0BE
:101C000090E00E941A2C40E050E0BA0188E090E099
:101C10000E942C2C60E084E290E00E941A2C60E08C
:101C200087E190E00E941A2C60E08CE090E00E9436
:101C30001A2C60E08DE090E00E941A2C19821A8222
:101C40001B821C821D821E821F82188648E050E083
:101C500068E170E0CE0101960E940A2C40E050E05D
:101C6000BA0180E290E00E942C2C0E94D10D2896AF
:101C7000E2E00C94362B0E94D90D0895682F8EE077
:101C800090E00E941A2C0895A6E0B0E0EAE4FEE09D
:101C90000C94182B0E9451238C01809196029091F4
:101CA00097028017910781F019821A820E945123AE
:101CB000682F49815A81792F80E090E00E94D104F9
:101CC00010939702009396022696E4E00C94342B2E
:101CD0000E945D236093A6027093A7028093A802DE
:101CE0009093A9026093A2027093A3028093A4022E
:101CF0009093A5020895089508950E947B0E08957B
:101D000008950E94800E08958BE491E10E941B13B8
:101D10000E947C0E0E947D0E089581E008950E942D
:101D20008D0E08950E948D0E0895089508950E94C5
:101D3000950E0E94960E08950E946A110E94A304B7
:101D40000E944D1F08950E9448230E9456120E942F
:101D50009C0E0E94A71D0E94121C0E94810E0895D5
:101D6000A6E0B0E0E6EBFEE00C940E2B0E948F0E96
:101D700081110EC00E94440E0E94681C0E944C1FDC
:101D80000E94B6140E94B8042696EEE00C942A2B0A
:101D90000E946C1228E9822E22E0922E640110E04B
:101DA000F601E190F1906F01812F0E9490111F5F69
:101DB000153009F44BC0E816F90691F38091AA0298
:101DC00081FD0E9499110E94920E782E10E06624E7
:101DD0006394812F0E9490117C01F401A190B19035
:101DE0004F018A159B0561F100E0CC24C394D12CEE
:101DF000AE24BF24C5018C219D21892BC1F0772001
:101E0000B1F009831A830E9451239C838B836D82D6
:101E100021E0C7018C219D21892B09F420E0498113
:101E20005A816B817C818D81922F0E94D1040F5F3A
:101E3000CC0CDD1C0F30F1F6F4013297F182E08218
:101E40001F5F153031F60E94680E96CFE816F9062E
:101E500009F0B4CF8FCF1F93CF93DF930E945A1016
:101E6000EC01C11580E5D807F0F5C11580E4D8076D
:101E700008F09CC0C03ED10520F5CD3CD10508F04E
:101E800082C0C83AD10578F4C53AD10508F073C0CC
:101E9000C130D10519F1209709F1C430D105F0F412
:101EA000D0E0C0E01BC0C33CD105D0F7C85AD0E099
:101EB000CC0FDD1FCD59DE4F0990D881C02DD464E1
:101EC0000DC0C11580E2D80708F0D1C0C11581E06E
:101ED000D80708F05AC0C83ED10510F7CE01DF91EF
:101EE000CF911F910895C03682E5D80718F5C03408
:101EF00082E5D80708F06BC0C03282E5D80708F049
:101F00005FC0C11582E5D80708F497C02C2F26952D
:101F1000269580E2289F900111248C2F8370C1E0C8
:101F2000D0E002C0CC0FDD1F8A95E2F7C22BD32B85
:101F3000DD68D4CFC03A82E5D80760F4C03882E5C6
:101F4000D80708F459C0CF71D0E0DC2FCC27C46F7C
:101F5000D06AC4CFC03C82E5D80708F462C0C03E56
:101F600082E5D80708F09CCFDC2FCC27CC27DF7187
:101F7000C06FD06AB3CFC55AD0E0C756DE4FC88114
:101F8000D0E0D064ABCFD065A9CF8D2F0E94FC10DC
:101F9000182FCE0199270E945A10C12FD0E0DC2FB4
:101FA000CC27CC27DF71C82BD92B98CFCE0199270E
:101FB0000E945A10CC27DF70C82BD92BD06A8ECF45
:101FC000CF71D0E0DC2FCC27C16FD06A87CF2C2F08
:101FD00026952695277080E2289F900111248C2F4A
:101FE0008370C1E0D0E002C0CC0FDD1F8A95E2F71C
:101FF000C22BD32BDC6872CF2C2F26952695277009
:1020000080E2289F900111248C2F8370C1E0D0E0E2
:1020100002C0CC0FDD1F8A95E2F7C22BD32BDA6802
:102020005DCF8C2F8F710E94FC10C82FD0E0DC2F69
:10203000CC27CC27DF71D06251CF8C2F8F710E94BB
:10204000FC1055E0D695C7955A95E1F7CF70D0E0D2
:10205000DC2FCC27282F30E084FF05C044E0220F7E
:10206000331F4A95E1F7C22BD32BD06937CF8D2F81
:102070008F710E94FC10182FCE0199270E945A10D0
:10208000C12FD0E0DC2FCC27CC27DF71C82BD92B78
:10209000D2CF462F753030F46F3020F4672F0E9476
:1020A0009803089590E080E008950E9449100E94EE
:1020B0002B0F089582389105B9F1B0F48133910561
:1020C00009F47DC048F48932910509F46DC08A3263
:1020D000910509F47BC008958533910509F45FC02B
:1020E0008933910509F10895833E9105D9F138F4BA
:1020F000803E910529F1823E910579F10895863E51
:102100009105D9F1873E910509F43EC0843E9105C1
:1021100041F520913E0321FF24C080913D0384FDC1
:1021200019C087EE90E0089520913D03237009F0D7
:102130005AC020913E0323FF14C089E290E0089525
:1021400020913D0320FD38C030913E0330FF09C08F
:1021500024FF43C090E080E0089520913D0322FDDC
:10216000F7CF089520913D0322FD3AC030913E0300
:1021700030FD39C024FFF5CFEDCF20913D0323FF83
:10218000F0CF24FDE7CFCDCF20913D0323FD2EC01E
:1021900030913E0331FFEECF84EE90E00895209120
:1021A0003D0325FFDECFC9CF20913D0325FD21C092
:1021B00020913E0323FFD5CF89E390E0D2CF209139
:1021C0003D0326FFCECF8AE290E0089520913D03A3
:1021D00026FFC7CF81E390E0089583EE90E0089555
:1021E00082EE90E0089580EE90E0089586EE90E013
:1021F000089585E390E0089590913D0392FF10C00B
:1022000041E0282F2471243009F040E031E0282FEC
:102210002871283009F030E0431711F02CE08227B4
:1022200093FF10C041E0282F2471243109F040E0D1
:1022300031E0282F2871283109F030E0431711F0E0
:102240002CE0822730913E0330FF10C051E0282F50
:102250002171213009F050E041E0282F2871283009
:1022600009F040E0541711F029E0822731FF10C037
:1022700041E0282F2171213109F040E031E0282F81
:102280002871283109F030E0431711F029E0822746
:1022900094FD877E089580E008950E94960D08952C
:1022A0000E946C122FEF86E791E021508040904011
:1022B000E1F700C000000E946C1280E00E949011C3
:1022C00080FF04C00E944D110E949C2308950E942B
:1022D000501108950E949D0D811102C00E943B0E75
:1022E0000E94A80D8093AA020E94B20D90933E0313
:1022F00080933D030E9467110E94AD0D90E00E9403
:10230000560880910C0290910D020E947708089562
:1023100008950E948811089508950E948C110895CF
:10232000E82FF0E0EE0FFF1FE75BFC4F808191810B
:102330000895089580EA8A95F1F7089500C00895F8
:102340000E949A110895F894E82FE295EF70F0E05A
:1023500031A1282F2F7081E090E001C0880F2A95CD
:10236000EAF7982F9095932391A392A1892B82A3AA
:10237000789408950F931F93CF93DF93CCE9D1E026
:1023800089918F3F11F00E94A31181E0CB3AD807C9
:10239000B9F7CBEAD1E000EB11E089918F3F11F062
:1023A0000E94A3110C171D07C1F7DF91CF911F9158
:1023B0000F9108958F929F92BF92CF92DF92EF92EA
:1023C000FF920F931F93CF93DF93D82EE92EF62E13
:1023D0008A01C62FD0E0C456DE4F28812F3F09F472
:1023E00053C0F894E22FE295EF70F0E031A12F7026
:1023F00081E090E001C0880F2A95EAF7932F982B8F
:1024000091A392A18095892382A378940E949E1122
:102410008BEA882E81E0982EED2DFE2DBF01665FA0
:102420007F4FE12C6801C094D094D401BD904D0140
:1024300081919191AF0142505109BFEFBB1681F1DB
:102440002B2D22952F7030E0D90190962C9130E001
:10245000BB2DBF7002C035952795BA95E2F720FDD8
:102460001FC0802B912BDA018D939C93EE24E39473
:102470006E177F07D1F688818F3F11F00E94A3115C
:102480006E2D8F2D0E94A011DF91CF911F910F9182
:10249000FF90EF90DF90CF90BF909F908F90089526
:1024A0008C219D21DA018D939C93E2CF0E94BA1179
:1024B0008AE0E9E4F3E0DF01982F1D929A95E9F7AD
:1024C000EFE3F3E0DF011D928A95E9F785E00E94D2
:1024D000C0120E9489110895CF92DF92FF920F934C
:1024E0001F93CF93DF93CDB7DEB72A970FB6F8943B
:1024F000DEBF0FBECDBF8E010F5F1F4F8AE0F80118
:1025000011928A95E9F7F12CCC24C394D12CA60121
:102510006F2DC8010E94DA11F394CC0CDD1CFFE092
:10252000FF12F5CF4AE050E0B8018FE393E00E943C
:10253000E02B21E0009709F420E0892B41F08AE0AC
:10254000F801AFE3B3E001900D928A95E1F745E021
:1025500069E473E08FE393E00E94C112182F0E9498
:102560008D11812F2A960FB6F894DEBF0FBECDBF16
:10257000DF91CF911F910F91FF90DF90CF90089541
:102580000895CF92DF92EF92FF921F93CF93DF9344
:102590006C017B01C42F222349F081E08093AD02BE
:1025A0000E9451239093AC028093AB021091AD0234
:1025B00011110AC010E0812FDF91CF911F91FF9080
:1025C000EF90DF90CF9008958091AB029091AC0294
:1025D0000E946923059770F3D0E0CC0FDD1FAE0198
:1025E000B601C7010E94E02B892B41F0AE01B60174
:1025F000C7010E94ED2B1092AD02DDCF10E0FBCFA2
:102600000E9435250E94A30E0E94422508950E9433
:1026100047250E94B00E0E94612508950E94EA227B
:102620000E941B250E94840E0E9400130E94071323
:102630000E94970EFBCF9093DD018093DC010895FB
:10264000282F35EB2303C001112497FF04C08058C5
:102650009109892F089580589F4FFBCF8091B40234
:1026600080FF0DC060910B0170E0660F771F60382E
:10267000710570F56115710569F1862F089581FF67
:1026800007C060910B0184E0689FB0011124EFCF77
:1026900060910B0182FD0AC08091B3028823A9F0EA
:1026A00020910A0160910B01821710F088E0ECCFB5
:1026B000869FC001112433E0880F991F3A95E1F7F6
:1026C000622F70E00E949D2AD2CF68E070E0D5CFE3
:1026D0008FE7089581E008958091B40280FF0CC0D7
:1026E0006091070170E0759567957595679561151F
:1026F000710549F1862F089581FF06C06091070199
:1027000070E075956795F3CF6091070182FD0BC06E
:102710009091B2029923A1F0609106018091070186
:10272000961738F0682F70E06038710500F38FE776
:102730000895899FC001112470E00E949D2AF4CF62
:1027400061E070E0D7CF81E008958D3C31F40E94C4
:102750002E1381958093B80208958E3C19F40E943F
:102760002E13F8CF8F3C31F40E942E138195809365
:10277000B7020895803D19F40E942E13F8CF893DC9
:1027800029F40E946C138093B90208958A3D21F4C4
:102790000E946C138195F7CF8B3D31F40E946C132E
:1027A00081958093BA0208958C3D19F40E946C13B0
:1027B000F8CF9FE2980F983070F4815D990B21E07B
:1027C00030E001C0220F8A95EAF78091B602822B91
:1027D0008093B60208958D3D31F48091B4028160FA
:1027E0008093B40208958E3D21F48091B4028260FA
:1027F000F7CF8F3DB9F78091B4028460F1CF40915B
:10280000B7028D3C59F48091B80287FF0DC0109239
:10281000B80241110BC01092B30208C08E3C81F483
:102820008091B80218169CF3442381F08091B9027C
:102830009091BA02892B09F05AC01092B202089501
:102840008F3C49F447FFF0CF1092B7028091B80255
:102850008111ECCFE0CF803D19F41416ACF3E4CF36
:102860009091B902893D29F41916F4F61092B90233
:10287000DBCF8A3D19F497FFD7CFF8CF9091BA02FA
:102880008B3D29F497FFD0CF1092BA02CDCF8C3D6B
:1028900019F41916CCF3C8CF9FE2980F983090F432
:1028A000815D990B21E030E0B90102C0660F771F0E
:1028B0008A95E2F7CB0180959091B60289238093A7
:1028C000B602B2CF8D3D31F48091B4028E7F8093F9
:1028D000B402AACF8E3D21F48091B4028D7FF7CF50
:1028E0008F3D09F0A1CF8091B4028B7FF0CF089586
:1028F0000E9451239C019091B7028091B802982BBD
:1029000021F03093B1022093B0029091B9028091EE
:10291000BA02982B21F03093AF022093AE0285EBE0
:1029200092E00E946421089586E0E5EBF2E0DF0189
:102930001D928A95E9F71092B3021092B20210929A
:10294000B4020895FC01828181110EC0838181113E
:102950000BC08481811108C091E08581811101C083
:1029600090E0892F8170089581E0FCCFA6E0B0E06F
:10297000ECEBF4E10C94192B86E0E5EBF2E0DE01E0
:10298000119601900D928A95E1F71092B70210927C
:10299000B8021092B9021092BA028B819C81892BE5
:1029A00089F08091B0029091B1020E946923AC013C
:1029B0009091B3029923C9F180910C0184171506F7
:1029C00008F440C08D819E81892B91F08091AE02E8
:1029D0009091AF020E946923AC019091B2029923B9
:1029E00009F46AC0809108018417150608F472C0C2
:1029F000BE016F5F7F4F85EB92E00E947E228111C6
:102A000005C085EB92E00E94A21481110E94781407
:102A100086E0FE013196A5EBB2E001900D928A9519
:102A2000E1F72696E3E00C94352B20910D018AE026
:102A3000289F900111242417350720F69F5F90935B
:102A4000B30202C09F3FD1F71B81112359F00E94AE
:102A50002E139FEF11160CF491E0899F802D112405
:102A60008093B7021C81112359F00E942E139FEF0F
:102A700011160CF491E0899F802D11248093B802E7
:102A80008091B702882309F49DCF1091B8021123D9
:102A900009F498CF0E942013882351F08093B70245
:102AA000812F0E942013882329F08093B8028ACFB7
:102AB00081E0F4CF81E0F9CF209109018AE0289FDD
:102AC000900111242417350708F092CF9F5F90934F
:102AD000B20202C09F3FD1F71D81112359F00E941D
:102AE0006C139FEF11160CF491E0899F802D112437
:102AF0008093B9021E81112359F00E946C139FEF3D
:102B000011160CF491E0899F802D11248093BA0254
:102B10008091B902882309F46BCF1091BA02112376
:102B200009F466CF0E942013882351F08093B902E4
:102B3000812F0E942013882329F08093BA0258CF56
:102B400081E0F4CF81E0F9CFEF92FF920F931F93D2
:102B5000CF93DF93EB01E82FD1110EC0442321F076
:102B6000F0E0E25EFB4FE4916E2F7E2F8E2FCDB70B
:102B7000DEB7E6E00C94322B0D2F10E0282F30E06A
:102B8000442329F0225E3B4FF901249130E0F6E026
:102B9000CF9FC0011124EFEFF0E0BF010E94892A0E
:102BA000AB018C2F90E0880F991FA5E5A49FB00181
:102BB000A59F700D1124861B970B982F990F980FC6
:102BC000BF01601B710B629FD001639FB00D729FAC
:102BD000B00D11248B2F9D9FB0011124672F7727F3
:102BE000EF01C61BD70BBE01629FE001639FD00DB2
:102BF000729FD00D11247F01E91AF108E09EB00107
:102C0000E19E700DF09E700D1124672F7727E61B53
:102C1000F70BE29F8001E39F100DF29F100D11242E
:102C2000E12F722F4230510599F048F441155105BA
:102C300069F04130510581F0EB2F8D2F07C04430F2
:102C4000510569F080F046305105B1F76E2F8FCFF6
:102C5000E22F7B2F812FFACFE22F7D2FF7CFEB2FA3
:102C6000822F712FF3CF7B2F822FED2FEFCF41E0FB
:102C70000E94A415089508950E9437160895CF93D1
:102C8000DF93762FE901682F842F0E943C16798309
:102C900068838A83DF91CF91089580915303982FA1
:102CA0009E7F29F481708260809353030895863556
:102CB000E8F381708465F8CFB0E0A0E0E2E6F6E1E9
:102CC0000C94142B88E090E00E94FE2B6B017C0199
:102CD00084E290E00E94F62B282F30E040E050E0A4
:102CE00060E070E080E090E000E20E94412BB22FB3
:102CF000A32FF42FE52FD62FC72F97018601BC29CC
:102D0000A12BFE295E2F532B2B2F3A2F4F2F6D2FE8
:102D10007C2FCDB7DEB7E8E00C94302BB0E0A0E01C
:102D2000E4E9F6E10C94102B49015A016B017C0196
:102D30000E944D168401A4016A2D7B2D88E090E04D
:102D40000E942C2C94014A2D5B2DB601C70100E294
:102D50000E945C2B622F84E290E00E941A2CCDB777
:102D6000DEB7ECE00C942C2BE3E5F3E083E080830A
:102D700011828FEF828383831482758123E030E098
:102D80004FEF5FEF60E0868197810E948E16089575
:102D90008091530380FF02C08695089580E00895D6
:102DA00090915703933018F49F5F909357038823B3
:102DB00091F0209153033091540340915503509169
:102DC0005603609157037091580380915903909175
:102DD0005A030E948E16089581E00E94D01608952D
:102DE00090915703992319F091509093570388239A
:102DF00091F0209153033091540340915503509129
:102E00005603609157037091580380915903909134
:102E10005A030E948E16089581E00E94F0160895CC
:102E200070E00E945E1F089560911201809153032B
:102E300080FF0BC08091110123E0829FC00111240B
:102E4000855A9C4F0E94101708958091130190910C
:102E5000140123E0829FF0011124E55AFC4F8917E9
:102E600048F71182108212828F5F3396F8CF9091CB
:102E7000530390FF0EC0909113012091140133E091
:102E8000939FF0011124E55AFC4F921718F00E940D
:102E9000141708958183608342839F5F3396F5CF33
:102EA000A3E0B0E0E6E5F7E10C941A2B9091530310
:102EB00090FF0AC09E012F5F3F4F0E943F164B813B
:102EC00069818A810E9437172396E2E00C94362BA1
:102ED000CF93DF93EC01EC81F0E0E75EFC4F44918F
:102EE000E3E5F3E0628181810E9450178C818F5F5E
:102EF0008C83DF91CF910895CF93DF93EC01E3E5CD
:102F0000F3E0438162818C810E9450178C818F5F36
:102F10008C83DF91CF910895A3E0B0E0E2E9F7E17F
:102F20000C94182B8C018091BB0281110AC09E0168
:102F30002F5F3F4F4FEF6FEF0E943F168A818093C4
:102F4000BB02F8016481613069F08091BB0240E00E
:102F5000662361F040E0623011F44091BB0280E0F2
:102F600060E004C06091BB0240E080E00E9437173F
:102F7000F801848190E0019663E070E00E949D2A50
:102F800084832396E4E00C94342BA3E0B0E0EBECD4
:102F9000F7E10C94132B082FD62EF42EC22E90910D
:102FA000530390FF2EC0E92FE695AE2FB0E0A05559
:102FB000BE4F8C9180930D039E7F923031F59E0120
:102FC0002F5F3F4F802F0E943F164B8169818A817E
:102FD0000E94371700935403D0925503F092560382
:102FE000CC2079F0209153036091570370915803DE
:102FF000302F4D2D5F2D8091590390915A030E94DF
:103000008E162396E9E00C942F2B823019F4F09061
:103010005603E0CF863019F400915403DBCF89309A
:10302000D9F38931B9F6E9516E2F6170B62EE69564
:10303000F0E0E75EFB4F1491E12C60911501E6167C
:1030400018F00E941417C6CFE19EC001112470E051
:103050000E94892A802FB11014C0860F209113017D
:10306000622F6E0D7727771F9B01220F331F260FCC
:10307000371F255A3C4F4F2D6D2D0E943F16E3946C
:10308000DCCF861BEBCFE3E5F3E09181282F438172
:10309000628188E0890F0E94C517089581E00E942F
:1030A00043180895E3E5F3E09181282F438162817D
:1030B00088EF890F0E94C517089581E00E94521879
:1030C0000895E3E5F3E0628128E0620F08F46FEF12
:1030D000282F438181810E94C517089581E00E94B5
:1030E00061180895E3E5F3E0628128E0621B08F4CB
:1030F00060E0282F438181810E94C517089581E0F7
:103100000E9472180895E3E5F3E0438128E0420F3E
:1031100008F44FEF282F628181810E94C51708951E
:1031200081E00E9483180895E3E5F3E0438128E0FD
:10313000421B08F440E0282F628181810E94C5175C
:10314000089581E00E949418089520E00E94C51718
:103150000895EF92FF921F93CF93DF93EC0110E05D
:10316000EE24EA94F12C60911501161770F00E947C
:1031700014179A818C8190FF27C08F5F8C83DF9119
:10318000CF911F91FF90EF90089520911301422F4E
:10319000410F5527551FCA019A01220F331F280FCF
:1031A000391F255A3C4F70E0C7010E949D2A962F77
:1031B0008C814091560360915503199F800D112415
:1031C0000E943F161F5FCFCF8150D8CFB0E0A0E064
:1031D000ECEEF8E10C94122BFC0182810FEF80FFE2
:1031E00001E010E04EE0A42E80911501181798F030
:1031F0000E9414178091BD02013009F04FC0811167
:1032000002C08091150181508093BD02CDB7DEB719
:10321000EAE00C942E2BC0911301C12ED12CCC0DC1
:10322000DD2DD11DCE01880F991FC80FD91FC55A9A
:10323000DC4F198218821A8234E0E32EF12CB12C73
:103240008091BD028B0D8F301CF16A2D0E947B2A6C
:10325000892F082E000C990BC816D90691F480917D
:1032600056038E9DA0018F9D500D112455954795B5
:10327000559547959E0160915503809154030E9496
:103280003F16B00EF1E0EF1AF108D1F61F5FACCF98
:1032900087FFDFCF90911501890FDBCF90E001967A
:1032A0006091150170E00E949D2AAECF0F931F938D
:1032B000CF93DF93809113019091140123E0829FBB
:1032C000F0011124E55AFC4F891740F1C0E0D3E02A
:1032D00060911501C61740F10E94141720910F014B
:1032E0008091BC02820F8093BC0290911001920FDA
:1032F00090931001191654F4082E000C990B40916C
:1033000015014150550B841795071CF0219520930A
:103310000F01DF91CF911F910F91089511821082BB
:1033200012828F5F3396D0CF0C2F10E070E0C8016F
:103330000E949D2A20911301820F482F50E0209176
:10334000BC02022E000C330B02171307BCF02091B5
:103350001001022E000C330B201731077CF08D9FDB
:1033600090011124255A3C4F40915603609155031A
:10337000809154030E943F16CF5FAACFFA01EE0F4F
:10338000FF1FE40FF51FE55AFC4F118210821282D5
:10339000F3CFB0E0A0E0EFECF9E10C94102BEC01DE
:1033A0004C81042F10E09801D8010E94E12A9B0172
:1033B000AC010E94F72A4B015C01E0E2F0E0E01B67
:1033C000F10BA5E5B0E0AC019B010E94F72A6B016F
:1033D0007C019F01DF010E94D92A9B01AC010E9460
:1033E000022B9B01AC01280D391D4A1D5B1DC70135
:1033F000B6010E94B12AF22E822F90E039E23F15E9
:1034000020F143E0249F9001112435952795122F38
:10341000109500E085E5E82EEF188091150108175A
:1034200018F10E9414179C8181E0992319F09032C1
:1034300019F48FEF80930E0180910E01890F8C8318
:10344000CDB7DEB7ECE00C942C2B25E530E0B901CC
:10345000681B790B9B01220F331F260F371F37FF85
:10346000D4CF2F5F3F4FD1CF8E2D01FD8F2D2091D7
:103470001301622F600F7727771F9B01220F331FE5
:10348000260F371F255A3C4F412F609155030E944C
:103490003F160F5FC2CF0F931F93CF93DF93EC01C3
:1034A00010E000E0909115019017110609F06CF4FE
:1034B0000E9414178C8190E00196817099278C836B
:1034C000DF91CF911F910F91089520911301A801D1
:1034D000420F511D9A01220F331F240F351F255A09
:1034E0003C4F4C8160915503809154039695901701
:1034F000110651F04CF0442349F0409156030E94CC
:103500003F160F5F1F4FCECF4423B9F340E0F7CFF4
:10351000B0E0A0E0EEE8FAE10C940C2BFC01628034
:10352000448081E08483E9E1F3E07490E8E9F3E02A
:10353000E491C0915603C695C158D0E0CC0FDD1F71
:10354000CD2FDD27812C75E0972EAA24AA94B12CCB
:1035500055245A94E719EE2EF12C80911501881606
:1035600038F00E941417CDB7DEB7E0E10C94282B99
:10357000C82CD12C82E0861568F09C9CF0019D9CA3
:10358000F00D1124E254FD4F80915403808380910B
:1035900055038183411023C09C9CF0019D9CF00D3C
:1035A0001124E254FD4F1382128220911301C601AF
:1035B000820F911D9C01220F331F280F391F255A9E
:1035C0003C4F9C9CF0019D9CF00D1124E254FD4F5A
:1035D0004281618180810E943F168394BECF9C9C72
:1035E00080019D9C100D112402541D4FF801838110
:1035F0008823F1F081508383859DC001112464816B
:1036000070E00E94892AFB01FF27E75EFC4F84914E
:10361000E82FE719E59DC0011124B7010E94892A0E
:1036200080915603689FB0011124F8017283BDCFC9
:103630000E94C32BB5010E949D2A8C179D070CF098
:10364000B4CFF2E0F61598F40E94C32BB5010E94A6
:103650009D2AF80180830E94C32B20915503269553
:10366000622F70E00E949D2A280FF80121839C9C04
:10367000F0019D9CF00D1124E254FD4F12828091C7
:103680005603893C58F088EC9C9CF0019D9CF00D01
:103690001124E254FD4F8483838387CF8431A0F7C4
:1036A00084E1F2CFE3E5F3E020812E7F20833181B6
:1036B0004281538164817581868197810E948E1633
:1036C00010920E030E9414170895E3E5F3E0808141
:1036D0008E7F808310920E030E941417089510921B
:1036E0000E0380910B0381110AC081E080930B03CC
:1036F00080915303817080930A030E94651B089593
:1037000060915303669570E04BE050E086E191E0F4
:103710000E94D32B892B19F481E080930E030E9421
:1037200051239093050380930403089590915303CC
:1037300090FF33C09170811131C092609093530318
:10374000662391F020915303309154034091550327
:10375000509156036091570370915803809159031B
:1037600090915A030E948E1660915303669570E003
:103770004BE050E086E191E00E94D32B892BA9F029
:1037800010920E0381E080930703409156036091ED
:103790005503809154030E94A51808958B3210F0B0
:1037A0009465CCCF880F982BC9CF0E94801BEACF9D
:1037B000682F90915303969581E0890F8B3208F022
:1037C00081E00E94961B089581E00E94D81B089515
:1037D000682F9091530396958FEF890F09F48AE231
:1037E0000E94961B089581E00E94E81B089561E005
:1037F0000E94961B0895E3E5F3E080818160808359
:1038000086950E94F71B08958091530380FF03C0A3
:103810000E94521B08950E94FB1B089560E00E94C5
:10382000961B089580910C0381113EC00E949D0D4E
:10383000811104C00E943B0E0E94B4160E945C16C7
:1038400020935303309354034093550350935603EE
:1038500060935703709358038093590390935A03CE
:103860002E7FA1F40E94B4160E945C16209353038D
:10387000309354034093550350935603609357037A
:10388000709358038093590390935A030E944D16E6
:1038900010920E038091530380FF03C086950E940F
:1038A0000E1C81E080930C030895E3E5F3E0808132
:1038B0008160808386950E940E1C089510920B03F0
:1038C00080910A0381110E94551C0E94801B08955B
:1038D0000F931F93CF93DF9380910E038823B9F149
:1038E00080910D03E0915303E695E81BE0930603F6
:1038F000823091F5F0E0EB5EFC4FE491CE2FD0E00A
:1039000008E617E180910703882361F0109207030E
:103910000E9451239093050380930403109209039E
:10392000109208030E945123E0910403F0910503D3
:103930008E1B9F0B8F3F9F4750F4EC0FFD1FF093A2
:103940000503E093040384E093E0F8010995DF9117
:10395000CF911F910F910895863049F4F0E0EE5E0B
:10396000FC4FE491CE2FD0E00CE717E1CBCF8930AC
:1039700051F4E695F0E0E15FFC4FE491CE2FD0E00A
:1039800009EA18E1BFCF8F3051F4E695F0E0E45F2B
:10399000FC4FE491CE2FD0E006EE18E1B3CF853195
:1039A00049F4F0E0E75FFC4FE491CE2FD0E006E56C
:1039B00019E1A8CFC8E2D0E009EC19E1883109F497
:1039C000A1CF833239F4E7E0F3E0C591D4910CE85C
:1039D00017E198CFC4EFD1E00BE41AE1843209F487
:1039E00091CFC0EDD7E00BE316E1853209F08ACF25
:1039F0008E2F63E00E946F2AE92FF0E0EC5FFC4F0E
:103A0000E491CE2FD0E008E81AE17CCFFA018111D1
:103A100001C0FB0109950895CF93DF93C82FD62FDE
:103A20000E94C8168C1748F00E94C8168D1728F4FB
:103A30000E94E41BDF91CF9108958C2F0E94F71B09
:103A4000F9CF1F93CF93DF93EC01FB011581111187
:103A500010C00E949C0C8272FE01E052F847E531D2
:103A6000F10508F05EC0E558F34D0C94D32A0E948E
:103A7000041C812FDF91CF911F91089543EF5BE1EB
:103A800064EE7BE10E94061DF4CF44EE5BE163EF40
:103A90007BE1F8CF4DE558E16EE478E1F3CF4EE4F9
:103AA00058E16DE578E1EECF4FE758E16EE678E159
:103AB000E9CF4EE658E16FE778E1E4CF41EA58E11B
:103AC00060E978E1DFCF40E958E161EA78E1DACFF7
:103AD0004CE057E16CEE76E1D5CF4CEE56E16CE070
:103AE00077E1D0CF81E00E94F71BC3CF65E082E091
:103AF0000E940C1DBECF68E086E0FACF6EE089E040
:103B0000F7CF64E18FE0F4CF67E185E1F1CF88E1A1
:103B1000EACF62E289E1ECCF83E2E5CF6AE285E2B7
:103B2000E7CF11E0A6CF86E090E00E94F62B089543
:103B3000682F86E090E00E941A2C0895E5E8F3E0F3
:103B400080818470896280830E94981D08950E94FC
:103B50009D0D811104C00E943B0E0E949E1D0E947B
:103B6000931D80938503803320F087708862809353
:103B7000850390918503892F817090FF04C0892F60
:103B80008695869586950E94AB1E08958091850343
:103B9000982F969596959695953040F49F5F990F3E
:103BA000990F990F8770892B8093850380918503E6
:103BB0008160809385030E94981D8091850386957E
:103BC000869586950E94AB1E089580918503982F57
:103BD000987F79F0885080938503887F91E009F47D
:103BE00090E08091850390FB80F9809385030E948B
:103BF000981D809185038695869586950E94AB1EBB
:103C000008958091850380FD13C0816080938503B2
:103C1000813019F489E080938503809185030E94A7
:103C2000981D809185038695869586950E94AB1E8A
:103C300008958091850380FF08C08E7F809385035F
:103C40000E94981D80E00E94AB1E0895809185031C
:103C500080FF03C00E94191E08950E94011E08954E
:103C600090918503892F8695869586958F5F8F71B4
:103C700097708630E0F4880F880F880F892B809327
:103C8000850380918503887F91E009F490E080911D
:103C9000850390FB80F9809385030E94981D809195
:103CA00085038695869586950E94AB1E0895909310
:103CB0008503E7CF863008F085E090918503977003
:103CC000282F220F220F220F922B90938503987F8B
:103CD00021E009F420E09091850320FB90F9909376
:103CE00085030E94AB1E08950E945A1E8091850391
:103CF0000E94981D08959C01FB018581882349F14C
:103D00002230F8E73F07F9F040F42115E8E73E07D5
:103D100069F02130384779F00895243098E7390761
:103D200079F058F02530384789F0089585E00E94F1
:103D3000741E80E0089580E0FACF0E94E51DF9CF5F
:103D40000E94C61DF6CF0E94261EF3CF0E94301E91
:103D5000F0CF81E008958F929F92AF92BF92EF9241
:103D6000FF920F931F93CF93DF938630B0F58111AD
:103D700035C0909180009F7D90938000A091860037
:103D8000B0918700282F30E00E94E12A25E030E042
:103D900040E050E00E94B12A89019A01809186009A
:103DA000909187006CE070E00E94892A601771078B
:103DB000C8F0C80169E070E00E94892A70938B0006
:103DC00060938A00DF91CF911F910F91FF90EF9048
:103DD000BF90AF909F908F90089585E09091800064
:103DE0009062CACF8091860090918700E090860013
:103DF000F0908700E0918600F0918700C6E0D0E067
:103E0000BE010E94892A060F171F211D311D48017E
:103E1000590185E0880C991CAA1CBB1C8A95D1F716
:103E2000C701BE010E94892A9F0150E040E0260F91
:103E3000371F411D511DC501B4010E94B12A49011E
:103E40005A01E0918600F0918700CA01B9010E94F1
:103E50005F2A9B01AC01DF010E94F72A9B01AC01A4
:103E6000C501B4010E945F2A2FE09695879577954A
:103E700067952A95D1F7009186001091870030E070
:103E800020E0061717072807390708F097CF609139
:103E900086007091870092CF0895269A2E9882E22C
:103EA0008093800089E1809381008FEF9FEF909352
:103EB0008700809386000E94A71D08956A9A4EB1DC
:103EC0004B7F5EB15460EFB7F8949B01220F331F14
:103ED000260F371F280F391F2817390741F4EFBF66
:103EE0008FE594E00197F1F700C000000895DC0130
:103EF0006D91CD0178E05EB9000000C067FF4EB95A
:103F0000660F000000C000C000C04EB900C07A9526
:103F100091F7E2CFCF93DF93EC01FB0185818823FA
:103F200009F4D2C09E0130572332310508F0B2C0E7
:103F30000E94B20D90933E0380933D03FE01E15039
:103F4000F047E232F10520F4E057F34D0C94D32A08
:103F500080913D03816080933D0393C080913E0337
:103F6000886080933E038DC080913D038260F3CFD3
:103F700080913D038460EFCF80913D038860EBCF5B
:103F800080913E038160EDCF80913E038260E9CF56
:103F900080913D038061DFCF80913D038062DBCF64
:103FA00080913D038064D7CF0E94090880913D0332
:103FB0008068D1CF80913D038C60CDCF80913E034E
:103FC0008360CFCF80913D038E7FC5CF80913E032C
:103FD000877FC7CF80913D038D7FBDCF80913D030B
:103FE0008B7FB9CF80913D03877FB5CF80913E0312
:103FF0008E7FB7CF80913E038D7FB3CF80913D03FD
:104000008F7EA9CF80913D038F7DA5CF80913D0309
:104010008F7BA1CF0E94090880913D038F779BCFB2
:1040200080913D03837F97CF80913E038C7F99CF12
:1040300080913D0382FB992790F921E0922790FB24
:1040400082F990FB83F987CF80913E03982F90955A
:1040500091708E7F892B90FB81F983CF90913D03E6
:10406000892F8F7B96FF806476CF0E9409089091FC
:104070003D03892F97FB87F980586DCF81E00E941F
:104080003E0E80913D0390913E030E94B70D0E9429
:10409000090880E0DF91CF91089580E0F0CF909102
:1040A0003D03892F8F7E94FF806155CF90913D0312
:1040B000892F8E7F90FF81604ECF90913E03892F94
:1040C000877F93FF88604DCF81E0E4CFCF93DF936C
:1040D000EB0186319C4711F50E949C0C9D81992330
:1040E00099F08A7A91E009F490E090930F0381119E
:1040F00009C089E20E94740C0E94F50C80E0DF91F7
:10410000CF91089585E3F6CF80910F03811104C00C
:1041100089E20E947C0CF0CF85E3FBCF81E0EFCFFA
:104120000F931F93CF93DF93C42FD22FFC01858170
:104130008823C9F0409312030E94512390931103E6
:104140008093100380E28C0F883040F4C77081E0C8
:1041500001C0880FCA95EAF70E94B505DF91CF919B
:104160001F910F91089510911203141332C0809182
:104170001003909111030E946923883C910548F532
:10418000C0E2CD0F1D17B9F080E2810F883040F4F6
:10419000177081E001C0880F1A95EAF70E94BC05EC
:1041A000C83048F481E09D2F977001C0880F9A9520
:1041B000EAF70E94B505802F0E94AC05C83070F662
:1041C000D77081E001C0880FDA95EAF70E94BC053C
:1041D000C5CF80E28C0F883008F6C77081E001C03F
:1041E000880FCA95EAF7F2CF0F93DB0188519C47FD
:1041F00087309105A0F5FC01EE54F34D0C94D32AC1
:1042000006E221EE41EE6AE17CE7CD010E949020BA
:1042100080E00F91089507E225EE45EE6BE17CE723
:10422000F4CF06E221EE40EE68E17CE7EECF07E254
:1042300025EE44EE69E17CE7E8CF06E221EE42EEAE
:104240006CE17CE7E2CF07E225EE46EE6DE17CE72C
:10425000DCCF08E221E045EE6EE17CE7D6CF159693
:104260008C91882319F010921203D3CF81E0D1CF23
:1042700090931803809317030895E0911703F0912A
:104280001803309729F00190F081E02D09950895E9
:1042900080E00895E0911703F0911803309799F0AA
:1042A00020912901222359F020913D0327FF07C0C7
:1042B000DC012C9111962C93119726E02C9302800F
:1042C000F381E02D09950895E0911703F09118030B
:1042D000309739F022E0DC012C930480F581E02D49
:1042E00009950895A3E0B0E0E8E7F1E20C941A2BF9
:1042F000209115033091160328173907A1F09093E8
:10430000160380931503E0911703F091180330977B
:1043100051F023E029839B838A830680F781E02D77
:10432000CE01019609952396E2E00C94362BA3E08A
:10433000B0E0EDE9F1E20C941A2B209113033091D7
:10434000140328173907A1F09093140380931303E3
:10435000E0911703F0911803309751F024E029837E
:104360009B838A830680F781E02DCE010196099513
:104370002396E2E00C94362BFC01329680912901C1
:10438000882321F080913D039EE187FF96E080E045
:10439000915008F4089521912223D1F38F5FF8CF33
:1043A000662301F1209129012223F1F020913D03A0
:1043B00027FF1AC0462F4695469546954E3190F4F4
:1043C000677021E030E002C0220F331F6A95E2F7E8
:1043D000840F911DFC01828190E02823392381E024
:1043E000232B69F480E00895FC0132960896219110
:1043F000261721F0E817F907D1F7F4CF81E00895E7
:104400009C01FC0132969FEF80E04191461751F0EC
:104410009F3F19F4411101C0982F8F5F8630A9F793
:104420009F3F09F40895290F311D97FD3A95F90131
:1044300062830895FC01329608962191261303C0E9
:10444000DF0111971C92E817F907B9F70895E62FD5
:10445000E695E695E695EE3168F4E80FF92FF11D43
:10446000677021E030E001C0220F6A95EAF782818F
:10447000822B82830895E62FE695E695E695EE3148
:1044800070F4E80FF92FF11D677021E030E001C0F2
:10449000220F6A95EAF720958281282322830895C6
:1044A00020912901222339F020913D0327FF03C0E9
:1044B0000E94272208950E94002208952091290138
:1044C000222339F020913D0327FF03C00E943B22A5
:1044D00008950E941A220895FC01329680912901C4
:1044E000882351F080913D0387FF06C08EE1DF01F4
:1044F0001D928A95E9F7089586E0F9CFDC01FB016A
:1045000011969C9111978181981322C012968C91DB
:104510001297882319F0928189131AC013968C91EF
:104520001397882319F09381891312C015968C91E3
:104530001597882319F0958189130AC014969C91C8
:10454000992321F081E02481291303C080E001C078
:1045500081E08170089508950E94AB220895811131
:1045600006C081E0809319030E94AC22089582E086
:10457000F9CF83E0809319030E94AC2208950E9432
:10458000AF22089581E0809319030E94AC22089520
:104590000E94C2220895089508950E94CC22089591
:1045A000089508950E94CB220895CF930E94D022AF
:1045B0000E946C120E94D122C0E08C2F0E949011A8
:1045C000892B31F4CF5FC530C1F780E0CF910895DA
:1045D00081E0FCCF85B7806885BF85B7806885BFDF
:1045E00008951F921FB61F9211248F939F93AF932C
:1045F000BF9380911A03811113C08091860390911B
:104600008703A0918803B09189034196A11DB11D34
:104610008093860390938703A0938803B0938903C4
:10462000BF91AF919F918F911F901FBE1F901895C2
:1046300080918E03843031F10E94780410921A0325
:1046400088E190E020E40FB6F894A895809360008C
:104650000FBE2093600083B7817F846083BF83B7E0
:10466000816083BF7894889583B78E7F83BF0FB6B0
:10467000F894A89580916000886180936000109202
:1046800060000FBE08950E9409080E9482040895E8
:1046900082E084BD93E095BD9AEF97BD80936E0054
:1046A00008952FB7F8948091860390918703A09185
:1046B0008803B09189032FBF08952FB7F8946091B4
:1046C00086037091870380918803909189032FBF9F
:1046D00008959C014FB7F8948091860390918703C9
:1046E000A0918803B09189034FBF821B930B08955B
:1046F00078941F921FB61F9211248F939F93AF93AC
:10470000BF938091860390918703A0918803B09115
:1047100089030196A11DB11D8093860390938703A1
:10472000A0938803B0938903BF91AF919F918F911C
:104730001F901FBE1F90189581E08093E00080E2DB
:104740008093D8001092C9008FE19EE40197F1F7A1
:1047500000C0000087E090EBDC018093970390930A
:104760009803A0939903B0939A0388E19CE00FB655
:10477000F894A895809360000FBE90936000FFCFDF
:1047800088E19CE00FB6F894A895809360000FBE76
:1047900090936000FFCF80913B0308959B01BA0185
:1047A00090918E039430E9F48F708093E9009FEF2D
:1047B0008091E800915085FD06C085ED8A95F1F75E
:1047C00000009111F5CF8091E80085FF0AC050E00C
:1047D00040E0C9010E94D8258091E8008E7780933F
:1047E000E800089543E050E0BC0182E00E94CE233F
:1047F000089546E050E0BC0182E00E94CE23089577
:10480000CF93DF93EC0180912901811111C048E021
:1048100050E0BE0181E00E94CE2380E2FE01ABE1C8
:10482000B3E001900D928A95E1F7DF91CF91089561
:1048300080913D0387FF05C040E282E050E0BE0169
:10484000EACF48E081E0FACF80918D03811109C061
:104850000E9468270E94C5278091E20084608093AF
:10486000E200089510928D0308950E94C2220895D7
:1048700060918A0381E0611101C080E00E94B92249
:10488000089590918E0381E0943009F080E060916A
:104890008A030E94BF22089542E061EC81E00E94F9
:1048A000E42642E261EC82E00E94E42690918E03CD
:1048B00081E0943009F080E060918A030E94AF2289
:1048C000089580919003833009F461C030F4813001
:1048D000D1F1823009F49EC008958A3009F48AC06B
:1048E0008B3009F46FC0893009F050C080918F037C
:1048F000813209F04BC08091930390919403029709
:1049000008F044C08091E800877F8093E8008091A0
:10491000E80082FF37C09091F3008091F200029787
:1049200031F48091F100813011F0863021F48091D2
:10493000F10080933B038091E8008B778093E8003F
:104940000E94182723C080918F03813AF9F4809147
:10495000E800877F8093E80080919303909194030F
:10496000892B61F460E28BE193E070E00E942726DE
:104970008091E8008B778093E800089560E090E0F4
:1049800080E0F3CF80918E038111C1CF0895809193
:104990008F03813AD9F78091930390919403892BE7
:1049A000A9F78091E800877F8093E8008091E80074
:1049B00080FFFCCF809129018093F1008091E80075
:1049C0008E77BCCF80918F03813201F78091930362
:1049D00090919403892BD1F68091E800877F809392
:1049E000E8000E94182780919103809329010E947A
:1049F0000908089580918F03813241F68091E80083
:104A0000877F8093E8000E9418278091920380930B
:104A10003C03089580918F03813A09F0B7CF8091CC
:104A2000E800877F8093E8008091E80080FFFCCF5A
:104A300080913C03C1CF84B7877F84BF0FB6F894C1
:104A4000A89580916000886180936000109260005A
:104A50000FBE80E890E00FB6F894809361009093C9
:104A600061000FBE0E94C82208950E9468270E941C
:104A7000C527E2EEF0E080818460808378940E9414
:104A8000442A089581E291E00E943821089580919E
:104A90008E03853031F480918E03853019F00E94A9
:104AA000432308950E94182380918C03882399F34F
:104AB0000E94D522882379F30E94C2250E9409080A
:104AC000EACF08959A0140919503509196030E9470
:104AD0006A250895492F55274330510519F168F487
:104AE0004130510509F444C04230510509F445C034
:104AF00090E080E050E040E025C04132510549F1AE
:104B000042325105A9F784E490E04FE356E0611585
:104B10007105C1F086EB90E049E855E06130710520
:104B200089F0E6CF99278130910581F0009729F02F
:104B30000297F1F6EEE1F5E002C0E8E3F5E08491DA
:104B400090E0AF01F901518340830895ECE2F5E074
:104B5000F6CF89E090E04EE455E06115710591F3E0
:104B600089E090E047E655E06130710559F3C0CF28
:104B700082E190E047E755E0E5CF8BE390E04CE33E
:104B800055E0E0CF80E189BD82E189BD09B400FE36
:104B9000FDCF8091D8008F7D8093D8008091E00078
:104BA00082608093E0008091E00081FDFCCF089559
:104BB000AF92BF92CF92DF92FF920F931F93CF934A
:104BC000DF936C01EB018A010E943727F82E8111D7
:104BD00023C00115110539F0F80180819181C81BAE
:104BE000D90BC80ED91EB12CA12C2097A9F0809109
:104BF000E80085FD22C08091E8008E778093E80070
:104C000001151105A1F0F80180819181A80EB91E4E
:104C1000B182A08285E0F82E8F2DDF91CF911F9178
:104C20000F91FF90DF90CF90BF90AF9008950E94BA
:104C300037278823D1F2F82EEFCFF60181916F014B
:104C40008093F1002197FFEFAF1ABF0ACECFFC018E
:104C5000809195039091960386179707A0F06115B0
:104C6000710529F49091E8009E779093E80090E018
:104C70006115710551F4911108C08091E80082FF1F
:104C800034C080E00895BC01F2CF80918E03882368
:104C9000C1F18530C1F18091E80083FD30C0809181
:104CA000E80082FDEACF8091E80080FFE1CF8091AB
:104CB000F3002091F200382F6115710519F02830AA
:104CC000310558F091E02830310509F090E020914D
:104CD000E8002E772093E800CBCF81918093F100FC
:104CE000615071092F5F3F4FE7CF80918E0388237A
:104CF00041F0853041F08091E80083FFBECF81E034
:104D0000089582E0089583E00895FC018091950361
:104D10009091960386179707A0F06115710529F405
:104D20008091E8008E778093E80090E0611571052E
:104D300051F4911108C08091E80082FF35C080E0F5
:104D40000895BC01F2CF80918E038823C9F185308C
:104D5000C9F18091E80083FD31C08091E80082FDB7
:104D6000EACF8091E80080FFE1CF8091F3002091AD
:104D7000F200382F6115710519F02830310558F00F
:104D800091E02830310509F090E08091E8008E77BD
:104D90008093E800CBCF84918093F10031966150ED
:104DA00071092F5F3F4FE6CF80918E03882341F03A
:104DB000853041F08091E80083FFBDCF81E0089508
:104DC00082E0089583E00895982F973028F08F703F
:104DD0008093E90081E008959093E900242F762FD5
:104DE00050E0981731F07091EC002091ED00509157
:104DF000F00021FD02C09F5FE8CF3091EB003E7FC5
:104E00003093EB003091ED003D7F3093ED00309119
:104E1000EB0031603093EB007093EC002093ED00D9
:104E20005093F0002091EE0027FDE5CF80E008953B
:104E300080918F0387FF13C08091E80082FF06C036
:104E40008091E8008B778093E80004C080918E0306
:104E50008111F2CF089580918E038823D9F3809138
:104E6000E80080FFF8CF8091E8008E77ECCF2091AA
:104E7000E4003091E50095E6A9012091EC00822F35
:104E8000817020FF06C08091E80080FF06C080E0AE
:104E900008952091E80022FD1AC080918E03882396
:104EA00089F0853089F08091EB0085FD0FC020915D
:104EB000E4003091E50042175307F9F29150E1F612
:104EC00084E0089582E0089583E0089581E00895E4
:104ED0000E94D7270E94DF27E0EEF0E0808181600A
:104EE0008083E8EDF0E080818F77808319BCA7EDA7
:104EF000B0E08C918E7F8C9380818F7E8083109226
:104F00008D0308950F931F93CF93DF930E94D727AC
:104F10000E94DF27C8EDD0E088818F778883888161
:104F20008068888388818F7D888319BC10928E0366
:104F300010928A0310928C0310928B0300EE10E003
:104F4000F80180818B7F808388818160888342E043
:104F500060E080E00E94E426E1EEF0E080818E7F58
:104F60008083E2EEF0E080818160808380818860D0
:104F70008083F80180818E7F80838881806188832F
:104F8000DF91CF911F910F910895E8EDF0E08081BE
:104F90008F7E8083E7EDF0E080818160808384E014
:104FA00082BF81E080938D030E9482270895E8EDFF
:104FB000F0E080818E7F80831092E200089510924D
:104FC000DA001092E10008951F920F920FB60F922F
:104FD00011242F933F934F935F936F937F938F93FE
:104FE0009F93AF93BF93EF93FF938091E10082FF74
:104FF0000BC08091E20082FF07C08091E1008B7FAF
:105000008093E1000E94432A8091DA0080FF19C05A
:105010008091D80080FF15C08091DA008E7F809348
:10502000DA008091D90080FF96C080E189BD82E1DD
:1050300089BD09B400FEFDCF81E080938E030E94FC
:1050400024248091E10080FF19C08091E20080FF5C
:1050500015C08091E2008E7F8093E2008091E20093
:1050600080618093E2008091D80080628093D800B4
:1050700019BC85E080938E030E9438248091E10062
:1050800084FF2BC08091E20084FF27C080E189BDAE
:1050900082E189BD89B5982F917080FFFBCF809107
:1050A000D8008F7D8093D8008091E1008F7E80931F
:1050B000E1008091E2008F7E8093E2008091E20027
:1050C00081608093E20080918A03882309F449C0BB
:1050D00084E080938E030E9441248091E10083FF4D
:1050E00029C08091E20083FF25C08091E100877F85
:1050F0008093E10082E080938E0310928A03809176
:10510000E1008E7F8093E1008091E2008E7F8093AA
:10511000E2008091E20080618093E20042E060E082
:1051200080E00E94E4268091F00088608093F00087
:105130000E943524FF91EF91BF91AF919F918F9184
:105140007F916F915F914F913F912F910F900FBE83
:105150000F901F90189519BC10928E030E94322454
:1051600070CF8091E30087FD93E090938E03B3CFDF
:105170001F920F920FB60F9211242F933F934F93CC
:105180005F936F937F938F939F93AF93BF93CF93CF
:10519000DF93EF93FF93D091E900DF708091EC00F3
:1051A000C82FC17080FDC0E81092E9008091F00026
:1051B000877F8093F00078940E94FC281092E90089
:1051C0008091F00088608093F000CD2BCF70C09369
:1051D000E900FF91EF91DF91CF91BF91AF919F9146
:1051E0008F917F916F915F914F913F912F910F9090
:1051F0000FBE0F901F901895AAE2B0E0E2E0F9E22E
:105200000C94192B8FE893E02091F100FC0121937D
:10521000CF01F3E087399F07B9F70E94612480919D
:10522000E80083FF1EC180918F03909190039A3014
:1052300008F017C1E92FF0E0E754F34D0C94D32A9E
:10524000803899F0823809F00CC1809193038F70F7
:10525000873008F006C18093E9008091EB0085FB60
:10526000882780F91092E90006C080918B03909105
:105270008C03911182609091E800977F9093E800F1
:105280008093F1001092F1008091E8008E77E5C0E4
:10529000882309F4D3C0823009F0E3C080919103E0
:1052A0008111D6C0809193038F702FEF280F263085
:1052B00008F0D7C08093E9002091EB0020FFC8C020
:1052C000933031F48091EB0080628093EB00C0C09A
:1052D0009091EB0090619093EB0021E030E001C0F1
:1052E000220F8A95EAF72093EA001092EA00809153
:1052F000EB008860EACF8111B4C0109191031F7751
:105300008091E3008078812B8093E3008091E80016
:10531000877F8093E8000E9418278091E80080FF33
:10532000FCCF8091E30080688093E30082E011115C
:1053300083E080938E0395C08058823008F091C03E
:1053400080919103909192038C3D23E09207A1F507
:1053500083E08A838AE289834FB7F894DE0113964B
:1053600020E03EE051E2E32FF0E050935700E4915B
:1053700020FF03C0E295EF703F5FEF708E2F90E04B
:10538000EA30C0F0C7968D939D932F5F243159F773
:105390004FBF8091E800877F8093E8006AE270E069
:1053A000CE0101960E9427268091E8008B7780939A
:1053B000E80057C0C096E7CF6091930370919403C3
:1053C000AE014F5F5F4F0E946225BC01892B09F43B
:1053D00048C09091E800977F9093E80089819A8176
:1053E0000E948526E1CF8038E1F58091E800877F33
:1053F0008093E80080918A038093F10045CF81116A
:1054000030C090919103923060F58091E800877FE1
:105410008093E80090938A030E94182780918A0362
:10542000882311F084E005C08091E30087FDFACF66
:1054300081E080938E030E944C2413C080919103DD
:10544000813079F481E0933009F080E080938C031F
:105450001092E9008091E800877F8093E8000E9425
:1054600018278091E80083FF0AC08091E800877FB9
:105470008093E8008091EB0080628093EB00AA9615
:10548000E3E00C94352B0895CF9380918E0388230D
:10549000A1F0C091E900CF709091EC00892F81704C
:1054A00090FD80E8C82B1092E9008091E80083FD10
:1054B0000E94FC28CF70C093E900CF910895DB01D2
:1054C0008F939F930E94F72ABF91AF91A29F800D67
:1054D000911DA39F900DB29F900D11240895991BCB
:1054E00079E004C0991F961708F0961B881F7A95DB
:1054F000C9F78095089587FB082E062687FD8195BC
:1055000067FD61950E946F2A0EF4919507FC8195C5
:105510000895AA1BBB1B51E107C0AA1FBB1FA617FA
:10552000B70710F0A61BB70B881F991F5A95A9F74C
:1055300080959095BC01CD01089597FB072E16F438
:10554000009407D077FD09D00E94892A07FC05D076
:105550003EF4909581959F4F0895709561957F4F8A
:105560000895A1E21A2EAA1BBB1BFD010DC0AA1FA4
:10557000BB1FEE1FFF1FA217B307E407F50720F0BC
:10558000A21BB30BE40BF50B661F771F881F991F37
:105590001A9469F760957095809590959B01AC0180
:1055A000BD01CF010895EE0FFF1F0590F491E02D8E
:1055B00009940E94E12A332312F48A1B9B0B0C945A
:1055C000F22AA29FB001B39FC001A39F700D811D5D
:1055D0001124911DB29F700D811D1124911D0895FC
:1055E0000E94E12AB7FF0895821B930B08950E9441
:1055F000E12AA59F900DB49F900DA49F800D911D51
:1056000011240895B7FF0C94F72A0E94F72A821BF1
:10561000930B08952F923F924F925F926F927F92D9
:105620008F929F92AF92BF92CF92DF92EF92FF92B2
:105630000F931F93CF93DF93CDB7DEB7CA1BDB0B5E
:105640000FB6F894DEBF0FBECDBF09942A88398803
:1056500048885F846E847D848C849B84AA84B9840A
:10566000C884DF80EE80FD800C811B81AA81B98116
:10567000CE0FD11D0FB6F894DEBF0FBECDBFED012A
:105680000895002E083090F0982F872F762F652FE1
:10569000542F432F322F22270850F4CF220F331FCD
:1056A000441F551F661F771F881F991F0A95B2F761
:1056B000002D089597FD1094002E083098F00850A2
:1056C000232F342F452F562F672F782F892F912D79
:1056D000F4CF159497958795779567955795479546
:1056E000379527950A95AAF71124002D08958F92D2
:1056F0009F92AF92BF92CF92DF92EF92FF92CF93A1
:10570000DF93EC01688179818A819B816115710544
:105710008105910521F464E279ED8BE597E02DE1B7
:1057200033EF41E050E00E944E2C49015A019B01A9
:10573000AC01A7EAB1E40E94F72A6B017C01ACEE50
:10574000B4EFA50194010E94052BDC01CB018C0D67
:105750009D1DAE1DBF1DB7FF03C00197A109B04835
:1057600088839983AA83BB839F77DF91CF91FF9032
:10577000EF90DF90CF90BF90AF909F908F90089563
:105780000E94772B089580E091E00E94772B089586
:10579000B0E0A0E08093000190930101A09302018A
:1057A000B09303010895FC014150504030F0019046
:1057B0000616D1F73197CF010895882799270895C4
:1057C000FB01DC0104C08D910190801921F441504E
:1057D0005040C8F7881B990B0895FB01DC0102C0FB
:1057E00001900D9241505040D8F70895F999FECF9D
:1057F00092BD81BDF89A992780B50895A6E1B0E0E1
:1058000044E050E00C94402CA8E1B0E042E050E0CD
:105810000C94402CDC01A40FB51F4150504048F0BF
:10582000CB01840F951F2E910E941B2C415050409C
:10583000D0F70895262FF999FECF92BD81BDF89A31
:10584000019700B4021639F01FBA20BD0FB6F894C4
:10585000FA9AF99A0FBE08950396272F0E941B2CDF
:105860000E941A2C252F0E941B2C242F0C941B2CD9
:105870000196272F0E941B2C0C941A2CDC01CB01C3
:10588000FC01F999FECF06C0F2BDE1BDF89A319650
:1058900000B40D9241505040B8F70895052E97FB83
:1058A0001EF400940E94652C57FD07D00E94B12A77
:1058B00007FC03D04EF40C94652C50954095309520
:1058C00021953F4F4F4F5F4F08959095809570956C
:1058D00061957F4F8F4F9F4F0895F894FFCF020639
:1058E000020652065206B706D30631063106D8061E
:1058F000490758075807371D3E1D451D4A1D4F1DB6
:10590000541D591D5E1D631D681D6D1D721D761D84
:105910007B1D7E1D811D841D871D891D8C1D8E1D77
:10592000E21F5620EA1FB41FB81FEE1FBC1FF21F54
:10593000FE1FC81F4F20CC1F0220D01F06202E2084
:10594000D41F0A203520DA1F10201820C01FF61F90
:10595000C41FFA1FDE1F142024203E204D20AE1F3E
:10596000E61F5D201121172100210B211D2123217C
:10597000292120294829312A4829312A7B299C2993
:06598000312AF329FF2982
:10598600010000007402280850011E0A14010101DA
:1059960002000E000E0E01191A1B1C1D1E1F2021CF
:1059A60022CB230024F923F22301E200E900EA00D6
:1059B600B500B600B700CD008301CC008A01920184
:1059C60094012102230224022502260227022A022A
:1059D600B300B4006F0070009F01CB019F02A002CC
:1059E600818283E200E900EA00B500B600B700CD87
:1059F600008301CC008A0192019401210223022432
:105A0600022502260227022A02B300B4006F0070A4
:105A1600009F01CB019F02A0028182839091929305
:105A26009594969734F7F6F5F4F1F0303132333732
:105A36000001020202020606060909090909090F00
:105A46000F0F0F0F0F1515151819191919191919FF
:0C5A5600191919232425252525252500D4
:00000001FF
