:100000000C943E030C9476030C9476030C947603C4
:100010000C9476030C9476030C9476030C9476037C
:100020000C9476030C9476030C9411270C94E5271A
:100030000C94E2210C9476030C9476030C947603D2
:100040000C9476030C9476030C9476030C9476034C
:100050000C9476030C9469220C9476030C9476032A
:100060000C9476030C9476030C9476030C9476032C
:100070000C9476030C9476030C9476030C9476031C
:100080000C9476030C9476030C9476030C9476030C
:100090000C9476030C9476030C9476030C947603FC
:1000A0000C9476030C9476030C94760335001E00B2
:1000B0001F0020002100220023002400250026002C
:1000C00027002D002E00290046002B0014001A00E6
:1000D0000800150017001C0018000C001200130087
:1000E0002F00300031000351394104001600070091
:1000F00009000A000B000D000E000F003300340051
:1001000000002800145CE10000001D001B00060038
:100110001900050011001000360037003800E50016
:1001200052000000E0000000E200000000000000BB
:100130002C000000E3002A00E442500051004F0070
:10014000C35C01003A003B003C003D003E003F0024
:10015000400041004200430044004500010001000E
:100160000100010001000100010001000100010087
:100170000100010001000100010001000100010077
:100180004E004B004C00490001000100500051009E
:1001900052004F00010000000100010001000000BA
:1001A0000100010001000100010001000100010047
:1001B0000100010001000100000001000000010039
:1001C000000000000000010000000100010001002B
:1001D0000100010001000100680069006A006B0075
:1001E0006C006D006E006F00700071007200730093
:1001F00000000000000000000000000000000000FF
:1002000000000000000049000000000000000000A5
:10021000000001000000000000004C000000000091
:100220004A004E004B004D0000000000000000009E
:1002300001000000000000000000000000000000BD
:1002400000000000000000000000000000000000AE
:10025000000000000000000000000000000000009E
:10026000000000000100000000000000010000008C
:10027000000000000000000000000000000000007E
:10028000000000000000000000000100000000006D
:100290000000005CC35C00000000000000000000E3
:1002A000000000000000000001000000C45CC65C0B
:1002B000C85CCA5CCC5CCE5CCF5CD05CD15CD25CF0
:1002C000D35C00000000010000000000C55CC75CBA
:1002D000C95CCB5CCD5CD45CD55CD65C0000000016
:1002E000000000000000000000000000000000000E
:1002F00000000000000000000000000000000000FE
:100300000000010000047F3F1F643214643214783F
:100310003C1E1E140A052223252628292A2C2D2FAF
:100320003032333536383A3B3D3E4042434547490B
:100330004A4C4E5051535557595A5C5E6062646640
:1003400068696B6D6F71737577797B7D7F8183854C
:1003500087898A8C8E90929496989A9C9E9FA1A34E
:10036000A5A7A8AAACAEAFB1B3B4B6B8B9BBBCBE72
:10037000BFC1C2C3C5C6C7C9CACBCCCDCED0D1D2EE
:10038000D2D3D4D5D6D7D7D8D9D9DADADBDBDBDCF0
:10039000DCDCDCDCDDDDDDDDDCDCDCDCDCDBDBDB9C
:1003A000DADAD9D9D8D7D7D6D5D4D3D2D2D1D0CEFC
:1003B000CDCCCBCAC9C7C6C5C3C2C1BFBEBCBBB901
:1003C000B8B6B4B3B1AFAEACAAA8A7A5A3A19F9E7F
:1003D0009C9A98969492908E8C8A89878583817F47
:1003E0007D7B79777573716F6D6B69686664626028
:1003F0005E5C5A5957555351504E4C4A49474543F4
:1004000042403E3D3B3A3836353332302F2D2C2A90
:10041000292826252322FFAA7F554000010101013A
:1004200001010101010202020202020202020303AF
:10043000030303030303040404040404040505057F
:100440000505060606060607070707070808080841
:10045000090909090A0A0A0B0B0B0C0C0C0D0D0DEE
:100460000E0E0E0F0F0F1010111111121213131484
:1004700014151516161717181819191A1A1B1B1CFC
:100480001D1D1E1E1F202021222223242425262656
:10049000272829292A2B2C2D2D2E2F30313232338B
:1004A0003435363738393A3B3C3D3E3F4041424394
:1004B0004445464748494A4C4D4E4F505153545578
:1004C0005658595A5B5D5E5F616264656668696B28
:1004D0006C6D6F7072737577787A7B7D7E808283A6
:1004E0008587888A8C8E8F91939596989A9C9EA0EA
:1004F000A2A3A5A7A9ABADAFB1B3B5B7BABCBEC0F7
:10050000C2C4C6C9CBCDCFD1D4D6D8DBDDDFE2E4BF
:10051000E7E9EBEEF0F3F5F8FAFDFF0C03570049BD
:10052000004E004700530000000A0359004D0044EC
:10053000004B0000000403090409023B0002010013
:10054000A0FA0904000001030101000921110100C2
:100550000122400007058103080001090401000190
:100560000300000009211101000122B600070582E5
:100570000320000112010002000000084D597529F6
:1005800001000102000105010902A1018502090122
:10059000A100050919012908150025019508750113
:1005A00081020501093009311581257F9502750801
:1005B000810609381581257F950175088106050C8E
:1005C0000A38021581257F950175088106C0C0058E
:1005D000010980A101850319012AB700150126B779
:1005E00000950175108100C0050C0901A101850469
:1005F00019012AA002150126A0029501751081009B
:10060000C005010906A1018506050719E029E715BE
:100610000025019508750181020507190029EF15CC
:1006200000250195F075018102050819012905953C
:100630000575019102950175039101C00501090637
:10064000A101050719E029E71500250195087501A5
:1006500081029501750881010507190029FF150020
:1006600026FF0095067508810005081901290595E2
:100670000575019102950175039101C011241FBEFA
:10068000CFEFDAE0DEBFCDBF04B603FE18C0809125
:10069000310390913203A0913303B091340387303A
:1006A000904BA740B04B59F4109231031092320393
:1006B0001092330310923403E0E0F8E3099511E05F
:1006C000A0E0B1E0E2EEF5E502C005900D92A63C97
:1006D000B107D9F723E0A6ECB1E001C01D92A13328
:1006E000B207E1F70E947C120C94D92A0C94000006
:1006F00081E0089581E008950E947A0308950895A5
:100700000E947F030895A5E0B0E0E9E8F3E00C94CF
:100710003A2A49835A833091CD0189819A813111D6
:1007200019C0662399F0222389F00E942B09182F03
:10073000682F89819A810E94070969817A81812FB6
:100740000E94B40F2596E3E00C94562A0E941909E2
:10075000182FF3CF0E942B0969817A81F1CFFC0118
:10076000262F408151816281738184810E9483039D
:10077000089581E00895CF93DF93EC0160E00E943B
:10078000AF03BE010E948003DF91CF9108950E94C4
:10079000F71008950E94FB10089508950E94D20753
:1007A0000E94CD032FEF84E39CE0215080409040D5
:1007B000E1F700C0000008950E94CE030E948D2240
:1007C00008950E94CE030E94B12208950F931F93B3
:1007D000CF93DF938C0161E00E94AF03EC01B8017D
:1007E0000E947C03811106C080E0DF91CF911F91B0
:1007F0000F910895B801CE010E94FE1C8823A1F339
:10080000B801CE010E941320882371F3B801CE01F4
:100810000E94171E882341F3B801CE010E94851F54
:10082000882311F3B801CE010E944E1B8823E1F208
:10083000F8018281882361F0CB35FDE5DF0701F106
:1008400058F4C115ECE5DE0791F0CF3DDC4591F0A1
:10085000C8010E947803C9CFCD358DE5D80769F06E
:1008600090F0C83ADD45A1F70E94E103BDCF0E9498
:10087000DC03BACF0E94E50DF7CF0E94230DE8CF2D
:100880000E942D0DE5CF0E94310DE2CF0E94BE21C6
:1008900080E00E94331D0E9478040E94C4190895CC
:1008A0000E942A1C0E947C040E949B1A0E94C32161
:1008B000089508950E945904089581E00895CF9302
:1008C000C82F0E945D04882319F0C1FD03C0479A18
:1008D000CF9108954798FCCF3F9A479A0895CF93B8
:1008E000C82F0E945A048C2F0E945F04CF91089554
:1008F00080E00E946F0408950E946F200E946F04A0
:100900000895CF930E946F20C82F8091C8018C1743
:1009100079F0C093C8010E944E226093C901709380
:10092000CA018093CB019093CC018C2F0E946F045D
:10093000CF910895ABE0B0E0E0EAF4E00C943B2AFC
:100940004F83588769877A878B8761110E946E0C65
:100950001E821D8285E0FE013796DE011196019010
:100960000D928A95E1F78C819D81892B61F44981F3
:100970005A816B817C818D819E810E94970B2B9681
:10098000E2E00C94572A89819A8189238F3F79F379
:10099000CE0101960E94B9038111E9CFF0CFFC018D
:1009A000808191810E945D090895CF93C82F88238B
:1009B000B9F08CEF8C0F813AA8F46C2F8091000174
:1009C000909101010E94E420882329F08C2F0E943D
:1009D0002E0C0E948F0C8C2F0E94260C0E948F0CD4
:1009E000CF91089580E28C0F883048F4C77081E081
:1009F00001C0880FCA95EAF70E94510CEFCFEBE5D2
:100A0000EC0FE33040F4F0E0E85AFE4F808190E0D4
:100A10000E94A420E5CFE8E5EC0FE73150F4F0E0C8
:100A2000EE0FFF1FE65DFE4F808191810E94BA208C
:100A3000D7CFCD3EA8F28C2F0E9400130E94D31373
:100A4000CFCF882379F19CEF980F913A28F40E9438
:100A50002E0C0E948F0C089590E2980F983050F45D
:100A6000877091E001C0990F8A95EAF7892F0E945B
:100A7000570CEFCF9BE5980F933028F490E080E07F
:100A80000E94A420089598E5980F973128F490E0EB
:100A900080E00E94BA2008958D3E20F00E945A13F3
:100AA0000E94D31308951F93CF93DF93182FEB0168
:100AB0000E94D504209739F4812F0E942105DF91EF
:100AC000CF911F9108958FE99FE00197F1F700C042
:100AD00000002197EFCF70E060E0893311F460E50A
:100AE00070E00E9453050895882321F00E94510C64
:100AF0000E948F0C0895882321F00E94570C0E94B9
:100B00008F0C0895B0E0A0E0E8E8F5E00C94342AFA
:100B10006C01D62FC72FFC011281F580F2949FE063
:100B2000F9220E94470CE82E8823B9F0E12E112308
:100B3000A1F08C2F807F803421F080E28D0F8830EF
:100B4000D0F08091DB0282FF16C082E00E94F20C9E
:100B50000E94470C91E0E82EE926BC2EB2948FE06B
:100B6000B822FBE0FB1508F468C0EB2DF0E0E5527D
:100B7000F54D0C94F429E12CF0CF0C2F0F70C07FB1
:100B800011F00295007F112399F0002359F080E2C3
:100B90008D0F883010F0D11107C0802F0E94510CAA
:100BA0000E948F0C8D2F41C0802F0E94610CF8CFC6
:100BB0008D2F0E942105002309F43FC080E28D0F94
:100BC000883010F0D11104C0802F0E94570C03C050
:100BD000802F0E94670C0E948F0C2FC00C2F0F706B
:100BE000C07FC03211F00295007FDD2381F0D1304B
:100BF00009F463C0112309F46DC0FF2009F463C038
:100C0000F601858180FFCECF8F7085835CC0809197
:100C1000DB0282FD33C0112359F0002329F0802F1D
:100C20000E94510C0E948F0C80E00E94D50405C0E8
:100C300080E00E9421050111C7CFEB2DE850FF0B8A
:100C4000349720F40E946F200E946F04EE2089F0F8
:100C50000E94430C80FD0DC0F60112820E943D0CE3
:100C60000E946508C6010E9492070E943D0C0E94E6
:100C70007508CDB7DEB7E9E00C94502A112389F04E
:100C8000F11006C00E94710C802B0E947405D5CF14
:100C900021E0F212F7CF0E94710C802B0E94780C99
:100CA000CCCFF11006C00E94850C802F0E947B05DE
:100CB000C4CF31E0F31609F2F6CF112331F085E00D
:100CC0008F1508F4BACF802FE0CF94E09F1508F479
:100CD000B4CFEBCFFF2049F3D93349F4FFEF27EE30
:100CE00033E0F15020403040E1F700C000008D2F8C
:100CF0000E942105A2CF8C2F86958695837069F07E
:100D0000813009F09ACF8D2F9C2F9370111102C062
:100D100090E080E00E94BA2090CF8D2F9C2F93709E
:100D2000111102C090E080E00E94A42086CF8D2F98
:100D3000112329F00E9400130E94D3137ECF0E943A
:100D40005A13FACF8C2F8370A1F5111176CF4D2F46
:100D5000429546954770440F440F2D2F2F7030E079
:100D6000042E02C0220F331F0A94E2F790E080E0C5
:100D7000D4FF09C08FE090E002C0880F991F4A9508
:100D8000E2F780959095C695C695C370822B932BFC
:100D9000C23049F058F4C13019F00E9433084DCFE9
:100DA0000E942A084ACF0E943C0847CF0E94270889
:100DB00044CF8695112311F08C2F8170882309F47C
:100DC0003CCF4D2F429546954770440F440F2D2F31
:100DD0002F7030E0042E02C0220F331F0A94E2F776
:100DE00090E080E0D4FF09C08FE090E002C0880F5F
:100DF000991F4A95E2F780959095C695C695C37060
:100E0000822B932BC23049F058F4C13019F00E9464
:100E1000A00813CF0E94970810CF0E94A9080DCFF9
:100E20000E944B080ACFCF70112329F08C2F0E940B
:100E300065088D2F2ACF8D2F0E947B058C2F0E9455
:100E40007508FBCED23F51F160F4D03FB9F0D13FED
:100E500081F0112309F449C0F110A4CE8C2F8F71B9
:100E600021C0D33F11F1D43FA1F78091DB0282FD75
:100E700026C08C2F8F71112311F314C0112349F058
:100E800084E08F1508F4D9CE8C2F8F710E948708CB
:100E9000D4CE95E09F1508F4D0CEF6CF8C2F8F716D
:100EA0001111CDCF0E946508C8CE112329F08C2FD7
:100EB0008F710E945908C1CE0E945408BECE1123E2
:100EC00049F0CF718C2F0E94650863E08C2F0E943F
:100ED000D40CB3CE81E00E94F20CE1E0EF1508F0F3
:100EE000ACCE82E00E94F20CA8CEF110F5CE8C2F91
:100EF0008F71A5CF0F931F93CF93DF93EC01688180
:100F000079818A810E9468098C010E94B2080E943E
:100F10002608B801CE010E948205DF91CF911F9172
:100F20000F910895CF93DF93EC018B819C81892BE6
:100F300029F08881998189238F3F51F4DF91CF91E6
:100F40000895CE010E947A07CE010E94BB03F6CF1E
:100F5000CE010E94E6038111F4CF0E94470C882342
:100F600069F38A81882351F38091DB0282FFE6CF07
:100F700082E00E94F20CE2CF90E080E00E94A42088
:100F800090E080E00E94BA200E946E0C0E948F0CBC
:100F90000E94EF130E94D31308950E94360C0E9402
:100FA000BC0708950E945E0C0E94CD07089592959B
:100FB0009F70963091F058F4925F9F70923058F481
:100FC000803F19F030F4883E30F481E008959A5F54
:100FD000F4CF843FD1F380E00895883EB0F3813FA1
:100FE000D1F7F3CFFC0183819481892B29F0808193
:100FF000918189238F3F11F480E008958081918150
:101000000E945D090E94D7070895A5E0B0E0EBE0DB
:10101000F8E00C943B2A2596E2E00C94572AA6E0CF
:10102000B0E0E5E1F8E00C943B2A2696E2E00C946F
:10103000572A08950E94190808950E941A0890934B
:10104000F9018093F8010E94BC07089508950E9459
:101050001D0808952091F8013091F901822B932BFE
:101060000E941D0808952091F8013091F901822312
:1010700093230E941D0808952091F8013091F901F1
:10108000822793270E941D0808950E941908089539
:101090000E94450808950E9448089093F7018093A4
:1010A000F6010E94BC07089590E080E00E944B0882
:1010B000089521E030E0A90102C0440F551F8A9530
:1010C000E2F7CA010E944B08089521E030E002C017
:1010D000220F331F8A95E2F78091F6019091F70174
:1010E000822B932B0E944B08089521E030E002C030
:1010F000220F331F8A95E2F7209530958091F601F3
:101100009091F701822393230E944B08089521E0D8
:1011100030E002C0220F331F8A95E2F78091F6017A
:101120009091F701822793270E944B080895209100
:10113000F6013091F701822B932B0E944B08089502
:101140002091F6013091F701822393230E944B08EE
:1011500008952091F6013091F701822793270E948C
:101160004B0808950895262F277091E001C0990F2C
:101170002A95EAF723E0769567952A95E1F7660FB9
:10118000771F660F771FFA01E60FF71F50E040E068
:10119000682F70E08191DF0111979B01042E02C03E
:1011A000369527950A94E2F721702195282729235F
:1011B00028272C934F5F5F4F4430510559F708950E
:1011C000A82FA77023E0969587952A95E1F7880FB9
:1011D000991F880F991FFB01E80FF91F50E040E0AD
:1011E00080E0219130E00A2E02C0369527950A94BE
:1011F000E2F721703327042E01C0220F0A94EAF788
:10120000822B4F5F5F4F4430510559F70895262FC9
:10121000953070F48F3060F4682F70E08FE0989F05
:10122000600D711D11244EEC51E0822F0E94B30815
:101230000895292F953068F48F3058F490E06EECC3
:1012400071E03FE0239F800D911D11240E94E00872
:10125000089580E00895B0E0A0E0E1E3F9E00C94A7
:10126000342A7C010091F6011091F7018091F80178
:101270009091F901082B192BCFE0D0E0CC24C39436
:10128000D12CBC2EC6010C2E02C0880F991F0A94C7
:10129000E2F780239123892B49F4219790F7B12C11
:1012A0008B2DCDB7DEB7E9E00C94502AB7018C2F17
:1012B0000E94CF0F019789F3F3CFCF93DF93EC0117
:1012C0000E942B09BE010E94CF0FDF91CF9108959C
:1012D0001F93CF93DF93EB019091CD01992339F0C8
:1012E000CB010E945D09DF91CF911F910895882362
:1012F00069F0CB010E942B09182F682FCE010E94A4
:101300000709BE01812F0E94CF0FEDCFCB010E94B4
:101310001909182FF6CF1F93CF93DF93C091FA01CD
:1013200016E08091FB018C1304C0DF91CF911F91D7
:101330000895D0E01C9FF0011D9FF00D1124E45092
:10134000FE4F4081518162817381848195810E9429
:101350000F082196C770E5CF40912C0250912D02C5
:1013600060912E0270912F02809130029091310293
:101370000E940F0808951F93CF93DF93809131024D
:10138000807F09F049C080912E02882309F444C06F
:101390008091FA01C091FB0160912C0270912D02A5
:1013A000A0912F02B0913002D62FD72316E0C81794
:1013B00099F190E0109711F0DF3F19F401968770D2
:1013C000F6CF189F9001199F300D1124F901E450B8
:1013D000FE4F41814713F2CF40814613EFCF428148
:1013E0004111ECCF438154814A1B5B0B483C5105B2
:1013F00028F7809131028F70806180933102F9016A
:10140000EF5FFD4F80818F70806180838CE292E07E
:101410000E9492070E948B09DF91CF911F9108953E
:10142000A1E1B0E0E6E1FAE00C94332A8C0185E01A
:10143000F801DE011D9601900D928A95E1F7F80101
:10144000E2808CE2C82E82E0D82E60912F0270914B
:1014500030026115710509F44EC190912C02209162
:101460002D02892F82238F3F09F445C1408151818C
:10147000A380B480F0902E02F501E61BF70BFF204D
:1014800009F4EAC080913102382F307FE83CF10541
:1014900008F0A3C031116DC0FE2C251316C09413A3
:1014A00014C0E11012C08F708061809331020E94DD
:1014B000AC09C6010E94920780913102F801858330
:1014C0008F2D6196EAE00C944F2AA114B10429F003
:1014D000842F85238F3F09F027C180E0F82FF1701A
:1014E000DF2E80FF3CC08091FA012091FB0136E0A5
:1014F000821315C04D875E878D859E850E945D098C
:10150000292F22952F702230F0F0243018F59F708B
:10151000F1F0F8019581907FD1F4D12C1EC090E0BC
:10152000389FF001399FF00D1124E450FE4F618186
:10153000651306C06081641303C06281E6120FC0A8
:1015400001968770D5CF9F7011F0882331F3805EAC
:10155000883018F3C8010E949207FD2CB1CFEE200D
:1015600009F4AECF80913102816080933102F12C79
:10157000A7CF251306C0941304C0F801EE2009F488
:1015800087C0C8010E94F207882319F1EE2009F1F3
:1015900080913102803270F020912C0230912D0226
:1015A00038872F831986BB86AA868C87CE0107963B
:1015B0000E94920786E0F801ACE2B2E001900D9241
:1015C0008A95E1F70E94BB090E94AC09FF24F394BD
:1015D00077CFC8010E949207F9CF311113C07A2D3D
:1015E000B98AA88A6E2D89890E9405088CE292E04A
:1015F0000E94920786E0F60111928A95E9F70E940F
:10160000AC09B5CF25130FC094130DC0E1100BC06A
:10161000F8018583C8010E94920786E0F6011192C5
:101620008A95E9F74DCFC8010E94F207882389F215
:10163000EE2079F280913102803208F4BBCF209104
:101640002C0230912D023A8329831B82BD82AC8209
:101650008E83CE010196ACCFE83CF10508F03EC088
:10166000FE2CEE2009F4B5CF25132AC0941328C010
:101670008091310280FD1BC0982F907FC1F0F8014E
:101680008583903F31F0982F907F905F8F70892BEA
:101690008583C8010E94920786E0F801ACE2B2E0BF
:1016A00001900D928A95E1F70E94AC0909CF86E07E
:1016B000F801ACE2B2E001900D928A95E1F700CF1B
:1016C000C8010E94F207811175CF809131028160BB
:1016D00080933102C8010E949207F2CE7A2DB98A16
:1016E000A88A6E2D89890E94050886E0F60111926C
:1016F0008A95E9F7D9CFEE2009F46BCFC8010E9493
:10170000F207F82E882309F464CF86E0F801ACE2F2
:10171000B2E001900D928A95E1F78CE292E00E948E
:10172000CF040E94BB09C0CF81E08E25D7CEACE0AC
:10173000B0E0EDE9FBE00C943A2A4F8358876987C3
:101740007A878B879C87CE0107960E94100A882390
:1017500069F08A859B85892B39F04F815885842FC4
:1017600085238F3F09F06BC016E05FC086E0FE0165
:101770003796DE01119601900D928A95E1F78A85E0
:101780009B85892B89F388859F8189238F3F61F30E
:101790002091FB0130E0C9010196877099274091A3
:1017A000FA014817190671F40E94D2071092FB0142
:1017B0001092FA0186E0ECE2F2E0DF011D928A95D8
:1017C000E9F7D2CF96E0929FD001939FB00D1124FC
:1017D000A450BE4FFE01319601900D929A95E1F70B
:1017E0008093FB010E948B09BFCF819FC001112410
:1017F00084509E4F0E94100A8823E9F0E091FA017C
:101800001E9FF0011124E450FE4F408151816281FE
:101810007381848195810E940F088091FA0190E084
:101820000196877099278093FA018091FA0190912F
:10183000FB018913DACF2C96E3E00C94562A6985D4
:101840007A858B859C850E940F088ECF682F8091AA
:101850000001909101010E9464210895682F8091F8
:101860000001909101010E94722108958091000170
:10187000909101010E9480210895809152028595E6
:10188000859585950895809152028770089590916D
:101890005202977081E009F480E00895809175020A
:1018A000089590917502892B809375020895809513
:1018B0009091750298239093750208951092750285
:1018C000089590917402892B8093740208958095F5
:1018D0009091740298239093740208951092740268
:1018E000089580915302089508950E94740C0895FC
:1018F0009091DB0292FF08C090915302981721F05B
:10190000809353020E94750C08958091530288239E
:1019100029F01092530280E00E94750C0895CF9335
:10192000DF93E0910001F0910101809175028083C5
:10193000E0910001F0910101808190917402892B66
:10194000808390915302992381F0E0910001F091FE
:1019500001018081892B8083809100019091010198
:101960000E94D02081110E94850CC0910001D0916D
:10197000010140E250E062E372E0CE010E947B2A66
:10198000892B59F080E2FE01A2E3B2E001900D92B2
:101990008A95E1F7CE010E947C20DF91CF910895D6
:1019A00008950E94D00C08959091DB0292FF11C01F
:1019B00098E0899F90011124622B609352020E944B
:1019C0006508809152028595859585950E94D10C78
:1019D00008950E94650808951092520280E00E94C6
:1019E000D10C0895909152028095892380935202E0
:1019F000282F277091F4282F082E000C330B9217F4
:101A0000130659F09091DB0292FF07C085958595EA
:101A100085950E9475080E94EC0C08959091DB0258
:101A200092FB222720F9281769F080FB92F9909306
:101A3000DB028091DA029091DB020E945F0D82E06E
:101A40000E94F20C08958091DB0282FB882780F9C6
:101A500091E089270E940E0D089581E00E940E0DED
:101A6000089580E00E940E0D08956FEF7FEF90E0E3
:101A700080E00E94C32A089590E080E00E949F2A9F
:101A800021E0883E9E4F09F020E0822F089582E0F9
:101A900090E00E94912A089583E090E00E94912AAC
:101AA0000895CF9384E090E00E94912AC82F82E2AB
:101AB00090E00E94912A982F8C2FCF910895CF9378
:101AC000C92F682F84E090E00E94A52A6C2F82E243
:101AD00090E00E94A52ACF910895AB01BC018FE050
:101AE00090E00E94B72A0895AB01BC0183E190E029
:101AF0000E94B72A089560E070E0CB010E94740D47
:101B0000089560E070E0CB010E946D0D0E947B0D96
:101B1000089568EE7EEF90E080E00E94C32A60E0C6
:101B200082E090E00E94A52A60E083E090E00E94BD
:101B3000A52A1092F9011092F80160E084E090E08B
:101B40000E94A52A64E082E290E00E94A52A60E05B
:101B500085E090E00E94A52A60E086E090E00E9487
:101B6000A52A6FEF87E090E00E94A52A40E050E0B0
:101B7000BA0188E090E00E94B72A60E08DE090E032
:101B80000E94A52A40E050E0BA0188E190E00E945E
:101B9000B72A60E087E190E00E94A52A40E050E08B
:101BA000BA018CE190E00E94B72A70E060E080E228
:101BB00090E00E94C32A40E050E0BA0188E190E042
:101BC0000E94B72A0E94810D08950E94890D0895F0
:101BD000682F8EE090E00E94A52A08950E944E2270
:101BE00060938602709387028093880290938902A3
:101BF00060938202709383028093840290938502A3
:101C00000895089508950E94020E089508950E946F
:101C1000060E089589EB90E10E9465200E94010E56
:101C20000E94030E089581E008950E94130E089506
:101C3000089508950E94180E0E94190E08950E949A
:101C4000D8100E946C040E94DA1D08950E94392267
:101C50000E94C4110E941F0E0E942A1C0E945F1A3B
:101C60000E94070E0895AAE0B0E0E9E3FEE00C94BC
:101C7000302A0E94DA1128E7822E22E0922E640197
:101C800010E0F601E190F1906F01812F0E94FE10AB
:101C90001F5F153009F449C0E816F90691F38091E9
:101CA0008A0281FD0E9407110E94150E782E10E015
:101CB000812F0E94FE107C01F401A190B1904F0190
:101CC0008A159B0561F100E0CC24C394D12CAE248D
:101CD000BF24C5018C219D21892BC1F07720B1F053
:101CE0000E831F8321E0C7018C219D21892B09F4DC
:101CF00020E028870E9442228160782F9A87898776
:101D00004E815F8168858A850E949A040F5FCC0CA2
:101D1000DD1C0F30F1F6F4013297F182E0821F5F93
:101D2000153031F60E94EE0D22C0E816F90609F0D2
:101D3000B6CF0E9442228C01809176029091770268
:101D400008171907A1F08FEF89838A831B820E94ED
:101D500042228160782F9D838C8349815A816B81D7
:101D60008D810E949A0410937702009376020E945C
:101D7000A51A0E94D91D0E9411140E9481042A965E
:101D8000EDE00C944C2ACF93DF930E94D40FEC012A
:101D9000811521E5920708F042C0811530E59307CF
:101DA00008F09FC0883E910530F5803E910508F00F
:101DB00094C0883A910588F4853A910508F086C068
:101DC0008130910509F489C0009709F486C0049711
:101DD00008F083C0D0E0C0E080C08F3B9105D0F711
:101DE000C85AD0E0CC0FDD1FC55ADE4F0990D8810C
:101DF000C02DD46472C0811540E2940750F4C1151F
:101E000081E0D80708F069C0CD3ED10518F3D06550
:101E100064C081159044F0F2DF70D06A5EC0811515
:101E200035E5930718F5811544E5940708F085C05A
:101E3000C11583E5D80708F06CC0C11522E5D207AB
:101E400008F462C0CE018370992721E030E002C01F
:101E5000220F331F8A95E2F7C695C69580E2C89F88
:101E6000E0011124C22BD32BDC6837C0811539E582
:101E70009307A8F4811548E5940708F063C0C115DD
:101E800086E5D80708F0A6CF8C2F0E947610C82FC1
:101E9000D0E0DC2FCC27CC27DF71D0621EC08115AB
:101EA0002AE5920708F453C090568115904208F035
:101EB00091CF8D2F8F710E94761090E0982F8827F8
:101EC00088279F719C012C2BE901E7CFC55AD0E0F0
:101ED000C757DE4FC881D0E0D064CE01DF91CF91EB
:101EE00008958370992721E030E002C0220F331F4C
:101EF0008A95E2F7C695C69540E2C49FE001112499
:101F0000C22BD32BDD68E9CFDC2FCC27C16FD06A81
:101F1000E4CFCE018370992721E030E002C0220F88
:101F2000331F8A95E2F7C695C69540E2C49FE0014B
:101F30001124C22BD32BDA68D0CFD82FCC27C46F73
:101F4000D06ACBCFD82FCC27C06FD06AC6CF8F70C6
:101F50000E94761034E0D695C7953A95E1F7CF7098
:101F60009C2FEC01D069B9CF972F7530A8F46F3052
:101F700098F470E02FE0929F600D711D1124FB0119
:101F80009BE4899FE00DF11D1124EE0FFF1FE45526
:101F9000FF4F85919491089580E090E008950E940C
:101FA000B40F0E94C30E089582389105B9F1B0F4C0
:101FB0008133910509F47DC048F48932910509F413
:101FC0006DC08A32910509F47BC00895853391056F
:101FD00009F45FC08933910509F10895833E9105A5
:101FE000D9F138F4803E910529F1823E910579F1CD
:101FF0000895863E9105D9F1873E910509F43EC0CA
:10200000843E910541F52091DB0221FF24C080919F
:10201000DA0284FD19C087EE90E008952091DA027B
:10202000237009F05AC02091DB0223FF14C089E21B
:1020300090E008952091DA0220FD38C03091DB0253
:1020400030FF09C024FF43C090E080E00895209154
:10205000DA0222FDF7CF08952091DA0222FD3AC07C
:102060003091DB0230FD39C024FFF5CFEDCF209158
:10207000DA0223FFF0CF24FDE7CFCDCF2091DA02A3
:1020800023FD2EC03091DB0231FFEECF84EE90E0D5
:1020900008952091DA0225FFDECFC9CF2091DA0220
:1020A00025FD21C02091DB0223FFD5CF89E390E0FD
:1020B000D2CF2091DA0226FFCECF8AE290E00895B7
:1020C0002091DA0226FFC7CF81E390E0089583EEE6
:1020D00090E0089582EE90E0089580EE90E00895FB
:1020E00086EE90E0089585E390E008959091DA02FD
:1020F00092FF06C0282F28712830F9F4877F84606A
:1021000093FF06C0282F28712831F1F4877E84615F
:102110002091DB0220FF06C0382F38713830D9F407
:10212000877F816021FF06C0282F28712831D1F4D4
:10213000877E816194FD877E0895282F2471243045
:10214000F9F68B7F8860DCCF282F2471243101F7CA
:102150008B7E8861DDCF382F3171313019F78E7F5A
:102160008860E0CF282F2171213121F78E7E886190
:10217000E1CF80E008950E94350D08950E94DA11A4
:102180002FEF86E791E0215080409040E1F700C0BA
:1021900000000E94DA1180E00E94FE1080FF04C05F
:1021A0000E94BB100E948D2208950E94BE100895C7
:1021B0000E943C0D811102C00E94E50D0E94470D56
:1021C00080938A020E94510D9093DB028093DA0281
:1021D0000E94D5100E944C0D90E00E94270880912B
:1021E000F6019091F7010E944808089508950E9411
:1021F000F610089508950E94FA100895E82FF0E06F
:10220000EE0FFF1FEA51FD4F8081918108950895DF
:1022100080EA8A95F1F7089500C008950E94081198
:102220000895F894E82FE295EF70F0E031A1282F9F
:102230002F7081E090E001C0880F2A95EAF7982F6F
:102240009095932391A392A1892B82A378940895CA
:102250000F931F93CF93DF93CCE8D1E089918F3F09
:1022600011F00E94111181E0CB39D807B9F7CBE901
:10227000D1E000EA11E089918F3F11F00E94111125
:102280000C171D07C1F7DF91CF911F910F91089592
:102290008F929F92BF92CF92DF92EF92FF920F9315
:1022A0001F93CF93DF93D82EE92EF62E8A01C62FE7
:1022B000D0E0C457DE4F28812F3F09F453C0F89473
:1022C000E22FE295EF70F0E031A12F7081E090E015
:1022D00001C0880F2A95EAF7932F982B91A392A11A
:1022E0008095892382A378940E940C118BE9882E13
:1022F00081E0982EED2DFE2DBF01665F7F4FE12C12
:102300006801C094D094D401BD904D018191919108
:10231000AF0142505109BFEFBB1681F12B2D229521
:102320002F7030E0D90190962C9130E0BB2DBF701A
:1023300002C035952795BA95E2F720FD1FC0802B86
:10234000912BDA018D939C93EE24E3946E177F0713
:10235000D1F688818F3F11F00E9411116E2D8F2DC3
:102360000E940E11DF91CF911F910F91FF90EF907E
:10237000DF90CF90BF909F908F9008958C219D21EA
:10238000DA018D939C93E2CF0E9428118AE0E6EE59
:10239000F2E0DF01982F1D929A95E9F7ECEDF2E05B
:1023A000DF011D928A95E9F785E00E942E120E94B6
:1023B000C7030895CF92DF92FF920F931F93CF939D
:1023C000DF93CDB7DEB72A970FB6F894DEBF0FBE06
:1023D000CDBF8E010F5F1F4F8AE0F80111928A95E1
:1023E000E9F7F12CCC24C394D12CA6016F2DC801A0
:1023F0000E944811F394CC0CDD1CFFE0FF12F5CFD6
:102400004AE050E0B8018CED92E00E947B2A21E086
:10241000009709F420E0892B41F08AE0F801ACED47
:10242000B2E001900D928A95E1F745E066EE72E028
:102430008CED92E00E942F12182F0E94CA03812F68
:102440002A960FB6F894DEBF0FBECDBFDF91CF91B5
:102450001F910F91FF90DF90CF9008950895CF9234
:10246000DF92EF92FF921F93CF93DF936C017B017A
:10247000C42F222349F081E080938D020E944222E2
:1024800090938C0280938B0210918D0211110AC0DF
:1024900010E0812FDF91CF911F91FF90EF90DF909F
:1024A000CF90089580918B0290918C020E945A22C5
:1024B000059770F3D0E0CC0FDD1FAE01B601C70168
:1024C0000E947B2A892B41F0AE01B601C7010E9410
:1024D000882A10928D02DDCF10E0FBCF0E94672486
:1024E0000E94260E0E94742408950E9479240E945E
:1024F000330E0E94932408950E94DB210E944D24F4
:102500000E940A0E0E946E120E9475120E941A0EFC
:10251000FBCF8091940280FF0DC06091070170E0B5
:10252000660F771F6038710570F56115710569F1E7
:10253000862F089581FF07C06091070184E0689F9E
:10254000B0011124EFCF6091070182FD0AC0809194
:1025500093028823A9F02091060160910701821758
:1025600010F088E0ECCF869FC001112433E0880F83
:10257000991F3A95E1F7622F70E00E94BE29D2CFF1
:1025800068E070E0D5CF8FE7089581E008958091ED
:10259000940280FF0CC06091030170E0759567950F
:1025A000759567956115710549F1862F089581FF2D
:1025B00006C06091030170E075956795F3CF609157
:1025C000030182FD0BC0909192029923A1F06091CA
:1025D000020180910301961738F0682F70E060388F
:1025E000710500F38FE70895899FC001112470E001
:1025F0000E94BE29F4CF61E070E0D7CF81E008955A
:102600008D3E31F40E94891281958093980208953D
:102610008E3E19F40E948912F8CF8F3E31F40E9449
:1026200089128195809397020895803F19F40E9442
:102630008912F8CF893F29F40E94C712809399022A
:1026400008958A3F21F40E94C7128195F7CF8B3FEE
:1026500031F40E94C712819580939A0208958C3FAD
:1026600019F40E94C712F8CF9FE0980F983070F4C9
:10267000815F990B21E030E001C0220F8A95EAF7D3
:1026800080919602822B8093960208958D3F31F4BB
:102690008091940281608093940208958E3F21F48A
:1026A000809194028260F7CF8F3FB9F780919402B6
:1026B0008460F1CF409197028D3E59F48091980249
:1026C00087FF0DC01092980241110BC01092930227
:1026D00008C08E3E81F48091980218169CF3442322
:1026E00081F08091990290919A02892B09F05AC049
:1026F0001092920208958F3E49F447FFF0CF109256
:102700009702809198028111ECCFE0CF803F19F4BD
:102710001416ACF3E4CF90919902893F29F419166D
:10272000F4F610929902DBCF8A3F19F497FFD7CFC6
:10273000F8CF90919A028B3F29F497FFD0CF109257
:102740009A02CDCF8C3F19F41916CCF3C8CF9FE075
:10275000980F983090F4815F990B21E030E0B90137
:1027600002C0660F771F8A95E2F7CB0180959091A2
:102770009602892380939602B2CF8D3F31F48091E7
:1027800094028E7F80939402AACF8E3F21F4809191
:1027900094028D7FF7CF8F3F09F0A1CF80919402F3
:1027A0008B7FF0CF08950E9442229C019091970266
:1027B00080919802982B21F03093910220939002FF
:1027C0009091990280919A02982B21F030938F0278
:1027D00020938E0285E992E00E949620089586E07B
:1027E000E5E9F2E0DF011D928A95E9F71092930284
:1027F00010929202109294020895FC01828181113C
:102800000EC0838181110BC08481811108C091E0C9
:102810008581811101C090E0892F8170089581E048
:10282000FCCFA6E0B0E0E7E1F4E10C943A2A86E0C0
:10283000E5E9F2E0DE01119601900D928A95E1F74B
:1028400010929702109298021092990210929A0296
:102850008B819C81892B89F08091900290919102CB
:102860000E945A22AC01909193029923C9F1809160
:1028700008018417150608F440C08D819E81892BBC
:1028800091F080918E0290918F020E945A22AC01A9
:1028900090919202992309F471C0809104018417E8
:1028A000150608F479C0BE016F5F7F4F85E992E09D
:1028B0000E949221811105C085E992E00E94FD13DA
:1028C00081110E94D31386E0FE013196A5E9B2E0A2
:1028D00001900D928A95E1F72696E3E00C94562A32
:1028E000209109018AE0289F9001112424173507BF
:1028F00020F69F5F9093930202C09F3FD1F71B8108
:10290000112359F00E9489129FEF11160CF491E0E7
:10291000899F802D1124809397021C81112359F0E7
:102920000E9489129FEF11160CF491E0899F802D6F
:1029300011248093980230919702332309F49DCF9C
:1029400020919802222309F498CF45EB3403C0016B
:102950001124992359F09093970245EB2403900199
:102960001124332339F03093980287CF81E080938C
:102970009702F3CF81E0809398027FCF20910501E9
:102980008AE0289F900111242417350708F08BCF87
:102990009F5F9093920202C09F3FD1F71D81112348
:1029A00059F00E94C7129FEF11160CF491E0899F15
:1029B000802D1124809399021E81112359F00E94C9
:1029C000C7129FEF11160CF491E0899F802D1124FE
:1029D00080939A0230919902332309F464CF2091B5
:1029E0009A02222309F45FCF45EB3403C00111247E
:1029F000992359F09093990245EB240390011124F7
:102A0000332339F030939A024ECF81E080939902BC
:102A1000F3CF81E080939A0246CFEF92FF920F931B
:102A20001F93CF93DF93EB01E82FD1110EC0442306
:102A300021F0F0E0E55EFB4FE4916E2F7E2F8E2FAC
:102A4000CDB7DEB7E6E00C94532A0D2F10E0282F07
:102A500030E0442329F0255E3B4FF901249130E01A
:102A6000F6E0CF9FC0011124EFEFF0E0BF010E941C
:102A7000AA29AB018C2F90E0880F991FA5E5A49F90
:102A8000B001A59F700D1124861B970B982F990FED
:102A9000980FBF01601B710B629FD001639FB00D47
:102AA000729FB00D11248B2F9D9FB0011124672FB1
:102AB0007727EF01C61BD70BBE01629FE001639F22
:102AC000D00D729FD00D11247F01E91AF108E09E0C
:102AD000B001E19E700DF09E700D1124672F7727D5
:102AE000E61BF70BE29F8001E39F100DF29F100D94
:102AF0001124E12F722F4230510599F048F441150D
:102B0000510569F04130510581F0EB2F8D2F07C041
:102B10004430510569F080F046305105B1F76E2F11
:102B20008FCFE22F7B2F812FFACFE22F7D2FF7CF90
:102B3000EB2F822F712FF3CF7B2F822FED2FEFCF33
:102B400041E00E940D15089508950E94A015089572
:102B5000CF93DF93762FE901682F842F0E94A5156C
:102B6000798368838A83DF91CF9108958091F00201
:102B7000982F9E7F29F4817082608093F0020895DF
:102B80008A34E8F381708864F8CF88E090E00E948E
:102B9000992A0895CF92DF92EF92FF926B017C0108
:102BA0000E94B615B701A60188E090E00E94B72AFE
:102BB000FF90EF90DF90CF900895E0EFF2E083E098
:102BC000808311828FEF828383831482608171817D
:102BD000828193810E94CA1508958091F00280FF3E
:102BE00002C08695089580E008959091F402933094
:102BF00018F49F5F9093F402882351F06091F002E3
:102C00007091F1028091F2029091F3020E94CA1534
:102C1000089581E00E94F51508959091F40299239A
:102C200019F091509093F402882351F06091F002D2
:102C30007091F1028091F2029091F3020E94CA1504
:102C4000089581E00E940D16089570E00E94EB1D2A
:102C5000089560910E018091F00280FF0BC0809179
:102C60000D0123E0829FC00111248B509D4F0E94D3
:102C70002516089580910F019091100123E0829F05
:102C8000F0011124EB50FD4F891748F71182108293
:102C900012828F5F3396F8CF9091F00290FF0EC0B2
:102CA00090910F012091100133E0939FF0011124C6
:102CB000EB50FD4F921718F00E942916089581835A
:102CC000608342839F5F3396F5CFA3E0B0E0EBE6ED
:102CD000F6E10C943B2A9091F00290FF0AC09E010D
:102CE0002F5F3F4F0E94A8154B8169818A810E9406
:102CF0004C162396E2E00C94572ACF93DF93EC0115
:102D0000EC81F0E0EA5EFC4F4491E0EFF2E062819A
:102D100081810E9465168C818F5F8C83DF91CF91BA
:102D20000895CF93DF93EC01E0EFF2E043816281FD
:102D30008C810E9465168C818F5F8C83DF91CF918F
:102D40000895A3E0B0E0E7EAF6E10C94392A8C019B
:102D500080919B0281110AC09E012F5F3F4F4FEF70
:102D60006FEF0E94A8158A8180939B02F80164810D
:102D7000613069F080919B0240E0662361F040E0A1
:102D8000623011F440919B0280E060E004C06091E9
:102D90009B0240E080E00E944C16F801848190E0A4
:102DA000019663E070E00E94BE2984832396E4E0EC
:102DB0000C94552AA3E0B0E0E0EEF6E10C94342A3E
:102DC000082FD62EE42EC22E9091F00290FF29C03B
:102DD000E92FE695AE2FB0E0A056BE4F8C918093C0
:102DE000A7029E7F923009F59E012F5F3F4F802FF3
:102DF0000E94A8154B8169818A810E944C1600931C
:102E0000F102D092F202E092F302CC2051F06091F4
:102E1000F0027091F1028091F2029091F3020E940F
:102E2000CA152396E9E00C94502A823019F4E090F8
:102E3000F302E5CF863019F40091F102E0CF89303A
:102E4000D9F38931E1F6E9516E2F6170B62EE6951E
:102E5000F0E0EA5EFB4F1491F12C60911101F6163F
:102E600018F00E942916CBCFF19EC001112470E00A
:102E70000E94AA29802FB11014C0860F20910F0143
:102E8000622F6F0D7727771F9B01220F331F260FAD
:102E9000371F2B503D4F4E2D6D2D0E94A815F394DA
:102EA000DCCF861BEBCFE0EFF2E09181282F43814E
:102EB000628188E0890F0E94DA16089581E00E94FD
:102EC00053170895E0EFF2E09181282F438162814A
:102ED00088EF890F0E94DA16089581E00E94621738
:102EE0000895E0EFF2E0628128E0620F08F46FEFEE
:102EF000282F438181810E94DA16089581E00E9483
:102F000071170895E0EFF2E0628128E0621B08F497
:102F100060E0282F438181810E94DA16089581E0C4
:102F20000E9482170895E0EFF2E0438128E0420F0B
:102F300008F44FEF282F628181810E94DA160895EC
:102F400081E00E9493170895E0EFF2E0438128E0CA
:102F5000421B08F440E0282F628181810E94DA162A
:102F6000089581E00E94A417089520E00E94DA16D7
:102F70000895EF92FF921F93CF93DF93EC0110E03F
:102F8000EE24EA94F12C60911101161770F00E9462
:102F900029169A818C8190FF27C08F5F8C83DF91E7
:102FA000CF911F91FF90EF90089520910F01422F34
:102FB000410F5527551FCA019A01220F331F280FB1
:102FC000391F2B503D4F70E0C7010E94BE29962F3C
:102FD0008C814091F3026091F202199F800D1124BF
:102FE0000E94A8151F5FCFCF8150D8CFB0E0A0E0DE
:102FF000ECEFF7E10C94332AFC0182810FEF80FFA4
:1030000001E010E04EE0A42E80911101181798F015
:103010000E94291680919D02013009F04FC0811154
:1030200002C080911101815080939D02CDB7DEB71F
:10303000EAE00C944F2AC0910F01C12ED12CCC0D87
:10304000DD2DD11DCE01880F991FC80FD91FCB5080
:10305000DD4F198218821A8234E0E32EF12CB12C54
:1030600080919D028B0D8F301CF16A2D0E949C294E
:10307000892F082E000C990BC816D90691F480915F
:10308000F3028E9DA0018F9D500D112455954795FB
:10309000559547959E016091F2028091F1020E9440
:1030A000A815B00EF1E0EF1AF108D1F61F5FACCF12
:1030B00087FFDFCF90911101890FDBCF90E0019660
:1030C0006091110170E00E94BE29AECF0F931F9353
:1030D000CF93DF9380910F019091100123E0829FA5
:1030E000F0011124EB50FD4F891740F1C0E0D3E00F
:1030F00060911101C61740F10E94291620910B0121
:1031000080919C02820F80939C0290910C01920FFF
:1031100090930C01191654F4082E000C990B409151
:1031200011014150550B841795071CF021952093F0
:103130000B01DF91CF911F910F91089511821082A1
:1031400012828F5F3396D0CF0C2F10E070E0C80151
:103150000E94BE2920910F01820F482F50E020913C
:103160009C02022E000C330B02171307BCF02091B7
:103170000C01022E000C330B201731077CF08D9FC1
:10318000900111242B503D4F4091F3026091F202C7
:103190008091F1020E94A815CF5FAACFFA01EE0F2D
:1031A000FF1FE40FF51FEB50FD4F118210821282BA
:1031B000F3CFB0E0A0E0EFEDF8E10C94312AEC01A0
:1031C0004C81042F10E09801D8010E94022A9B0133
:1031D000AC010E94182A4B015C01E0E2F0E0E01B28
:1031E000F10BA5E5B0E0AC019B010E94182A6B0130
:1031F0007C019F01DF010E94FA299B01AC010E9422
:10320000232A9B01AC01280D391D4A1D5B1DC701F6
:10321000B6010E94D229F22E822F90E039E23F15AA
:1032200020F143E0249F9001112435952795122F1A
:10323000109500E085E5E82EEF1880911101081740
:1032400018F10E9429169C8181E0992319F090328F
:1032500019F48FEF80930A0180910A01890F8C8302
:10326000CDB7DEB7ECE00C944D2A25E530E0B9018E
:10327000681B790B9B01220F331F260F371F37FF67
:10328000D4CF2F5F3F4FD1CF8E2D01FD8F2D2091B9
:103290000F01622F600F7727771F9B01220F331FCB
:1032A000260F371F2B503D4F412F6091F2020E9495
:1032B000A8150F5FC2CF0F931F93CF93DF93EC013D
:1032C00010E000E0909111019017110609F06CF4E4
:1032D0000E9429168C8190E00196817099278C8339
:1032E000DF91CF911F910F91089520910F01A801B7
:1032F000420F511D9A01220F331F240F351F2B50EF
:103300003D4F4C816091F2028091F10296959017A9
:10331000110651F04CF0442349F04091F3020E9411
:10332000A8150F5F1F4FCECF4423B9F340E0F7CF6E
:10333000E0EFF2E080818E7F808360817181828105
:1033400093810E94CA151092A8022FEF80E792E0A5
:10335000215080409040E1F700C000000E942916F3
:103360000895E0EFF2E080818E7F80831092A802C2
:103370002FEF80E792E0215080409040E1F700C0BD
:1033800000000E94291608951092A8028091A502BB
:1033900081110AC081E08093A5028091F0028170C2
:1033A0008093A4020E94B11908956091F00266957D
:1033B00070E04BE050E082E191E00E946E2A892BA0
:1033C00019F481E08093A8020E94422290939F0208
:1033D00080939E0208959091F00290FF2BC091700F
:1033E000811129C092609093F002662351F06091A0
:1033F000F0027091F1028091F2029091F3020E942A
:10340000CA156091F002669570E04BE050E082E1F1
:1034100091E00E946E2A892BA9F01092A80281E007
:103420008093A1024091F3026091F2028091F10237
:103430000E94B5170895853210F09864D4CF880F94
:10344000982BD1CF0E94D519EACF682F9091F00226
:10345000969581E0890F853208F081E00E94EB1992
:10346000089581E00E94251A0895682F9091F00236
:1034700096958FEF890F09F484E20E94EB19089565
:1034800081E00E94351A089561E00E94EB190895C9
:10349000E0EFF2E080818160808386950E94441A8B
:1034A00008958091F00280FF03C00E94981908954A
:1034B0000E94481A089560E00E94EB1908958091D7
:1034C000A60281112EC00E943C0D811104C00E94F1
:1034D000E50D0E94DD150E94C5156093F002709302
:1034E000F1028093F2029093F3026E7F61F40E94E6
:1034F000DD150E94C5156093F0027093F102809370
:10350000F2029093F3020E94B6151092A8028091E5
:10351000F00280FF03C086950E945B1A81E08093D1
:10352000A6020895E0EFF2E08081816080838695B5
:103530000E945B1A08951092A5028091A402811145
:103540000E94921A0E94D51908950F931F93CF934A
:10355000DF938091A8028823B9F18091A702E091BE
:10356000F002E695E81BE093A002823091F5F0E0CE
:10357000EE5EFC4FE491CE2FD0E00DE716E1809196
:10358000A102882361F01092A1020E94422290932E
:103590009F0280939E021092A3021092A2020E94A8
:1035A0004222E0919E02F0919F028E1B9F0B8F3F63
:1035B0009F4750F4EC0FFD1FF0939F02E0939E0293
:1035C0008EE992E0F8010995DF91CF911F910F915B
:1035D0000895863049F4F0E0E15FFC4FE491CE2F8E
:1035E000D0E001E916E1CBCF893051F4E695F0E067
:1035F000E45FFC4FE491CE2FD0E009EB17E1BFCFA1
:103600008F3051F4E695F0E0E75FFC4FE491CE2F68
:10361000D0E006EF17E1B3CF853149F4F0E0EA5F7F
:10362000FC4FE491CE2FD0E006E618E1A8CFC8E227
:10363000D0E009ED18E1883109F4A1CF833239F4E3
:10364000E4E0F3E0C591D49101EA16E198CFC4EF2C
:10365000D1E00BE519E1843209F491CFC0EDD7E058
:1036600004EA15E18CCFFA01811101C0FB01099533
:103670000895CF93DF93C82FD62F0E94ED158C1796
:1036800048F00E94ED158D1728F40E94311ADF9141
:10369000CF9108958C2F0E94441AF9CF1F93CF9396
:1036A000DF93EC01FB01128111117EC00E944E0CD0
:1036B0008272CD3CFCE5DF0709F49CC008F041C0F4
:1036C000C73CECE5DE0709F481C0D8F4C43C9CE5B6
:1036D000D90709F471C030F4C33CDC4509F469C072
:1036E00011E062C0C53C9CE5D90709F46AC04DE60B
:1036F00057E16EE577E1C63CDC4591F70E94331B4C
:1037000053C0CA3CFCE5DF0709F46AC068F4C83C52
:10371000ECE5DE0709F45FC04EE757E16FE877E1BB
:10372000C93CDC4559F3DCCFCB3C9CE5D90709F417
:103730005CC041E256E169E076E1CC3CDC45F1F267
:10374000CFCFC23DFCE5DF0709F465C098F4CF3C5C
:103750009CE5D90709F457C008F451C0C03DFCE509
:10376000DF0709F455C0C13DDC4509F0B9CF6EE073
:1037700089E04BC0C53D9CE5D90709F452C058F417
:10378000C33DFCE5DF0709F449C0C43DDC4509F051
:10379000A7CF88E135C0C63D9CE5D90709F444C0F0
:1037A000CE35DD4509F09CCF812FDF91CF911F9160
:1037B00008950E94511AF8CF40E45AE161E37AE19A
:1037C0009DCF41E35AE160E47AE198CF4EE557E1BD
:1037D0006DE677E193CF4FE857E16EE777E18ECF63
:1037E00041EB57E160EA77E189CF40EA57E161EBCD
:1037F00077E184CF49E056E161E276E17FCF81E075
:103800000E94441AD1CF65E082E00E94391BCCCFE0
:1038100068E086E0FACF64E18FE0F7CF67E185E109
:10382000F4CF62E289E1F1CF83E2EACF86E090E073
:103830000E94912A0895682F86E090E00E94A52AB0
:103840000895EFE1F3E080818470896280830E94B3
:103850001B1C08950E943C0D811104C00E94E50DBF
:103860000E94211C0E94161C80931F03803320F0AD
:103870008770886280931F0390911F03892F817046
:1038800090FF04C0892F8695869586950E94331DEA
:10389000089580911F03982F96959695969595304B
:1038A00040F49F5F990F990F990F8770892B809330
:1038B0001F0380911F03816080931F030E941B1CC4
:1038C00080911F038695869586950E94331D0895E5
:1038D00080911F03982F987F79F0885080931F0361
:1038E000887F91E009F490E080911F0390FB80F9BC
:1038F00080931F030E941B1C80911F038695869551
:1039000086950E94331D089580911F0380FD13C08A
:10391000816080931F03813019F489E080931F0335
:1039200080911F030E941B1C80911F038695869522
:1039300086950E94331D089580911F0380FF08C063
:103940008E7F80931F030E941B1C80E00E94331D0A
:10395000089580911F0380FF03C00E949C1C08955E
:103960000E94841C089590911F03892F8695869547
:1039700086958F5F8F7197708630E0F4880F880F7F
:10398000880F892B80931F0380911F03887F91E00C
:1039900009F490E080911F0390FB80F980931F034E
:1039A0000E941B1C80911F038695869586950E9418
:1039B000331D089590931F03E7CF863008F085E00C
:1039C00090911F039770282F220F220F220F922B06
:1039D00090931F03987F21E009F420E090911F034A
:1039E00020FB90F990931F030E94331D08950E94BD
:1039F000DD1C80911F030E941B1C08959C01FB018C
:103A00008281882349F12E3BFCE53F07C9F040F451
:103A10002C3BECE53E0769F02D3B3C4579F00895E1
:103A2000203C9CE5390791F070F0213C3C4589F041
:103A3000089585E00E94F71C80E0089580E0FACFA9
:103A40000E94681CF9CF0E94491CF6CF0E94A91C55
:103A5000F3CF0E94B31CF0CF81E00895269A2E98F0
:103A600008952E9808958F929F92AF92BF92EF92F1
:103A7000FF920F931F93CF93DF93C82F8630C0F52B
:103A8000811137C0809180008F7D809380000E94DB
:103A9000311DA0918600B09187002C2F30E00E944C
:103AA000022A25E030E040E050E00E94D22989015E
:103AB0009A0180918600909187006CE070E00E94EE
:103AC000AA2960177107D8F0C80169E070E00E9468
:103AD000AA2970938B0060938A00DF91CF911F9188
:103AE0000F91FF90EF90BF90AF909F908F900895AF
:103AF000C5E080918000806280938000CACF809171
:103B0000860090918700E0908600F0908700E09119
:103B10008600F0918700C6E0D0E0BE010E94AA298D
:103B2000060F171F211D311D4801590185E0880C22
:103B3000991CAA1CBB1C8A95D1F7C701BE010E9423
:103B4000AA299F0150E040E0260F371F411D511D5B
:103B5000C501B4010E94D22949015A01E0918600B1
:103B6000F0918700CA01B9010E948C299B01AC0128
:103B7000DF010E94182A9B01AC01C501B4010E941B
:103B80008C292FE096958795779567952A95D1F79B
:103B9000009186001091870030E020E0061717079B
:103BA0002807390708F095CF60918600709187004B
:103BB00090CF08950E942E1D82E28093800089E1BB
:103BC000809381008FEF9FEF909387008093860012
:103BD0000E942A1C08956A9A4EB14B7F5EB15460D0
:103BE000EFB7F8949B01220F331F260F371F280FC2
:103BF000391F2817390741F4EFBF8FE594E001978B
:103C0000F1F700C000000895DC016D91CD0178E06E
:103C10005EB9000000C067FF4EB9660F000000C02B
:103C200000C000C04EB900C07A9591F7E2CFCF93A3
:103C3000DF93EC01FB018281882309F464C1C43065
:103C4000FDE5DF07E0F5CB3F9CE5D90730F49E01A9
:103C500022503C4524313105D8F50E94510D9093F6
:103C6000DB028093DA02C231ECE5DE0709F41FC102
:103C700008F06EC0C9308CE5D80709F4F2C008F02E
:103C80003FC0C530ECE5DE0709F4DBC058F5C330B2
:103C90008CE5D80709F4CDC008F0CFC08091DA02D6
:103CA0008160C230DC4509F4AEC08091DA029091A7
:103CB000DB020E945F0D0E94D20780E009C0C63A75
:103CC000EDE5DE0751F238F4C2369DE5D90729F259
:103CD000DF91CF9108959E012E5A3D452330310545
:103CE000B8F7BBCF8091DA028062C730FCE5DF070E
:103CF00009F489C008F4B1C08091DA02806483C0FD
:103D0000CD309CE5D90709F4BAC070F48091DA028D
:103D10008E7FCB30FCE5DF0709F475C008F4A7C03F
:103D20008091DA028D7F6FC0CF309CE5D90709F40E
:103D3000B6C008F4A8C0C031FCE5DF0709F4B3C081
:103D4000C131DC4509F0B1CF8091DA028F7B5BC0D5
:103D5000C1159DE5D90709F4B4C098F5CB3FFCE542
:103D6000DF0709F472C0B8F4C4319CE5D90709F43F
:103D7000B6C008F4A2C0C531DC4509F096CF8091E9
:103D8000DA0282FB992790F921E0922790FB82F9D1
:103D900090FB83F938C0CD3F8CE5D80709F477C094
:103DA00008F457C0CE3FECE5DE0709F474C08091FB
:103DB000DB028360CF3FDC4509F077CF8093DB02E5
:103DC00074CFC2368DE5D80709F496C068F4C230C6
:103DD000EDE5DE0709F48CC008F477C0C330DD459B
:103DE00009F063CF80E085C0CE3A9DE5D907E9F0C0
:103DF00068F49091DA02892F8E7F90FF8160C63A35
:103E0000DD4509F052CF8093DA024FCFCF3A8DE5EE
:103E1000D80789F1C03BDD4509F047CF9091DB021F
:103E2000892F877F93FF8860C9CF8091DB028860EC
:103E3000C5CF8091DA028260E6CF8091DA02846099
:103E4000E2CF8091DA028860DECF8091DB02816070
:103E5000B5CF8091DB028260B1CF8091DA028061C0
:103E6000D2CF0E94D2078091DA028068CCCF8091B5
:103E7000DA028C60C8CF8091DB02877F9FCF809170
:103E8000DA028B7FC0CF8091DA02877FBCCF80912E
:103E9000DB028E7F93CF8091DB028D7F8FCF80916D
:103EA000DA028F7EB0CF8091DA028F7DACCF0E9494
:103EB000D2078091DA028F77A6CF8091DA02837FD2
:103EC000A2CF8091DB028C7F79CF8091DB02982F8B
:103ED000909591708E7F892B90FB81F96FCF0E9416
:103EE000D2079091DA02892F97FB87F980588BCF00
:103EF00081E00E94E80DD9CE9091DA02892F8F7E61
:103F000094FF806180CF81E0E3CECF93DF93EB011C
:103F100086319C4511F50E944E0C9A81992399F0A7
:103F20008A7A91E009F490E09093A902811109C086
:103F300089E20E94260C0E948F0C80E0DF91CF91D5
:103F4000089585E3F6CF8091A902811104C089E22A
:103F50000E942E0CF0CF85E3FBCF81E0EFCF0F93D3
:103F60001F93CF93DF93C42FD22FFC01828188232C
:103F7000C9F04093AC020E9442229093AB0280931E
:103F8000AA0280E28C0F883040F4C77081E001C043
:103F9000880FCA95EAF70E947405DF91CF911F91AF
:103FA0000F9108951091AC02141332C08091AA02AF
:103FB0009091AB020E945A22883C910548F5C0E2DC
:103FC000CD0F1D17B9F080E2810F883040F41770D3
:103FD00081E001C0880F1A95EAF70E947B05C8307E
:103FE00048F481E09D2F977001C0880F9A95EAF7F9
:103FF0000E947405802F0E946B05C83070F6D77040
:1040000081E001C0880FDA95EAF70E947B05C5CFF1
:1040100080E28C0F883008F6C77081E001C0880FFD
:10402000CA95EAF7F2CF0F939C01CB01243F4CE5F0
:10403000340759F1A8F4293DFCE53F0701F12A3D79
:104040004CE53407D1F1283D3C4591F406E221EEE0
:1040500041EE68ED7CE50E94AF1F80E00F9108956E
:10406000263FFCE53F07E9F0B0F0273F3C45F9F07B
:10407000FC018281882339F11092AC02EFCF07E274
:1040800025EE45EE69ED7CE5E6CF06E221EE40EE59
:1040900064EF7CE5E0CF07E225EE44EE65EF7CE5DA
:1040A000DACF06E221EE42EE66EF7CE5D4CF07E2FE
:1040B00025EE46EE67EF7CE5CECF08E221E045EE47
:1040C0006AED7CE5C8CF81E0C9CF9093C7018093AA
:1040D000C60108959093B2028093B1020895E091D1
:1040E000B102F091B202309729F00190F081E02DF9
:1040F0000995089580E00895E091B102F091B2022F
:10410000309799F020912901222359F02091DA0269
:1041100027FF07C0DC012C9111962C93119726E004
:104120002C930280F381E02D09950895E091B1026E
:10413000F091B202309739F022E0DC012C93048038
:10414000F581E02D099508952091AF023091B002DC
:104150002817390771F09093B0028093AF02E09175
:10416000B102F091B202309721F00680F781E02D84
:10417000099508952091AD023091AE0228173907B4
:1041800071F09093AE028093AD02E091B102F09194
:10419000B202309721F00084F185E02D0995089551
:1041A000FC01329680912901882321F08091DA0266
:1041B0009EE187FF96E080E0915008F408952191F8
:1041C0002223D1F38F5FF8CF662301F120912901DB
:1041D0002223F1F02091DA0227FF1AC0462F4695DC
:1041E000469546954E3190F4677021E030E002C06C
:1041F000220F331F6A95E2F7840F911DFC01828123
:1042000090E02823392381E0232B69F480E008958E
:10421000FC01329608962191261721F0E817F9073C
:10422000D1F7F4CF81E008959C01FC0132969FEF15
:1042300080E04191461751F09F3F19F4411101C0B0
:10424000982F8F5F8630A9F79F3F09F40895290FB3
:10425000311D97FD3A95F90162830895FC0132966C
:1042600008962191261303C0DF0111971C92E817CD
:10427000F907B9F70895E62FE695E695E695EE314C
:1042800068F4E80FF92FF11D677021E030E001C0FC
:10429000220F6A95EAF78281822B82830895E62FA6
:1042A000E695E695E695EE3170F4E80FF92FF11DED
:1042B000677021E030E001C0220F6A95EAF720958F
:1042C000828128232283089520912901222339F015
:1042D0002091DA0227FF03C00E943B2108950E942B
:1042E0001421089520912901222339F02091DA0226
:1042F00027FF03C00E944F2108950E942E21089598
:10430000FC01329680912901882351F08091DA02D4
:1043100087FF06C08EE1DF011D928A95E9F70895B7
:1043200086E0F9CF46E050E00E947B2A21E0892B0D
:1043300009F420E0822F089508950E949C21089599
:10434000811106C081E08093B3020E949D210895EF
:1043500082E0F9CF83E08093B3020E949D2108950B
:104360000E94A021089581E08093B3020E949D21C4
:1043700008950E94B3210895089508950E94BD21D3
:104380000895089508950E94BC210895CF930E9436
:10439000C1210E94DA110E94C221C0E08C2F0E942C
:1043A000FE10892B31F4CF5FC530C1F780E0CF918B
:1043B000089581E0FCCF85B7806885BF85B78068A8
:1043C00085BF08951F921FB61F9211248F939F934C
:1043D000AF93BF938091B402811113C080912003E9
:1043E00090912103A0912203B09123034196A11D36
:1043F000B11D8093200390932103A0932203B093D7
:104400002303BF91AF919F918F911F901FBE1F906B
:10441000189580912803843031F10E94460410924F
:10442000B40288E190E020E40FB6F894A895809358
:1044300060000FBE2093600083B7817F846083BFDC
:1044400083B7816083BF7894889583B78E7F83BF5D
:104450000FB6F894A8958091600088618093600001
:10446000109260000FBE08950E94D2070E9450046F
:10447000089582E084BD93E095BD9AEF97BD809347
:104480006E0008952FB7F894809120039091210336
:10449000A0912203B09123032FBF08952FB7F89462
:1044A0006091200370912103809122039091230356
:1044B0002FBF08959C014FB7F894809120039091ED
:1044C0002103A0912203B09123034FBF821B930BC2
:1044D000089578941F921FB61F9211248F939F9373
:1044E000AF93BF938091200390912103A091220369
:1044F000B09123030196A11DB11D809320039093D9
:104500002103A0932203B0932303BF91AF919F9106
:104510008F911F901FBE1F90189581E08093E0003F
:1045200080E28093D8001092C9008FE19EE4019749
:10453000F1F700C0000087E090EBDC0180933103CD
:1045400090933203A0933303B093340388E19CE04B
:104550000FB6F894A895809360000FBE909360000A
:10456000FFCF88E19CE00FB6F894A8958093600097
:104570000FBE90936000FFCF8091D80208950895F8
:104580009C0182E08093E9009FEF8091E8009150C8
:1045900085FD06C085ED8A95F1F700009111F5CFF4
:1045A0008091E80085FF0CC050E040E066E070E0DC
:1045B000C9010E9405258091E8008E778093E8006C
:1045C0000895CF93DF93EC01809129018823B1F105
:1045D0008091DA0287FF32C060E282E08093E900D6
:1045E0008FEF9091E800815095FD06C095ED9A956A
:1045F000F1F700008111F5CF8091E80085FF1BC025
:104600008091290170E050E040E0811104C050E049
:1046100040E068E070E0CE010E9405258091E8004E
:104620008E778093E80080E2FE01A8EBB2E0019073
:104630000D928A95E1F7DF91CF91089568E081E0CE
:10464000CDCF8093B5027093B7026093B60280918C
:104650002803843001F582E08093E9008FEF909188
:10466000E800815095FD06C095ED9A95F1F70000A0
:104670008111F5CF8091E80085FF0DC050E040E04A
:1046800063E070E085EB92E00E9405258091E800F0
:104690008E778093E8000895BC0184E00E94212376
:1046A0000895BC0183E00E9421230895809127038F
:1046B000811109C00E9495260E94F2268091E20095
:1046C00084608093E20008951092270308950E9469
:1046D000B32108956091240381E0611101C080E05D
:1046E0000E94AA2108959091280381E0943009F056
:1046F00080E0609124030E94B021089542E061ECC3
:1047000081E00E94112642E261EC82E00E941126C3
:104710009091280381E0943009F080E060912403B7
:104720000E94A021089580912A03833009F461C07A
:1047300030F48130D1F1823009F49EC008958A307E
:1047400009F48AC08B3009F46FC0893009F050C079
:1047500080912903813209F04BC080912D03909103
:104760002E03029708F044C08091E800877F809371
:10477000E8008091E80082FF37C09091F3008091BB
:10478000F200029731F48091F100813011F086300F
:1047900021F48091F1008093D8028091E8008B771A
:1047A0008093E8000E94452623C080912903813A26
:1047B000F9F48091E800877F8093E80080912D03D1
:1047C00090912E03892B61F460E288EB92E070E017
:1047D0000E9454258091E8008B778093E80008952B
:1047E00060E090E080E0F3CF809128038111C1CF99
:1047F000089580912903813AD9F780912D039091F2
:104800002E03892BA9F78091E800877F8093E80029
:104810008091E80080FFFCCF809129018093F10016
:104820008091E8008E77BCCF80912903813201F717
:1048300080912D0390912E03892BD1F68091E80071
:10484000877F8093E8000E94452680912B03809308
:1048500029010E94D207089580912903813241F6EF
:104860008091E800877F8093E8000E944526809130
:104870002C038093D902089580912903813A09F08D
:10488000B7CF8091E800877F8093E8008091E800AF
:1048900080FFFCCF8091D902C1CF84B7877F84BFCE
:1048A0000FB6F894A89580916000886180936000AD
:1048B000109260000FBE80E890E00FB6F8948093ED
:1048C0006100909361000FBE0E94B92108950E947B
:1048D00095260E94F226E2EEF0E0808184608083DB
:1048E00078940E94712908958DE191E00E946A20D8
:1048F000089580912803853031F480912803853014
:1049000019F00E94342208950E9409228091260302
:10491000882399F30E94C621882379F30E94EF240B
:104920000E94D207EACF08950E9497240895292F64
:1049300033272330310519F168F42130310509F4AA
:1049400044C02230310509F445C090E080E030E0F9
:1049500020E025C02132310549F122323105A9F785
:1049600080E490E02CE336E061157105C1F086EB40
:1049700090E026E835E06130710589F0E6CF9927AF
:104980008130910581F0009729F00297F1F6EBE173
:10499000F5E002C0E5E3F5E0849190E09F01FA01C3
:1049A000318320830895E9E2F5E0F6CF89E090E0D5
:1049B0002BE435E06115710591F389E090E024E680
:1049C00035E06130710559F3C0CF82E190E024E712
:1049D00035E0E5CF8BE390E029E335E0E0CF80E1FF
:1049E00089BD82E189BD09B400FEFDCF8091D80068
:1049F0008F7D8093D8008091E00082608093E000FA
:104A00008091E00081FDFCCF0895AF92BF92CF92DC
:104A1000DF92FF920F931F93CF93DF936C01EB0113
:104A20008A010E946426F82E811123C00115110508
:104A300039F0F80180819181C81BD90BC80ED91EAD
:104A4000B12CA12C2097A9F08091E80085FD22C00F
:104A50008091E8008E778093E80001151105A1F0A0
:104A6000F80180819181A80EB91EB182A08285E0F3
:104A7000F82E8F2DDF91CF911F910F91FF90DF9036
:104A8000CF90BF90AF9008950E9464268823D1F202
:104A9000F82EEFCFF60181916F018093F1002197FD
:104AA000FFEFAF1ABF0ACECFFC0180912F03909188
:104AB000300386179707A0F06115710529F49091CE
:104AC000E8009E779093E80090E06115710551F43D
:104AD000911108C08091E80082FF34C080E0089501
:104AE000BC01F2CF809128038823C1F18530C1F148
:104AF0008091E80083FD30C08091E80082FDEACF1C
:104B00008091E80080FFE1CF8091F3002091F200D6
:104B1000382F6115710519F02830310558F091E0F2
:104B20002830310509F090E02091E8002E7720939D
:104B3000E800CBCF81918093F100615071092F5F24
:104B40003F4FE7CF80912803882341F0853041F023
:104B50008091E80083FFBECF81E0089582E0089550
:104B600083E00895FC0180912F0390913003861714
:104B70009707A0F06115710529F48091E8008E7700
:104B80008093E80090E06115710551F4911108C01F
:104B90008091E80082FF35C080E00895BC01F2CF2B
:104BA000809128038823C9F18530C9F18091E800FC
:104BB00083FD31C08091E80082FDEACF8091E8005A
:104BC00080FFE1CF8091F3002091F200382F611532
:104BD000710519F02830310558F091E02830310581
:104BE00009F090E08091E8008E778093E800CBCFC9
:104BF00084918093F1003196615071092F5F3F4F8E
:104C0000E6CF80912803882341F0853041F08091E0
:104C1000E80083FFBDCF81E0089582E0089583E03E
:104C20000895982F973028F08F708093E90081E0E5
:104C300008959093E900242F762F50E0981731F0D3
:104C40007091EC002091ED005091F00021FD02C028
:104C50009F5FE8CF3091EB003E7F3093EB003091C7
:104C6000ED003D7F3093ED003091EB0031603093EB
:104C7000EB007093EC002093ED005093F000209136
:104C8000EE0027FDE5CF80E008958091290387FF9E
:104C900013C08091E80082FF06C08091E8008B7706
:104CA0008093E80004C0809128038111F2CF089519
:104CB000809128038823D9F38091E80080FFF8CF02
:104CC0008091E8008E77ECCF2091E4003091E500F0
:104CD00095E6A9012091EC00822F817020FF06C08B
:104CE0008091E80080FF06C080E008952091E800F0
:104CF00022FD1AC080912803882389F0853089F02D
:104D00008091EB0085FD0FC02091E4003091E5001B
:104D100042175307F9F29150E1F684E0089582E0DA
:104D2000089583E0089581E008950E9404270E9479
:104D30000C27E0EEF0E0808181608083E8EDF0E018
:104D400080818F77808319BCA7EDB0E08C918E7F36
:104D50008C9380818F7E80831092270308950F9318
:104D60001F93CF93DF930E9404270E940C27C8ED66
:104D7000D0E088818F778883888180688883888164
:104D80008F7D888319BC10922803109224031092FF
:104D900026031092250300EE10E0F80180818B7F3E
:104DA000808388818160888342E060E080E00E94A7
:104DB0001126E1EEF0E080818E7F8083E2EEF0E06C
:104DC000808181608083808188608083F801808118
:104DD0008E7F8083888180618883DF91CF911F914E
:104DE0000F910895E8EDF0E080818F7E8083E7EDFC
:104DF000F0E080818160808384E082BF81E08093E5
:104E000027030E94AF260895E8EDF0E080818E7FB1
:104E100080831092E20008951092DA001092E1006F
:104E200008951F920F920FB60F9211242F933F9364
:104E30004F935F936F937F938F939F93AF93BF93A2
:104E4000EF93FF938091E10082FF0BC08091E2001D
:104E500082FF07C08091E1008B7F8093E1000E9478
:104E600070298091DA0080FF19C08091D80080FFFE
:104E700015C08091DA008E7F8093DA008091D9008E
:104E800080FF96C080E189BD82E189BD09B400FE42
:104E9000FDCF81E0809328030E9456238091E1009A
:104EA00080FF19C08091E20080FF15C08091E20070
:104EB0008E7F8093E2008091E20080618093E20027
:104EC0008091D80080628093D80019BC85E08093DF
:104ED00028030E946A238091E10084FF2BC0809107
:104EE000E20084FF27C080E189BD82E189BD89B5E8
:104EF000982F917080FFFBCF8091D8008F7D809399
:104F0000D8008091E1008F7E8093E1008091E200E3
:104F10008F7E8093E2008091E20081608093E200C6
:104F200080912403882309F449C084E080932803F6
:104F30000E9473238091E10083FF29C08091E200E9
:104F400083FF25C08091E100877F8093E10082E0AC
:104F500080932803109224038091E1008E7F809338
:104F6000E1008091E2008E7F8093E2008091E20078
:104F700080618093E20042E060E080E00E941126C0
:104F80008091F00088608093F0000E946723FF9179
:104F9000EF91BF91AF919F918F917F916F915F91B1
:104FA0004F913F912F910F900FBE0F901F9018952A
:104FB00019BC109228030E94642370CF8091E300F3
:104FC00087FD93E090932803B3CF1F920F920FB603
:104FD0000F9211242F933F934F935F936F937F937F
:104FE0008F939F93AF93BF93CF93DF93EF93FF93F1
:104FF000D091E900DF708091EC00C82FC17080FD76
:10500000C0E81092E9008091F000877F8093F00063
:1050100078940E9429281092E9008091F00088601D
:105020008093F000CD2BCF70C093E900FF91EF91FA
:10503000DF91CF91BF91AF919F918F917F916F91B0
:105040005F914F913F912F910F900FBE0F901F9046
:105050001895AAE2B0E0EFE2F8E20C943A2A89E26D
:1050600093E02091F100FC012193CF01F3E0813323
:105070009F07B9F70E9493238091E80083FF1EC128
:105080008091290390912A039A3008F017C1E92FE3
:10509000F0E0E951F54D0C94F429803899F082380C
:1050A00009F00CC180912D038F70873008F006C184
:1050B0008093E9008091EB0085FB882780F91092AE
:1050C000E90006C08091250390912603911182602A
:1050D0009091E800977F9093E8008093F100109200
:1050E000F1008091E8008E77E5C0882309F4D3C0F1
:1050F000823009F0E3C080912B038111D6C08091EA
:105100002D038F702FEF280F263008F0D7C0809323
:10511000E9002091EB0020FFC8C0933031F480916A
:10512000EB0080628093EB00C0C09091EB00906137
:105130009093EB0021E030E001C0220F8A95EAF75E
:105140002093EA001092EA008091EB008860EACF99
:105150008111B4C010912B031F778091E3008078F8
:10516000812B8093E3008091E800877F8093E800A3
:105170000E9445268091E80080FFFCCF8091E300EB
:1051800080688093E30082E0111183E0809328031C
:1051900095C08058823008F091C080912B03909187
:1051A0002C038C3D23E09207A1F583E08A838AE2F9
:1051B00089834FB7F894DE01139620E03EE051E278
:1051C000E32FF0E050935700E49120FF03C0E295F5
:1051D000EF703F5FEF708E2F90E0EA30C0F0C7961F
:1051E0008D939D932F5F243159F74FBF8091E80035
:1051F000877F8093E8006AE270E0CE0101960E940A
:1052000054258091E8008B778093E80057C0C096C2
:10521000E7CF60912D0370912E03AE014F5F5F4F7A
:105220000E949424BC01892B09F448C09091E800A5
:10523000977F9093E80089819A810E94B225E1CFFF
:105240008038E1F58091E800877F8093E8008091C5
:1052500024038093F10045CF811130C090912B033E
:10526000923060F58091E800877F8093E80090930A
:1052700024030E94452680912403882311F084E0B2
:1052800005C08091E30087FDFACF81E08093280379
:105290000E947E2313C080912B03813079F481E03A
:1052A000933009F080E0809326031092E90080910A
:1052B000E800877F8093E8000E9445268091E800FF
:1052C00083FF0AC08091E800877F8093E800809187
:1052D000EB0080628093EB00AA96E3E00C94562AE0
:1052E0000895CF93809128038823A1F0C091E9000D
:1052F000CF709091EC00892F817090FD80E8C82BD1
:105300001092E9008091E80083FD0E942928CF7067
:10531000C093E900CF910895DB018F939F930E9482
:10532000182ABF91AF91A29F800D911DA39F900D50
:10533000B29F900D1124089587FB082E062687FD45
:10534000819567FD61950E94622A0EF4919507FC94
:1053500081950895AA1BBB1B51E107C0AA1FBB1F63
:10536000A617B70710F0A61BB70B881F991F5A95F1
:10537000A9F780959095BC01CD01089597FB072E64
:1053800016F4009407D077FD09D00E94AA2907FCE3
:1053900005D03EF4909581959F4F08957095619545
:1053A0007F4F0895A1E21A2EAA1BBB1BFD010DC061
:1053B000AA1FBB1FEE1FFF1FA217B307E407F507C5
:1053C00020F0A21BB30BE40BF50B661F771F881FA1
:1053D000991F1A9469F760957095809590959B0137
:1053E000AC01BD01CF010895EE0FFF1F0590F491B0
:1053F000E02D09940E94022A332312F48A1B9B0B8E
:105400000C94132AA29FB001B39FC001A39F700DFB
:10541000811D1124911DB29F700D811D1124911DBC
:1054200008950E94022AB7FF0895821B930B0895E6
:105430000E94022AA59F900DB49F900DA49F800DFD
:10544000911D11240895B7FF0C94182A0E94182A60
:10545000821B930B08952F923F924F925F926F920F
:105460007F928F929F92AF92BF92CF92DF92EF92F4
:10547000FF920F931F93CF93DF93CDB7DEB7CA1B75
:10548000DB0B0FB6F894DEBF0FBECDBF09942A88A0
:10549000398848885F846E847D848C849B84AA8448
:1054A000B984C884DF80EE80FD800C811B81AA81D5
:1054B000B981CE0FD11D0FB6F894DEBF0FBECDBFA0
:1054C000ED010895991B79E004C0991F961708F023
:1054D000961B881F7A95C9F780950895FC01415065
:1054E000504030F001900616D1F73197CF01089562
:1054F000882799270895FB01DC0104C08D91019054
:10550000801921F441505040C8F7881B990B089529
:10551000FB01DC0102C001900D9241505040D8F7D0
:105520000895F999FECF92BD81BDF89A992780B56B
:105530000895A6E1B0E044E050E00C94CB2AA8E145
:10554000B0E042E050E00C94CB2A262FF999FECF30
:1055500092BD81BDF89A019700B4021639F01FBAC6
:1055600020BD0FB6F894FA9AF99A0FBE08950396E3
:10557000272F0E94A62A0E94A52A252F0E94A62A2C
:10558000242F0C94A62A0196272F0E94A62A0C9459
:10559000A52ADC01CB01FC01F999FECF06C0F2BDC2
:1055A000E1BDF89A319600B40D9241505040B8F7E1
:1055B0000895F894FFCFBD05BD05EE05EE057B0609
:1055C00097061D061D06A2061307220722074D286F
:1055D00075285E2975285E29A828C9285E292029F2
:0255E0002C2974
:1055E2005402280850011E0A1401010102000E0093
:1055F2000E0E01191A1B1C1D1E1F202122BC22E1A6
:1056020022C02251234C23BF2201E200E900EA001A
:10561200B500B600B700CD008301CC008A0192012B
:1056220094012102230224022502260227022A02D1
:10563200B300B4006F007000818283E200E900EAE7
:1056420000B500B600B700CD008301CC008A0192FC
:105652000194012102230224022502260227022AA2
:1056620002B300B4006F0070008182839091929324
:105672009594969734F7F6F5F4F1F03031323337EA
:105682000001020202020606060909090909090FB8
:105692000F0F0F0F0F1515151819191919191919B7
:0656A20019191923240070
:00000001FF
